{
  "_format": "hh-sol-artifact-1",
  "contractName": "ProfileRegistry",
  "sourceName": "contracts/ProfileRegistry.sol",
  "abi": [
    {
      "inputs": [],
      "stateMutability": "nonpayable",
      "type": "constructor"
    },
    {
      "anonymous": false,
      "inputs": [
        {
          "indexed": true,
          "internalType": "address",
          "name": "admin",
          "type": "address"
        }
      ],
      "name": "AdminAdded",
      "type": "event"
    },
    {
      "anonymous": false,
      "inputs": [
        {
          "indexed": true,
          "internalType": "address",
          "name": "admin",
          "type": "address"
        }
      ],
      "name": "AdminRemoved",
      "type": "event"
    },
    {
      "anonymous": false,
      "inputs": [
        {
          "indexed": true,
          "internalType": "address",
          "name": "dao",
          "type": "address"
        }
      ],
      "name": "DAOAdded",
      "type": "event"
    },
    {
      "anonymous": false,
      "inputs": [
        {
          "indexed": true,
          "internalType": "address",
          "name": "dao",
          "type": "address"
        }
      ],
      "name": "DAORemoved",
      "type": "event"
    },
    {
      "anonymous": false,
      "inputs": [
        {
          "indexed": true,
          "internalType": "uint256",
          "name": "profileId",
          "type": "uint256"
        },
        {
          "indexed": false,
          "internalType": "string",
          "name": "documentType",
          "type": "string"
        },
        {
          "indexed": false,
          "internalType": "string",
          "name": "documentHash",
          "type": "string"
        }
      ],
      "name": "DocumentUploaded",
      "type": "event"
    },
    {
      "anonymous": false,
      "inputs": [
        {
          "indexed": true,
          "internalType": "address",
          "name": "previousOwner",
          "type": "address"
        },
        {
          "indexed": true,
          "internalType": "address",
          "name": "newOwner",
          "type": "address"
        }
      ],
      "name": "OwnershipTransferred",
      "type": "event"
    },
    {
      "anonymous": false,
      "inputs": [
        {
          "indexed": true,
          "internalType": "uint256",
          "name": "profileId",
          "type": "uint256"
        },
        {
          "indexed": true,
          "internalType": "address",
          "name": "approver",
          "type": "address"
        }
      ],
      "name": "ProfileApproved",
      "type": "event"
    },
    {
      "anonymous": false,
      "inputs": [
        {
          "indexed": true,
          "internalType": "uint256",
          "name": "profileId",
          "type": "uint256"
        },
        {
          "indexed": true,
          "internalType": "address",
          "name": "owner",
          "type": "address"
        },
        {
          "indexed": false,
          "internalType": "string",
          "name": "name",
          "type": "string"
        }
      ],
      "name": "ProfileCreated",
      "type": "event"
    },
    {
      "anonymous": false,
      "inputs": [
        {
          "indexed": true,
          "internalType": "uint256",
          "name": "profileId",
          "type": "uint256"
        },
        {
          "indexed": true,
          "internalType": "address",
          "name": "rejector",
          "type": "address"
        },
        {
          "indexed": false,
          "internalType": "string",
          "name": "reason",
          "type": "string"
        }
      ],
      "name": "ProfileRejected",
      "type": "event"
    },
    {
      "anonymous": false,
      "inputs": [
        {
          "indexed": true,
          "internalType": "uint256",
          "name": "profileId",
          "type": "uint256"
        },
        {
          "indexed": true,
          "internalType": "address",
          "name": "owner",
          "type": "address"
        }
      ],
      "name": "ProfileUpdated",
      "type": "event"
    },
    {
      "inputs": [],
      "name": "MAX_REPUTATION_SCORE",
      "outputs": [
        {
          "internalType": "uint256",
          "name": "",
          "type": "uint256"
        }
      ],
      "stateMutability": "view",
      "type": "function"
    },
    {
      "inputs": [],
      "name": "MIN_REPUTATION_SCORE",
      "outputs": [
        {
          "internalType": "uint256",
          "name": "",
          "type": "uint256"
        }
      ],
      "stateMutability": "view",
      "type": "function"
    },
    {
      "inputs": [
        {
          "internalType": "address",
          "name": "_admin",
          "type": "address"
        }
      ],
      "name": "addAdmin",
      "outputs": [],
      "stateMutability": "nonpayable",
      "type": "function"
    },
    {
      "inputs": [
        {
          "internalType": "address",
          "name": "_dao",
          "type": "address"
        }
      ],
      "name": "addDAO",
      "outputs": [],
      "stateMutability": "nonpayable",
      "type": "function"
    },
    {
      "inputs": [
        {
          "internalType": "address",
          "name": "",
          "type": "address"
        }
      ],
      "name": "addressToProfileId",
      "outputs": [
        {
          "internalType": "uint256",
          "name": "",
          "type": "uint256"
        }
      ],
      "stateMutability": "view",
      "type": "function"
    },
    {
      "inputs": [
        {
          "internalType": "address",
          "name": "",
          "type": "address"
        }
      ],
      "name": "admins",
      "outputs": [
        {
          "internalType": "bool",
          "name": "",
          "type": "bool"
        }
      ],
      "stateMutability": "view",
      "type": "function"
    },
    {
      "inputs": [
        {
          "internalType": "uint256",
          "name": "_profileId",
          "type": "uint256"
        }
      ],
      "name": "approveProfile",
      "outputs": [],
      "stateMutability": "nonpayable",
      "type": "function"
    },
    {
      "inputs": [
        {
          "internalType": "string",
          "name": "_name",
          "type": "string"
        },
        {
          "internalType": "string",
          "name": "_email",
          "type": "string"
        },
        {
          "internalType": "string",
          "name": "_documentHash",
          "type": "string"
        }
      ],
      "name": "createProfile",
      "outputs": [
        {
          "internalType": "uint256",
          "name": "",
          "type": "uint256"
        }
      ],
      "stateMutability": "nonpayable",
      "type": "function"
    },
    {
      "inputs": [
        {
          "internalType": "address",
          "name": "",
          "type": "address"
        }
      ],
      "name": "daos",
      "outputs": [
        {
          "internalType": "bool",
          "name": "",
          "type": "bool"
        }
      ],
      "stateMutability": "view",
      "type": "function"
    },
    {
      "inputs": [
        {
          "internalType": "address",
          "name": "_address",
          "type": "address"
        }
      ],
      "name": "getProfileByAddress",
      "outputs": [
        {
          "components": [
            {
              "internalType": "uint256",
              "name": "id",
              "type": "uint256"
            },
            {
              "internalType": "address",
              "name": "owner",
              "type": "address"
            },
            {
              "internalType": "string",
              "name": "name",
              "type": "string"
            },
            {
              "internalType": "string",
              "name": "email",
              "type": "string"
            },
            {
              "internalType": "string",
              "name": "documentHash",
              "type": "string"
            },
            {
              "internalType": "enum ProfileRegistry.ProfileStatus",
              "name": "status",
              "type": "uint8"
            },
            {
              "internalType": "uint256",
              "name": "createdAt",
              "type": "uint256"
            },
            {
              "internalType": "uint256",
              "name": "updatedAt",
              "type": "uint256"
            },
            {
              "internalType": "address",
              "name": "approvedBy",
              "type": "address"
            },
            {
              "internalType": "uint256",
              "name": "reputationScore",
              "type": "uint256"
            },
            {
              "internalType": "bool",
              "name": "isActive",
              "type": "bool"
            }
          ],
          "internalType": "struct ProfileRegistry.Profile",
          "name": "",
          "type": "tuple"
        }
      ],
      "stateMutability": "view",
      "type": "function"
    },
    {
      "inputs": [
        {
          "internalType": "uint256",
          "name": "_profileId",
          "type": "uint256"
        }
      ],
      "name": "getProfileDocuments",
      "outputs": [
        {
          "components": [
            {
              "internalType": "string",
              "name": "documentType",
              "type": "string"
            },
            {
              "internalType": "string",
              "name": "documentHash",
              "type": "string"
            },
            {
              "internalType": "uint256",
              "name": "uploadedAt",
              "type": "uint256"
            },
            {
              "internalType": "bool",
              "name": "isVerified",
              "type": "bool"
            }
          ],
          "internalType": "struct ProfileRegistry.VerificationDocument[]",
          "name": "",
          "type": "tuple[]"
        }
      ],
      "stateMutability": "view",
      "type": "function"
    },
    {
      "inputs": [],
      "name": "getTotalProfiles",
      "outputs": [
        {
          "internalType": "uint256",
          "name": "",
          "type": "uint256"
        }
      ],
      "stateMutability": "view",
      "type": "function"
    },
    {
      "inputs": [
        {
          "internalType": "address",
          "name": "_address",
          "type": "address"
        }
      ],
      "name": "isVerified",
      "outputs": [
        {
          "internalType": "bool",
          "name": "",
          "type": "bool"
        }
      ],
      "stateMutability": "view",
      "type": "function"
    },
    {
      "inputs": [],
      "name": "owner",
      "outputs": [
        {
          "internalType": "address",
          "name": "",
          "type": "address"
        }
      ],
      "stateMutability": "view",
      "type": "function"
    },
    {
      "inputs": [
        {
          "internalType": "uint256",
          "name": "",
          "type": "uint256"
        },
        {
          "internalType": "uint256",
          "name": "",
          "type": "uint256"
        }
      ],
      "name": "profileDocuments",
      "outputs": [
        {
          "internalType": "string",
          "name": "documentType",
          "type": "string"
        },
        {
          "internalType": "string",
          "name": "documentHash",
          "type": "string"
        },
        {
          "internalType": "uint256",
          "name": "uploadedAt",
          "type": "uint256"
        },
        {
          "internalType": "bool",
          "name": "isVerified",
          "type": "bool"
        }
      ],
      "stateMutability": "view",
      "type": "function"
    },
    {
      "inputs": [
        {
          "internalType": "uint256",
          "name": "",
          "type": "uint256"
        }
      ],
      "name": "profiles",
      "outputs": [
        {
          "internalType": "uint256",
          "name": "id",
          "type": "uint256"
        },
        {
          "internalType": "address",
          "name": "owner",
          "type": "address"
        },
        {
          "internalType": "string",
          "name": "name",
          "type": "string"
        },
        {
          "internalType": "string",
          "name": "email",
          "type": "string"
        },
        {
          "internalType": "string",
          "name": "documentHash",
          "type": "string"
        },
        {
          "internalType": "enum ProfileRegistry.ProfileStatus",
          "name": "status",
          "type": "uint8"
        },
        {
          "internalType": "uint256",
          "name": "createdAt",
          "type": "uint256"
        },
        {
          "internalType": "uint256",
          "name": "updatedAt",
          "type": "uint256"
        },
        {
          "internalType": "address",
          "name": "approvedBy",
          "type": "address"
        },
        {
          "internalType": "uint256",
          "name": "reputationScore",
          "type": "uint256"
        },
        {
          "internalType": "bool",
          "name": "isActive",
          "type": "bool"
        }
      ],
      "stateMutability": "view",
      "type": "function"
    },
    {
      "inputs": [
        {
          "internalType": "uint256",
          "name": "_profileId",
          "type": "uint256"
        },
        {
          "internalType": "string",
          "name": "_reason",
          "type": "string"
        }
      ],
      "name": "rejectProfile",
      "outputs": [],
      "stateMutability": "nonpayable",
      "type": "function"
    },
    {
      "inputs": [
        {
          "internalType": "address",
          "name": "_admin",
          "type": "address"
        }
      ],
      "name": "removeAdmin",
      "outputs": [],
      "stateMutability": "nonpayable",
      "type": "function"
    },
    {
      "inputs": [
        {
          "internalType": "address",
          "name": "_dao",
          "type": "address"
        }
      ],
      "name": "removeDAO",
      "outputs": [],
      "stateMutability": "nonpayable",
      "type": "function"
    },
    {
      "inputs": [],
      "name": "renounceOwnership",
      "outputs": [],
      "stateMutability": "nonpayable",
      "type": "function"
    },
    {
      "inputs": [
        {
          "internalType": "uint256",
          "name": "_profileId",
          "type": "uint256"
        }
      ],
      "name": "suspendProfile",
      "outputs": [],
      "stateMutability": "nonpayable",
      "type": "function"
    },
    {
      "inputs": [
        {
          "internalType": "address",
          "name": "newOwner",
          "type": "address"
        }
      ],
      "name": "transferOwnership",
      "outputs": [],
      "stateMutability": "nonpayable",
      "type": "function"
    },
    {
      "inputs": [
        {
          "internalType": "uint256",
          "name": "_profileId",
          "type": "uint256"
        },
        {
          "internalType": "string",
          "name": "_name",
          "type": "string"
        },
        {
          "internalType": "string",
          "name": "_email",
          "type": "string"
        }
      ],
      "name": "updateProfile",
      "outputs": [],
      "stateMutability": "nonpayable",
      "type": "function"
    },
    {
      "inputs": [
        {
          "internalType": "uint256",
          "name": "_profileId",
          "type": "uint256"
        },
        {
          "internalType": "uint256",
          "name": "_newScore",
          "type": "uint256"
        }
      ],
      "name": "updateReputationScore",
      "outputs": [],
      "stateMutability": "nonpayable",
      "type": "function"
    },
    {
      "inputs": [
        {
          "internalType": "uint256",
          "name": "_profileId",
          "type": "uint256"
        },
        {
          "internalType": "string",
          "name": "_documentType",
          "type": "string"
        },
        {
          "internalType": "string",
          "name": "_documentHash",
          "type": "string"
        }
      ],
      "name": "uploadDocument",
      "outputs": [],
      "stateMutability": "nonpayable",
      "type": "function"
    }
  ],
  "bytecode": "0x608080604052346100735760008054336001600160a01b0319821681178355604092916001600160a01b03167f8be0079c531659141344cd1fd0a4f28419497f9722a3daafe3b4186f6b6457e08380a360018055338152600660205220600160ff1982541617905561237690816100798239f35b600080fdfe608080604052600436101561001357600080fd5b60003560e01c908163070117c414611d5e575080630d6606fa146118f85780631785f53c146118475780632e2e17961461171d5780633d31128c1461160a578063429b62e5146115c757806345113548146115aa5780634cd6959c1461136757806370480275146112b6578063715018a61461125d57806388c6a95614610f515780638da5cb5b14610f285780639841c82c146108f3578063b2185c6a14610771578063b9209e3314610738578063bab17ce91461071a578063c25f3cf6146106d7578063c36fe3d6146105df578063c77943c0146105c3578063ce93b527146104af578063d77601ff14610422578063d82a6e0614610373578063f2fde38b146102ad578063f912fbca146102425763fdf488f71461013257600080fd5b3461023d5761014036611fbd565b33600052600660205260ff604060002054168015610229575b8015610215575b610169906121b8565b81151580610209575b61017b906120f0565b6103e881116101c457600a9160005260036020526064604060002091806009840155426007840155106000146101b65701805460ff19169055005b01805460ff19166001179055005b60405162461bcd60e51b815260206004820152601860248201527f496e76616c69642072657075746174696f6e2073636f726500000000000000006044820152606490fd5b50600254821115610172565b506000546001600160a01b03163314610160565b50600760205260ff60406000205416610159565b600080fd5b3461023d57602036600319011261023d576004356001600160a01b0381169081900361023d57610270612005565b806000526007602052604060002060ff1981541690557fac29b2a542253bf4ca97f2427146ea9e117dfafc4c76a839c32641462d7ebef7600080a2005b3461023d57602036600319011261023d576004356001600160a01b038181169182900361023d576102dc612005565b811561031f57600054826001600160601b0360a01b821617600055167f8be0079c531659141344cd1fd0a4f28419497f9722a3daafe3b4186f6b6457e0600080a3005b60405162461bcd60e51b815260206004820152602660248201527f4f776e61626c653a206e6577206f776e657220697320746865207a65726f206160448201526564647265737360d01b6064820152608490fd5b3461023d57602036600319011261023d576004356001600160a01b0381169081900361023d576103a1612005565b80156103e7578060005260076020526040600020600160ff198254161790557fc251ff2b0da987a4cc8f48505264a6637c9d9d0f04a579d164aecc63963ee822600080a2005b60405162461bcd60e51b8152602060048201526013602482015272496e76616c69642044414f206164647265737360681b6044820152606490fd5b3461023d5761043036611fbd565b9060005260056020526040600020805482101561023d576104909161045491611fd3565b5061045e81611f17565b9061046b60018201611f17565b61049e60ff600360028501549401541691604051958695608087526080870190611e90565b908582036020870152611e90565b916040840152151560608301520390f35b3461023d5760208060031936011261023d57600435801515806105b7575b6104d6906120f0565b336000526006825260ff6040600020541680156105a3575b1561056f5780600052600382526040600020600a600582019160ff19926003848254161790554260078201550190815416905560116040519280845283015270141c9bd99a5b19481cdd5cdc195b991959607a1b60408301527fe9ebc308e3e431a1290c963a3bcdbe28e80acfc72f2680036aa5c7f5c802104160603393a3005b60405162461bcd60e51b815260048101839052600c60248201526b2737ba1030b71030b236b4b760a11b6044820152606490fd5b506000546001600160a01b031633146104ee565b506002548111156104cd565b3461023d57600036600319011261023d57602060405160648152f35b3461023d57602036600319011261023d576004356000908152600360205260409020805460018201546001600160a01b039081169261062060028201611f17565b9061062d60038201611f17565b61063960048301611f17565b93600583015460ff169460068401549060078501549260088601541693600986015495600a015460ff16966040519a8b9a8b5260208b01526101608060408c01528a0161068591611e90565b89810360608b015261069691611e90565b88810360808a01526106a791611e90565b9560a088016106b591611ed0565b60c087015260e086015261010085015261012084015215156101408301520390f35b3461023d57602036600319011261023d576004356001600160a01b0381169081900361023d576000526007602052602060ff604060002054166040519015158152f35b3461023d57600036600319011261023d576020600254604051908152f35b3461023d57602036600319011261023d576004356001600160a01b038116810361023d57610767602091612237565b6040519015158152f35b3461023d5760208060031936011261023d57600435801515806108e7575b610798906120f0565b6000526005815260406000208054906001600160401b0382116108d1578290604051926107ca838260051b0185611dd0565b8084528284018092600052836000206000915b8383106108785750505050604051918083019381845251809452604083019360408160051b85010192916000955b8287106108185785850386f35b909192938280600192603f1989820301855287519061085261084283516080808552840190611e90565b8484015183820386850152611e90565b91604081015160408301526060809101511515910152960192019601959291909261080b565b60048660019260409998995161088d81611d99565b61089686611f17565b81526108a3858701611f17565b838201526002860154604082015260ff600387015416151560608201528152019201920191909594956107dd565b634e487b7160e01b600052604160045260246000fd5b5060025481111561078f565b3461023d57606036600319011261023d576004356001600160401b03811161023d57610923903690600401611df1565b6024356001600160401b03811161023d57610942903690600401611df1565b906044356001600160401b03811161023d57610962903690600401611df1565b90600260015414610ee3576002600155336000526004602052604060002054610ea5576109918151151561205d565b61099d835115156120a0565b6001600254019182600255604051936109b585611db4565b83855233602086015282604086015260608501526080840152600060a08401524260c08401524260e0840152600061010084015260006101208401526001610140840152816000526003602052604060002092805184556001840160018060a01b036020830151166001600160601b0360a01b82541617905560408101518051906001600160401b0382116108d1578190610a536002880154611edd565b601f8111610e52575b50602090601f8311600114610de057600092610dd5575b50508160011b916000199060031b1c19161760028501555b60608101518051906001600160401b0382116108d1578190610ab06003880154611edd565b601f8111610d82575b50602090601f8311600114610d1057600092610d05575b50508160011b916000199060031b1c19161760038501555b60808101518051906001600160401b0382116108d1578190610b0d6004880154611edd565b601f8111610cb2575b50602090601f8311600114610c4057600092610c35575b50508160011b916000199060031b1c19161760048501555b60a081015193600581016004861015610c1f57610140610bca93600a9260209860ff8019835416911617905560c0810151600685015560e081015160078501556008840160018060a01b03610100830151166001600160601b0360a01b82541617905561012081015160098501550151151591019060ff801983541691151516179055565b336000526004835281604060002055817f64849d9017ccd37161417597e9733299a671f98dcb0907422672a2e159eb121760405185815280610c10339588830190611e90565b0390a360018055604051908152f35b634e487b7160e01b600052602160045260246000fd5b015190508680610b2d565b9250600487016000526020600020906000935b601f1984168510610c97576001945083601f19811610610c7e575b505050811b016004850155610b45565b015160001960f88460031b161c19169055868080610c6e565b81810151835560209485019460019093019290910190610c53565b909150600487016000526020600020601f840160051c810160208510610cfe575b90849392915b601f830160051c82018110610cef575050610b16565b60008155859450600101610cd9565b5080610cd3565b015190508680610ad0565b9250600387016000526020600020906000935b601f1984168510610d67576001945083601f19811610610d4e575b505050811b016003850155610ae8565b015160001960f88460031b161c19169055868080610d3e565b81810151835560209485019460019093019290910190610d23565b909150600387016000526020600020601f840160051c810160208510610dce575b90849392915b601f830160051c82018110610dbf575050610ab9565b60008155859450600101610da9565b5080610da3565b015190508680610a73565b9250600287016000526020600020906000935b601f1984168510610e37576001945083601f19811610610e1e575b505050811b016002850155610a8b565b015160001960f88460031b161c19169055868080610e0e565b81810151835560209485019460019093019290910190610df3565b909150600287016000526020600020601f840160051c810160208510610e9e575b90849392915b601f830160051c82018110610e8f575050610a5c565b60008155859450600101610e79565b5080610e73565b60405162461bcd60e51b815260206004820152601660248201527550726f66696c6520616c72656164792065786973747360501b6044820152606490fd5b60405162461bcd60e51b815260206004820152601f60248201527f5265656e7472616e637947756172643a207265656e7472616e742063616c6c006044820152606490fd5b3461023d57600036600319011261023d576000546040516001600160a01b039091168152602090f35b3461023d57610f5f36611e47565b909180151580611251575b610f73906120f0565b806000526003602052610f9760018060a01b03600160406000200154163314612135565b80600052600360205260ff600560406000200154166004811015610c1f576003610fc2911415612175565b610fce8351151561205d565b610fda825115156120a0565b806000526003602052600260406000200183516001600160401b0381116108d1576110058254611edd565b601f8111611209575b50602094601f82116001146111a357948192939495600092611198575b50508160011b916000199060031b1c19161790555b806000526003602052600360406000200182516001600160401b0381116108d15761106b8254611edd565b601f8111611150575b506020601f82116001146110ea57819293946000926110df575b50508160011b916000199060031b1c19161790555b8060005260036020524260076040600020015533907f929b45f05d536b3a708a775eb2c04c88a7780b2663a22d5d5f157c2135036d4b600080a3005b01519050848061108e565b601f198216908360005260206000209160005b8181106111385750958360019596971061111f575b505050811b0190556110a3565b015160001960f88460031b161c19169055848080611112565b9192602060018192868b0151815501940192016110fd565b826000526020600020601f830160051c8101916020841061118e575b601f0160051c01905b8181106111825750611074565b60008155600101611175565b909150819061116c565b01519050858061102b565b601f198216958360005260206000209160005b8881106111f1575083600195969798106111d8575b505050811b019055611040565b015160001960f88460031b161c191690558580806111cb565b919260206001819286850151815501940192016111b6565b826000526020600020601f830160051c81019160208410611247575b601f0160051c01905b81811061123b575061100e565b6000815560010161122e565b9091508190611225565b50600254811115610f6a565b3461023d57600036600319011261023d57611276612005565b600080546001600160a01b0319811682556001600160a01b03167f8be0079c531659141344cd1fd0a4f28419497f9722a3daafe3b4186f6b6457e08280a3005b3461023d57602036600319011261023d576004356001600160a01b0381169081900361023d576112e4612005565b801561132a578060005260066020526040600020600160ff198254161790557f44d6d25963f097ad14f29f06854a01f575648a1ef82f30e562ccd3889717e339600080a2005b60405162461bcd60e51b8152602060048201526015602482015274496e76616c69642061646d696e206164647265737360581b6044820152606490fd5b3461023d57602036600319011261023d576004356001600160a01b0381169081900361023d57600061014060405161139e81611db4565b82815282602082015260606040820152606080820152606060808201528260a08201528260c08201528260e08201528261010082015282610120820152015260005260046020526040600020548015611571576000526003602052604060002060ff600a6040519261140f84611db4565b8054845260018101546001600160a01b0316602085015261143260028201611f17565b604085015261144360038201611f17565b606085015261145460048201611f17565b608085015261146c8360058301541660a086016120e4565b600681015460c0850152600781015460e085015260018060a01b03600882015416610100850152600981015461012085015201541615156101408201526040518091602082528051602083015260018060a01b036020820151166040830152604081015161014061151f6114ee61016093846060880152610180870190611e90565b61150a606086015191601f1992838983030160808a0152611e90565b906080860151908783030160a0880152611e90565b9261153260a082015160c0870190611ed0565b60c081015160e086015260e081015161010086015260018060a01b03610100820151166101208601526101208101518286015201511515908301520390f35b60405162461bcd60e51b8152602060048201526011602482015270141c9bd99a5b19481b9bdd08199bdd5b99607a1b6044820152606490fd5b3461023d57600036600319011261023d5760206040516103e88152f35b3461023d57602036600319011261023d576004356001600160a01b0381169081900361023d576000526006602052602060ff604060002054166040519015158152f35b3461023d57602036600319011261023d5760043580151580611711575b611630906120f0565b33600052600660205260ff6040600020541680156116fd575b80156116e9575b611659906121b8565b80600052600360205260ff600560406000200154166004811015610c1f5761168190156121f5565b80600052600360205260646009604060002060058101600160ff1982541617905560088101336001600160601b0360a01b825416179055426007820155015533907feb4acb8f63137c7df23f8a37548b1c45ded1b923afbfe20d149e9249c69d1fb4600080a3005b506000546001600160a01b03163314611650565b50600760205260ff60406000205416611649565b50600254811115611627565b3461023d57604036600319011261023d576004356024356001600160401b03811161023d57611750903690600401611df1565b908015158061183b575b611763906120f0565b336000526020916006835260ff604060002054168015611828575b8015611814575b61178e906121b8565b816000526003835260ff600560406000200154166004811015610c1f577fe9ebc308e3e431a1290c963a3bcdbe28e80acfc72f2680036aa5c7f5c8021041916117da61180f92156121f5565b8360005260038552604060002060058101600260ff198254161790556007429101556040519182918683523396830190611e90565b0390a3005b506000546001600160a01b03163314611785565b506007835260ff6040600020541661177e565b5060025481111561175a565b3461023d57602036600319011261023d576004356001600160a01b038181169182900361023d57611876612005565b6000541681146118bd57806000526006602052604060002060ff1981541690557fa3b62bc36326052d97ea62d63c3d60308ed4c3ea8ac079dd8499f1e9c4f80c0f600080a2005b60405162461bcd60e51b815260206004820152601360248201527221b0b73737ba103932b6b7bb329037bbb732b960691b6044820152606490fd5b3461023d5761190636611e47565b82151580611d52575b611918906120f0565b82600052600360205261193c60018060a01b03600160406000200154163314612135565b82600052600360205260ff600560406000200154166004811015610c1f576003611967911415612175565b815115611d0d57805115611cc85782600052600560205260406000206040519061199082611d99565b838252826020830152426040830152600060608301528054680100000000000000008110156108d1576119c891600182018155611fd3565b919091611cb25780518051906001600160401b0382116108d15781906119ee8554611edd565b601f8111611c62575b50602090601f8311600114611bf657600092611beb575b50508160011b916000199060031b1c19161782555b60208101518051906001600160401b0382116108d157611a466001850154611edd565b601f8111611ba4575b50602090601f8311600114611b05579360036060611af59585611ae79996611ad3967f161387b1da2490c14c791fcce914a781fd4f20e77e4d5b6dece77af77ec352599c9a600092611afa575b505060001982861b1c1916600191821b17908501555b604081015160028501550151151591019060ff801983541691151516179055565b604051938493604085526040850190611e90565b908382036020850152611e90565b0390a2005b015190508d80611a9c565b90601f198316916001860160005260206000209260005b818110611b8c5750611af595600186611ad3967f161387b1da2490c14c791fcce914a781fd4f20e77e4d5b6dece77af77ec352599c9a96600396611ae79d9a60609710611b74575b505050811b016001850155611ab2565b015160001983881b60f8161c191690558d8080611b64565b92936020600181928786015181550195019301611b1c565b600185016000526020600020601f840160051c810160208510611be4575b601f830160051c82018110611bd8575050611a4f565b60008155600101611bc2565b5080611bc2565b015190508780611a0e565b9250846000526020600020906000935b601f1984168510611c47576001945083601f19811610611c2e575b505050811b018255611a23565b015160001960f88460031b161c19169055878080611c21565b81810151835560209485019460019093019290910190611c06565b909150846000526020600020601f840160051c810160208510611cab575b90849392915b601f830160051c82018110611c9c5750506119f7565b60008155859450600101611c86565b5080611c80565b634e487b7160e01b600052600060045260246000fd5b60405162461bcd60e51b815260206004820152601d60248201527f446f63756d656e7420686173682063616e6e6f7420626520656d7074790000006044820152606490fd5b60405162461bcd60e51b815260206004820152601d60248201527f446f63756d656e7420747970652063616e6e6f7420626520656d7074790000006044820152606490fd5b5060025483111561190f565b3461023d57602036600319011261023d576004356001600160a01b038116919082900361023d57602091600052600482526040600020548152f35b608081019081106001600160401b038211176108d157604052565b61016081019081106001600160401b038211176108d157604052565b90601f801991011681019081106001600160401b038211176108d157604052565b81601f8201121561023d578035906001600160401b0382116108d15760405192611e25601f8401601f191660200185611dd0565b8284526020838301011161023d57816000926020809301838601378301015290565b606060031982011261023d57600435916001600160401b0360243581811161023d5783611e7691600401611df1565b9260443591821161023d57611e8d91600401611df1565b90565b919082519283825260005b848110611ebc575050826000602080949584010152601f8019910116010190565b602081830181015184830182015201611e9b565b906004821015610c1f5752565b90600182811c92168015611f0d575b6020831014611ef757565b634e487b7160e01b600052602260045260246000fd5b91607f1691611eec565b9060405191826000825492611f2b84611edd565b908184526001948581169081600014611f9a5750600114611f57575b5050611f5592500383611dd0565b565b9093915060005260209081600020936000915b818310611f82575050611f5593508201013880611f47565b85548884018501529485019487945091830191611f6a565b915050611f5594506020925060ff191682840152151560051b8201013880611f47565b604090600319011261023d576004359060243590565b8054821015611fef5760005260206000209060021b0190600090565b634e487b7160e01b600052603260045260246000fd5b6000546001600160a01b0316330361201957565b606460405162461bcd60e51b815260206004820152602060248201527f4f776e61626c653a2063616c6c6572206973206e6f7420746865206f776e65726044820152fd5b1561206457565b60405162461bcd60e51b81526020600482015260146024820152734e616d652063616e6e6f7420626520656d70747960601b6044820152606490fd5b156120a757565b60405162461bcd60e51b8152602060048201526015602482015274456d61696c2063616e6e6f7420626520656d70747960581b6044820152606490fd5b6004821015610c1f5752565b156120f757565b60405162461bcd60e51b8152602060048201526016602482015275141c9bd99a5b1948191bd95cc81b9bdd08195e1a5cdd60521b6044820152606490fd5b1561213c57565b60405162461bcd60e51b81526020600482015260116024820152702737ba10383937b334b6329037bbb732b960791b6044820152606490fd5b1561217c57565b60405162461bcd60e51b8152602060048201526014602482015273141c9bd99a5b19481a5cc81cdd5cdc195b99195960621b6044820152606490fd5b156121bf57565b60405162461bcd60e51b815260206004820152600e60248201526d139bdd08185d5d1a1bdc9a5e995960921b6044820152606490fd5b156121fc57565b60405162461bcd60e51b815260206004820152601360248201527250726f66696c65206e6f742070656e64696e6760681b6044820152606490fd5b6001600160a01b03908116600090815260046020526040812054801561233a5781526003602052604081209161014060ff600a6040519561227787611db4565b8054875284600182015416602088015261229360028201611f17565b60408801526122a460038201611f17565b60608801526122b560048201611f17565b608088015282600582015416946122d060a0890196876120e4565b600682015460c0890152600782015460e0890152600882015416610100880152600981015461012088015201541693019215158352519060048210156123265750600114908161231e575090565b905051151590565b634e487b7160e01b81526021600452602490fd5b5090509056fea2646970667358221220331192ebe057814acad7230d5cfcd36db45c389f50ce383e6203d4bf450ed09964736f6c63430008130033",
  "linkReferences": {},
  "deployedLinkReferences": {}
}