{"contracts/UtilityPayment.sol":{"UtilityPayment":{"abi":[{"inputs":[{"internalType":"address","name":"_profileRegistry","type":"address"},{"internalType":"address","name":"_nexusToken","type":"address"},{"internalType":"address","name":"_feeRecipient","type":"address"}],"stateMutability":"nonpayable","type":"constructor"},{"anonymous":false,"inputs":[{"indexed":true,"internalType":"uint256","name":"billId","type":"uint256"},{"indexed":true,"internalType":"address","name":"user","type":"address"},{"indexed":false,"internalType":"enum UtilityPayment.BillType","name":"billType","type":"uint8"},{"indexed":false,"internalType":"uint256","name":"amount","type":"uint256"},{"indexed":false,"internalType":"uint256","name":"dueDate","type":"uint256"}],"name":"BillCreated","type":"event"},{"anonymous":false,"inputs":[{"indexed":true,"internalType":"address","name":"previousOwner","type":"address"},{"indexed":true,"internalType":"address","name":"newOwner","type":"address"}],"name":"OwnershipTransferred","type":"event"},{"anonymous":false,"inputs":[{"indexed":true,"internalType":"uint256","name":"paymentId","type":"uint256"},{"indexed":true,"internalType":"uint256","name":"billId","type":"uint256"},{"indexed":true,"internalType":"address","name":"user","type":"address"},{"indexed":false,"internalType":"uint256","name":"amount","type":"uint256"},{"indexed":false,"internalType":"uint256","name":"rewardEarned","type":"uint256"}],"name":"PaymentMade","type":"event"},{"anonymous":false,"inputs":[{"indexed":false,"internalType":"uint256","name":"newFeeRate","type":"uint256"}],"name":"PlatformFeeUpdated","type":"event"},{"anonymous":false,"inputs":[{"indexed":true,"internalType":"address","name":"provider","type":"address"}],"name":"ProviderAuthorized","type":"event"},{"anonymous":false,"inputs":[{"indexed":true,"internalType":"address","name":"provider","type":"address"}],"name":"ProviderDeauthorized","type":"event"},{"anonymous":false,"inputs":[{"indexed":true,"internalType":"address","name":"user","type":"address"},{"indexed":false,"internalType":"uint256","name":"amount","type":"uint256"}],"name":"RewardDistributed","type":"event"},{"anonymous":false,"inputs":[{"indexed":false,"internalType":"uint256","name":"newRate","type":"uint256"}],"name":"RewardRateUpdated","type":"event"},{"inputs":[],"name":"EARLY_PAYMENT_THRESHOLD","outputs":[{"internalType":"uint256","name":"","type":"uint256"}],"stateMutability":"view","type":"function"},{"inputs":[],"name":"OVERDUE_PENALTY_DAYS","outputs":[{"internalType":"uint256","name":"","type":"uint256"}],"stateMutability":"view","type":"function"},{"inputs":[{"internalType":"address","name":"_provider","type":"address"}],"name":"authorizeProvider","outputs":[],"stateMutability":"nonpayable","type":"function"},{"inputs":[{"internalType":"address","name":"","type":"address"}],"name":"authorizedProviders","outputs":[{"internalType":"bool","name":"","type":"bool"}],"stateMutability":"view","type":"function"},{"inputs":[{"internalType":"uint256","name":"","type":"uint256"}],"name":"bills","outputs":[{"internalType":"uint256","name":"billId","type":"uint256"},{"internalType":"address","name":"user","type":"address"},{"internalType":"enum UtilityPayment.BillType","name":"billType","type":"uint8"},{"internalType":"string","name":"provider","type":"string"},{"internalType":"uint256","name":"amount","type":"uint256"},{"internalType":"uint256","name":"dueDate","type":"uint256"},{"internalType":"uint256","name":"createdAt","type":"uint256"},{"internalType":"bool","name":"isPaid","type":"bool"},{"internalType":"bool","name":"isOverdue","type":"bool"},{"internalType":"string","name":"metadata","type":"string"}],"stateMutability":"view","type":"function"},{"inputs":[{"internalType":"uint256","name":"_billId","type":"uint256"}],"name":"calculateReward","outputs":[{"internalType":"uint256","name":"","type":"uint256"}],"stateMutability":"view","type":"function"},{"inputs":[{"internalType":"address","name":"_user","type":"address"},{"internalType":"enum UtilityPayment.BillType","name":"_billType","type":"uint8"},{"internalType":"string","name":"_provider","type":"string"},{"internalType":"uint256","name":"_amount","type":"uint256"},{"internalType":"uint256","name":"_dueDate","type":"uint256"},{"internalType":"string","name":"_metadata","type":"string"}],"name":"createBill","outputs":[{"internalType":"uint256","name":"","type":"uint256"}],"stateMutability":"nonpayable","type":"function"},{"inputs":[{"internalType":"address","name":"_provider","type":"address"}],"name":"deauthorizeProvider","outputs":[],"stateMutability":"nonpayable","type":"function"},{"inputs":[],"name":"earlyPaymentBonus","outputs":[{"internalType":"uint256","name":"","type":"uint256"}],"stateMutability":"view","type":"function"},{"inputs":[],"name":"emergencyWithdraw","outputs":[],"stateMutability":"nonpayable","type":"function"},{"inputs":[],"name":"feeRecipient","outputs":[{"internalType":"address","name":"","type":"address"}],"stateMutability":"view","type":"function"},{"inputs":[{"internalType":"uint256","name":"_billId","type":"uint256"}],"name":"getBill","outputs":[{"components":[{"internalType":"uint256","name":"billId","type":"uint256"},{"internalType":"address","name":"user","type":"address"},{"internalType":"enum UtilityPayment.BillType","name":"billType","type":"uint8"},{"internalType":"string","name":"provider","type":"string"},{"internalType":"uint256","name":"amount","type":"uint256"},{"internalType":"uint256","name":"dueDate","type":"uint256"},{"internalType":"uint256","name":"createdAt","type":"uint256"},{"internalType":"bool","name":"isPaid","type":"bool"},{"internalType":"bool","name":"isOverdue","type":"bool"},{"internalType":"string","name":"metadata","type":"string"}],"internalType":"struct UtilityPayment.UtilityBill","name":"","type":"tuple"}],"stateMutability":"view","type":"function"},{"inputs":[{"internalType":"uint256","name":"_paymentId","type":"uint256"}],"name":"getPayment","outputs":[{"components":[{"internalType":"uint256","name":"paymentId","type":"uint256"},{"internalType":"uint256","name":"billId","type":"uint256"},{"internalType":"address","name":"user","type":"address"},{"internalType":"uint256","name":"amount","type":"uint256"},{"internalType":"uint256","name":"paidAt","type":"uint256"},{"internalType":"enum UtilityPayment.PaymentStatus","name":"status","type":"uint8"},{"internalType":"string","name":"transactionHash","type":"string"},{"internalType":"uint256","name":"rewardEarned","type":"uint256"}],"internalType":"struct UtilityPayment.Payment","name":"","type":"tuple"}],"stateMutability":"view","type":"function"},{"inputs":[{"internalType":"address","name":"_user","type":"address"}],"name":"getPaymentHistory","outputs":[{"components":[{"internalType":"uint256","name":"totalPayments","type":"uint256"},{"internalType":"uint256","name":"onTimePayments","type":"uint256"},{"internalType":"uint256","name":"overduePayments","type":"uint256"},{"internalType":"uint256","name":"totalRewardsEarned","type":"uint256"},{"internalType":"uint256","name":"lastPaymentDate","type":"uint256"}],"internalType":"struct UtilityPayment.PaymentHistory","name":"","type":"tuple"}],"stateMutability":"view","type":"function"},{"inputs":[],"name":"getTotalBills","outputs":[{"internalType":"uint256","name":"","type":"uint256"}],"stateMutability":"view","type":"function"},{"inputs":[],"name":"getTotalPayments","outputs":[{"internalType":"uint256","name":"","type":"uint256"}],"stateMutability":"view","type":"function"},{"inputs":[{"internalType":"address","name":"_user","type":"address"}],"name":"getUserBills","outputs":[{"internalType":"uint256[]","name":"","type":"uint256[]"}],"stateMutability":"view","type":"function"},{"inputs":[{"internalType":"address","name":"_user","type":"address"}],"name":"getUserPayments","outputs":[{"internalType":"uint256[]","name":"","type":"uint256[]"}],"stateMutability":"view","type":"function"},{"inputs":[{"internalType":"uint256","name":"_billId","type":"uint256"}],"name":"markBillOverdue","outputs":[],"stateMutability":"nonpayable","type":"function"},{"inputs":[],"name":"nexusToken","outputs":[{"internalType":"contract IERC20","name":"","type":"address"}],"stateMutability":"view","type":"function"},{"inputs":[],"name":"onTimeRewardRate","outputs":[{"internalType":"uint256","name":"","type":"uint256"}],"stateMutability":"view","type":"function"},{"inputs":[],"name":"owner","outputs":[{"internalType":"address","name":"","type":"address"}],"stateMutability":"view","type":"function"},{"inputs":[{"internalType":"uint256","name":"_billId","type":"uint256"}],"name":"payBill","outputs":[],"stateMutability":"payable","type":"function"},{"inputs":[{"internalType":"address","name":"","type":"address"}],"name":"paymentHistories","outputs":[{"internalType":"uint256","name":"totalPayments","type":"uint256"},{"internalType":"uint256","name":"onTimePayments","type":"uint256"},{"internalType":"uint256","name":"overduePayments","type":"uint256"},{"internalType":"uint256","name":"totalRewardsEarned","type":"uint256"},{"internalType":"uint256","name":"lastPaymentDate","type":"uint256"}],"stateMutability":"view","type":"function"},{"inputs":[{"internalType":"uint256","name":"","type":"uint256"}],"name":"payments","outputs":[{"internalType":"uint256","name":"paymentId","type":"uint256"},{"internalType":"uint256","name":"billId","type":"uint256"},{"internalType":"address","name":"user","type":"address"},{"internalType":"uint256","name":"amount","type":"uint256"},{"internalType":"uint256","name":"paidAt","type":"uint256"},{"internalType":"enum UtilityPayment.PaymentStatus","name":"status","type":"uint8"},{"internalType":"string","name":"transactionHash","type":"string"},{"internalType":"uint256","name":"rewardEarned","type":"uint256"}],"stateMutability":"view","type":"function"},{"inputs":[],"name":"platformFeeRate","outputs":[{"internalType":"uint256","name":"","type":"uint256"}],"stateMutability":"view","type":"function"},{"inputs":[],"name":"profileRegistry","outputs":[{"internalType":"contract ProfileRegistry","name":"","type":"address"}],"stateMutability":"view","type":"function"},{"inputs":[],"name":"renounceOwnership","outputs":[],"stateMutability":"nonpayable","type":"function"},{"inputs":[{"internalType":"address","name":"newOwner","type":"address"}],"name":"transferOwnership","outputs":[],"stateMutability":"nonpayable","type":"function"},{"inputs":[{"internalType":"address","name":"_newFeeRecipient","type":"address"}],"name":"updateFeeRecipient","outputs":[],"stateMutability":"nonpayable","type":"function"},{"inputs":[{"internalType":"uint256","name":"_newFeeRate","type":"uint256"}],"name":"updatePlatformFeeRate","outputs":[],"stateMutability":"nonpayable","type":"function"},{"inputs":[{"internalType":"uint256","name":"_newRate","type":"uint256"}],"name":"updateRewardRate","outputs":[],"stateMutability":"nonpayable","type":"function"},{"inputs":[{"internalType":"address","name":"","type":"address"},{"internalType":"uint256","name":"","type":"uint256"}],"name":"userBills","outputs":[{"internalType":"uint256","name":"","type":"uint256"}],"stateMutability":"view","type":"function"},{"inputs":[{"internalType":"address","name":"","type":"address"},{"internalType":"uint256","name":"","type":"uint256"}],"name":"userPayments","outputs":[{"internalType":"uint256","name":"","type":"uint256"}],"stateMutability":"view","type":"function"}],"evm":{"bytecode":{"linkReferences":{},"object":"6080346200011157601f6200237838819003918201601f19168301916001600160401b038311848410176200011657808492606094604052833981010312620001115760406200004f826200012c565b6200006a8262000062602086016200012c565b94016200012c565b600080546001600160a01b0319808216339081178455865197939591946001600160a01b039490938593919284929183167f8be0079c531659141344cd1fd0a4f28419497f9722a3daafe3b4186f6b6457e08a80a3600180556005600c556002600d556001600e5516856004541617600455168360055416176005551690600f541617600f55338152600b60205220600160ff198254161790556122369081620001428239f35b600080fd5b634e487b7160e01b600052604160045260246000fd5b51906001600160a01b0382168203620001115756fe6080604052600436101561001257600080fd5b60003560e01c8063112ea26214611b8257806328bdcde814611ab55780633280a836146119265780633c6fa7651461190857806346904840146118df5780634dee07df146118c157806353445e221461185b578063673b57e9146117f5578063682ab743146117ab57806369dc3ae21461176c57806369fcf0f91461174e578063708f29a614611730578063715018a6146116d757806378f337e7146116ae5780637da2ba7c146115f457806387d81789146115515780638cfeab35146114f95780638da5cb5b146114d057806394ed4d3e146114b257806399df7612146114945780639d7dadeb1461141c5780639ef3a2611461138b578063ae3b7f06146112fd578063b1cd06e614611138578063c9bb1a481461110f578063d2d7231f146110e9578063db2e21bc146110a2578063de65483d14610b04578063de8c656814610a26578063e65ef7f51461099e578063eeca08f014610980578063f0975190146102e0578063f160d3691461025b5763f2fde38b1461019257600080fd5b34610256576020366003190112610256576101ab611c37565b6101b3611ebf565b6001600160a01b0390811690811561020257600054826001600160601b0360a01b821617600055167f8be0079c531659141344cd1fd0a4f28419497f9722a3daafe3b4186f6b6457e0600080a3005b60405162461bcd60e51b815260206004820152602660248201527f4f776e61626c653a206e6577206f776e657220697320746865207a65726f206160448201526564647265737360d01b6064820152608490fd5b600080fd5b3461025657602036600319011261025657610274611c37565b61027c611ebf565b6001600160a01b031680156102a3576001600160601b0360a01b600f541617600f55600080f35b60405162461bcd60e51b8152602060048201526015602482015274125b9d985b1a5908199959481c9958da5c1a595b9d605a1b6044820152606490fd5b602036600319011261025657600435151580610972575b61030090611fa9565b6024602060018060a01b03600454166040519283809263b9209e3360e01b82523360048301525afa90811561060157600091610953575b501561091a576002600154146108d5576002600155600435600052600660205260406000203360018060a01b036001830154160361089f57600681019081549061038460ff831615612003565b600381015480341061085a576103a960646103a1600e5484612043565b04809261206c565b9360016103b7600435612095565b9460ff191617905560016002540193846002556003830154604051906103dc82611c87565b86825260043560208301523360408301526060820152426080820152600160a08201526040519081602081011067ffffffffffffffff60208401111761082e57602082016040526000825260c081019182528560e082015286600052600760205260406000209181518355602082015160018401556002830160018060a01b036040840151166001600160601b0360a01b82541617905560608201516003840155608082015160048401556005830160a083015160048110156108445760ff801983541691161790555180519067ffffffffffffffff821161082e576104c56006850154611c4d565b601f81116107e7575b50602090601f83116001146107725791806007949260e094600092610767575b50508160011b916000199060031b1c19161760068501555b0151910155336000526009602052610522856040600020611f6f565b33600052600a602052604060002061053a8154612079565b815542600480830182905585015410610752576001810161055b8154612079565b90555b8461064f575b5060008080809360018060a01b03825416828215610646575bf1156106015780158015610616575b505060038101548034116105dc575b506003015490604051918252602082015233917fdd94524e20a492198c03d08291f5dde45a69802f8c8b94125a0fd1149ca99fe8604060043593a460018055005b600080806105eb81943461206c565b81811561060d575b3390f115610601578361059b565b6040513d6000823e3d90fd5b506108fc6105f3565b6000808093819360018060a01b03600f541690839061063d575bf11561060157838061058c565b506108fc610630565b506108fc61057d565b60030161065d858254612088565b905560055460405163a9059cbb60e01b81523360048201526024810186905290602090829060449082906000906001600160a01b03165af190811561060157600091610723575b50156106e5576000808080936040518881527fe34918ff1c7084970068b53fd71ad6d8b04e9f15d3886cbf006443e6cdc52ea660203392a293505050610564565b60405162461bcd60e51b815260206004820152601660248201527514995dd85c99081d1c985b9cd9995c8819985a5b195960521b6044820152606490fd5b610745915060203d60201161074b575b61073d8183611cdd565b810190611feb565b866106a4565b503d610733565b600281016107608154612079565b905561055e565b015190508b806104ee565b906006850160005260206000209160005b601f19851681106107cf5750926007949260019260e09583601f198116106107b6575b505050811b016006850155610506565b015160001960f88460031b161c191690558b80806107a6565b91926020600181928685015181550194019201610783565b600685016000526020600020601f840160051c810160208510610827575b601f830160051c8201811061081b5750506104ce565b60008155600101610805565b5080610805565b634e487b7160e01b600052604160045260246000fd5b634e487b7160e01b600052602160045260246000fd5b60405162461bcd60e51b815260206004820152601b60248201527f496e73756666696369656e74207061796d656e7420616d6f756e7400000000006044820152606490fd5b60405162461bcd60e51b815260206004820152600e60248201526d2737ba103134b6361037bbb732b960911b6044820152606490fd5b60405162461bcd60e51b815260206004820152601f60248201527f5265656e7472616e637947756172643a207265656e7472616e742063616c6c006044820152606490fd5b60405162461bcd60e51b8152602060048201526011602482015270155cd95c881b9bdd081d995c9a599a5959607a1b6044820152606490fd5b61096c915060203d60201161074b5761073d8183611cdd565b81610337565b5060035460043511156102f7565b34610256576000366003190112610256576020600e54604051908152f35b3461025657602080600319360112610256576001600160a01b036109c0611c37565b1660005260088152604060002090604051908181845491828152019360005281600020916000905b828210610a0f57610a0b856109ff81890382611cdd565b60405191829182611e2d565b0390f35b8354865294850194600193840193909101906109e8565b346102565760203660031901126102565760043533600052600b60205260ff604060002054168015610af0575b610a5c90611f17565b80151580610ae4575b610a6e90611fa9565b6000526006602052604060002060068101906004825491610a9260ff841615612003565b0154421115610aa85761ff001916610100179055005b60405162461bcd60e51b815260206004820152601460248201527342696c6c206e6f7420796574206f76657264756560601b6044820152606490fd5b50600354811115610a65565b506000546001600160a01b03163314610a53565b346102565760c036600319011261025657610b1d611c37565b600860243510156102565760443567ffffffffffffffff811161025657610b48903690600401611e68565b60a43567ffffffffffffffff811161025657610b68903690600401611e68565b9133600052600b60205260ff60406000205416801561108e575b610b8b90611f17565b6001600160a01b039281841615611052576064351561100d57426084351115610fc857825115610f8357600160035401928360035560405190610bcd82611cc0565b8482526020820186851681526040830193610bea60243586611f63565b60608401928352606435608085015260843560a08501524260c0850152600060e08501526000610100850152610120840152856000526006602052604060002093835185558760018601925116825491516008811015610844576001600160a81b03199092161760a09190911b60ff60a01b161790555180519067ffffffffffffffff821161082e57610c806002850154611c4d565b601f8111610f3c575b50602090601f8311600114610ec85761012093929160009183610ebd575b50508160011b916000199060031b1c19161760028401555b6080810151600384015560a0810151600484015560c081015160058401556006830160e08201511515815460ff61ff00610100860151151560081b1692169061ffff191617179055015180519067ffffffffffffffff821161082e57610d286007840154611c4d565b601f8111610e72575b50916020959185938790601f8311600114610ddc57827f8b0fd94f7a52c91d188993cb42729c5fef26e6dfa148c8e22681bc8c42484c21959360609593600793600092610dd1575b50508160011b916000199060031b1c1916179101555b80851660005260088752610da7846040600020611f6f565b60405194610db786602435611da5565b6064358887015260843560408701521693a3604051908152f35b015190508b80610d79565b9060078401600052886000209160005b601f1985168110610e58575083606095936007936001937f8b0fd94f7a52c91d188993cb42729c5fef26e6dfa148c8e22681bc8c42484c219997601f19811610610e3f575b505050811b01910155610d8f565b015160001960f88460031b161c191690558b8080610e31565b818301518455899750600190930192918a01918a01610dec565b600784016000526020600020601f840160051c81019160208510610eb3575b601f0160051c01905b818110610ea75750610d31565b60008155600101610e9a565b9091508190610e91565b015190508880610ca7565b906002850160005260206000209160005b601f1985168110610f2457509183916001936101209695601f19811610610f0b575b505050811b016002840155610cbf565b015160001960f88460031b161c19169055888080610efb565b91926020600181928685015181550194019201610ed9565b600285016000526020600020601f840160051c810160208510610f7c575b601f830160051c82018110610f70575050610c89565b60008155600101610f5a565b5080610f5a565b60405162461bcd60e51b815260206004820152601d60248201527f50726f7669646572206e616d652063616e6e6f7420626520656d7074790000006044820152606490fd5b60405162461bcd60e51b815260206004820152601e60248201527f4475652064617465206d75737420626520696e207468652066757475726500006044820152606490fd5b60405162461bcd60e51b815260206004820152601d60248201527f416d6f756e74206d7573742062652067726561746572207468616e20300000006044820152606490fd5b60405162461bcd60e51b8152602060048201526014602482015273496e76616c69642075736572206164647265737360601b6044820152606490fd5b506000546001600160a01b03163314610b82565b34610256576000366003190112610256576110bb611ebf565b6000805481908190819047906001600160a01b03168282156110e0575bf11561060157005b506108fc6110d8565b34610256576020366003190112610256576020611107600435612095565b604051908152f35b34610256576000366003190112610256576004546040516001600160a01b039091168152602090f35b3461025657602036600319011261025657600435606061012060405161115d81611cc0565b600081526000602082015260006040820152828082015260006080820152600060a0820152600060c0820152600060e082015260006101008201520152801515806112f1575b6111ac90611fa9565b6000526006602052610a0b604060002061124b6007604051926111ce84611cc0565b8054845260018101546001600160a01b03811660208601526111f99060a01c60ff1660408601611f63565b61120560028201611cff565b606085015260038101546080850152600481015460a0850152600581015460c085015260ff6006820154818116151560e087015260081c16151561010085015201611cff565b610120820152604051918291602083528051602084015260018060a01b03602082015116604084015261128660408201516060850190611da5565b60608101516101206112a661014092836080880152610160870190611db2565b92608081015160a087015260a081015160c087015260c081015160e087015260e08101511515610100870152610100810151151582870152015190601f198584030190850152611db2565b506003548111156111a3565b3461025657602036600319011261025657600435611319611ebf565b600a8111611352576020817f45610d581145924dd7090a5017e5f2b1d6f42213bb2e95707ff86846bbfcb1ca92600e55604051908152a1005b60405162461bcd60e51b815260206004820152601160248201527008ccaca40e4c2e8ca40e8dede40d0d2ced607b1b6044820152606490fd5b34610256576020366003190112610256576004356113a7611ebf565b601481116113e0576020817f41d466ebd06fb97e7786086ac8b69b7eb7da798592036251291d34e9791cde0192600c55604051908152a1005b60405162461bcd60e51b81526020600482015260146024820152730a4caeec2e4c840e4c2e8ca40e8dede40d0d2ced60631b6044820152606490fd5b3461025657602080600319360112610256576001600160a01b0361143e611c37565b1660005260098152604060002090604051908181845491828152019360005281600020916000905b82821061147d57610a0b856109ff81890382611cdd565b835486529485019460019384019390910190611466565b3461025657600036600319011261025657602060405162278d008152f35b34610256576000366003190112610256576020600d54604051908152f35b34610256576000366003190112610256576000546040516001600160a01b039091168152602090f35b3461025657604036600319011261025657611512611c37565b6001600160a01b03166000908152600960205260409020805460243591908210156102565760209161154391611dff565b90546040519160031b1c8152f35b34610256576020366003190112610256576004356000526007602052604060002080546001820154916115ea60018060a01b03600283015416916115d96003820154600483015460ff6005850154169160076115af60068701611cff565b95015496604051998a998a5260208a015260408901526060880152608087015260a0860190611df2565b6101008060c0860152840190611db2565b9060e08301520390f35b346102565760203660031901126102565761160d611c37565b6000608060405161161d81611ca4565b828152826020820152826040820152826060820152015260018060a01b0316600052600a60205260a0604060002060405161165781611ca4565b81549182825260018101546020830190815260028201549060408401918252608060046003850154946060870195865201549401938452604051948552516020850152516040840152516060830152516080820152f35b34610256576000366003190112610256576005546040516001600160a01b039091168152602090f35b34610256576000366003190112610256576116f0611ebf565b600080546001600160a01b0319811682556001600160a01b03167f8be0079c531659141344cd1fd0a4f28419497f9722a3daafe3b4186f6b6457e08280a3005b34610256576000366003190112610256576020600254604051908152f35b34610256576000366003190112610256576020600c54604051908152f35b34610256576020366003190112610256576001600160a01b0361178d611c37565b16600052600b602052602060ff604060002054166040519015158152f35b34610256576040366003190112610256576117c4611c37565b6001600160a01b03166000908152600860205260409020805460243591908210156102565760209161154391611dff565b346102565760203660031901126102565761180e611c37565b611816611ebf565b6001600160a01b03166000818152600b60205260408120805460ff191690557f61ab96a9965ad8f38c807d7cf0636f9b6073d66b161b2086791ac6e48c97155c9080a2005b34610256576020366003190112610256576001600160a01b0361187c611c37565b16600052600a60205260a06040600020805490600181015490600281015460046003830154920154926040519485526020850152604084015260608301526080820152f35b3461025657600036600319011261025657602060405162093a808152f35b3461025657600036600319011261025657600f546040516001600160a01b039091168152602090f35b34610256576000366003190112610256576020600354604051908152f35b346102565760208060031936011261025657600435600060e060405161194b81611c87565b82815282858201528260408201528260608201528260808201528260a0820152606060c0820152015280151580611aa9575b15611a6b576000526007815260406000206040519061199b82611c87565b8054825260018101549083830191825260018060a01b0380600283015416604085019081526003830154606086019081526004840154906080870191825260ff6005860154169360a0880193600486101561084457611a489585526007611a0460068901611cff565b9760c08b0198895201549760e08a019889526040519a8b9a818c5251908b01525160408a0152511660608801525160808701525160a08601525160c0850190611df2565b51611a61610100918260e0860152610120850190611db2565b9151908301520390f35b60405162461bcd60e51b815260048101839052601660248201527514185e5b595b9d08191bd95cc81b9bdd08195e1a5cdd60521b6044820152606490fd5b5060025481111561197d565b3461025657602036600319011261025657600435600052600660205260406000208054610a0b600183015492611aed60028201611cff565b60ff6003830154926004810154600582015490611b4e611b14600760068601549501611cff565b95611b3d6040519b8c9b8c5260018060a01b03811660208d01528760408d019160a01c16611da5565b6101408060608c01528a0190611db2565b95608089015260a088015260c0870152818116151560e087015260081c161515610100850152838203610120850152611db2565b3461025657602036600319011261025657611b9b611c37565b611ba3611ebf565b6001600160a01b03168015611bf25780600052600b6020526040600020600160ff198254161790557f30aad5ec8e5ced8ded7e45959f743df649dbc96638aa1a73a56bb0c4e25aab3a600080a2005b60405162461bcd60e51b815260206004820152601860248201527f496e76616c69642070726f7669646572206164647265737300000000000000006044820152606490fd5b600435906001600160a01b038216820361025657565b90600182811c92168015611c7d575b6020831014611c6757565b634e487b7160e01b600052602260045260246000fd5b91607f1691611c5c565b610100810190811067ffffffffffffffff82111761082e57604052565b60a0810190811067ffffffffffffffff82111761082e57604052565b610140810190811067ffffffffffffffff82111761082e57604052565b90601f8019910116810190811067ffffffffffffffff82111761082e57604052565b9060405191826000825492611d1384611c4d565b908184526001948581169081600014611d825750600114611d3f575b5050611d3d92500383611cdd565b565b9093915060005260209081600020936000915b818310611d6a575050611d3d93508201013880611d2f565b85548884018501529485019487945091830191611d52565b915050611d3d94506020925060ff191682840152151560051b8201013880611d2f565b9060088210156108445752565b919082519283825260005b848110611dde575050826000602080949584010152601f8019910116010190565b602081830181015184830182015201611dbd565b9060048210156108445752565b8054821015611e175760005260206000200190600090565b634e487b7160e01b600052603260045260246000fd5b6020908160408183019282815285518094520193019160005b828110611e54575050505090565b835185529381019392810192600101611e46565b81601f820112156102565780359067ffffffffffffffff821161082e5760405192611e9d601f8401601f191660200185611cdd565b8284526020838301011161025657816000926020809301838601378301015290565b6000546001600160a01b03163303611ed357565b606460405162461bcd60e51b815260206004820152602060248201527f4f776e61626c653a2063616c6c6572206973206e6f7420746865206f776e65726044820152fd5b15611f1e57565b60405162461bcd60e51b815260206004820152601760248201527f4e6f7420617574686f72697a65642070726f76696465720000000000000000006044820152606490fd5b60088210156108445752565b80546801000000000000000081101561082e57611f9191600182018155611dff565b819291549060031b91821b91600019901b1916179055565b15611fb057565b60405162461bcd60e51b8152602060048201526013602482015272109a5b1b08191bd95cc81b9bdd08195e1a5cdd606a1b6044820152606490fd5b90816020910312610256575180151581036102565790565b1561200a57565b60405162461bcd60e51b8152602060048201526011602482015270109a5b1b08185b1c9958591e481c185a59607a1b6044820152606490fd5b8181029291811591840414171561205657565b634e487b7160e01b600052601160045260246000fd5b9190820391821161205657565b60001981146120565760010190565b9190820180921161205657565b6120b090801515806120b3575b6120ab90611fa9565b6120bf565b90565b506003548111156120a2565b60009081526006602052604081206040516120d981611cc0565b8154815260018201546001600160a01b03811660208301526121049060a01c60ff1660408301611f63565b61211060028301611cff565b606082015260038201549060808101918252610120612164600760048601549560a08501968752600581015460c086015260ff6006820154818116151560e088015260081c16151561010086015201611cff565b910152815162278d0081018091116121ec5742116121e757606461218c8251600c5490612043565b049282519062093a7f1982019182116121d357504211156121b65750514211156120b05760011c90565b6120b09291506121cc60649151600d5490612043565b0490612088565b634e487b7160e01b81526011600452602490fd5b505090565b634e487b7160e01b84526011600452602484fdfea2646970667358221220978db2adf819c579212f1acbbf93d96ee92b9e8193177fd530ad0987e342a7fe64736f6c63430008130033","opcodes":"PUSH1 0x80 CALLVALUE PUSH3 0x111 JUMPI PUSH1 0x1F PUSH3 0x2378 CODESIZE DUP2 SWAP1 SUB SWAP2 DUP3 ADD PUSH1 0x1F NOT AND DUP4 ADD SWAP2 PUSH1 0x1 PUSH1 0x1 PUSH1 0x40 SHL SUB DUP4 GT DUP5 DUP5 LT OR PUSH3 0x116 JUMPI DUP1 DUP5 SWAP3 PUSH1 0x60 SWAP5 PUSH1 0x40 MSTORE DUP4 CODECOPY DUP2 ADD SUB SLT PUSH3 0x111 JUMPI PUSH1 0x40 PUSH3 0x4F DUP3 PUSH3 0x12C JUMP JUMPDEST PUSH3 0x6A DUP3 PUSH3 0x62 PUSH1 0x20 DUP7 ADD PUSH3 0x12C JUMP JUMPDEST SWAP5 ADD PUSH3 0x12C JUMP JUMPDEST PUSH1 0x0 DUP1 SLOAD PUSH1 0x1 PUSH1 0x1 PUSH1 0xA0 SHL SUB NOT DUP1 DUP3 AND CALLER SWAP1 DUP2 OR DUP5 SSTORE DUP7 MLOAD SWAP8 SWAP4 SWAP6 SWAP2 SWAP5 PUSH1 0x1 PUSH1 0x1 PUSH1 0xA0 SHL SUB SWAP5 SWAP1 SWAP4 DUP6 SWAP4 SWAP2 SWAP3 DUP5 SWAP3 SWAP2 DUP4 AND PUSH32 0x8BE0079C531659141344CD1FD0A4F28419497F9722A3DAAFE3B4186F6B6457E0 DUP11 DUP1 LOG3 PUSH1 0x1 DUP1 SSTORE PUSH1 0x5 PUSH1 0xC SSTORE PUSH1 0x2 PUSH1 0xD SSTORE PUSH1 0x1 PUSH1 0xE SSTORE AND DUP6 PUSH1 0x4 SLOAD AND OR PUSH1 0x4 SSTORE AND DUP4 PUSH1 0x5 SLOAD AND OR PUSH1 0x5 SSTORE AND SWAP1 PUSH1 0xF SLOAD AND OR PUSH1 0xF SSTORE CALLER DUP2 MSTORE PUSH1 0xB PUSH1 0x20 MSTORE KECCAK256 PUSH1 0x1 PUSH1 0xFF NOT DUP3 SLOAD AND OR SWAP1 SSTORE PUSH2 0x2236 SWAP1 DUP2 PUSH3 0x142 DUP3 CODECOPY RETURN JUMPDEST PUSH1 0x0 DUP1 REVERT JUMPDEST PUSH4 0x4E487B71 PUSH1 0xE0 SHL PUSH1 0x0 MSTORE PUSH1 0x41 PUSH1 0x4 MSTORE PUSH1 0x24 PUSH1 0x0 REVERT JUMPDEST MLOAD SWAP1 PUSH1 0x1 PUSH1 0x1 PUSH1 0xA0 SHL SUB DUP3 AND DUP3 SUB PUSH3 0x111 JUMPI JUMP INVALID PUSH1 0x80 PUSH1 0x40 MSTORE PUSH1 0x4 CALLDATASIZE LT ISZERO PUSH2 0x12 JUMPI PUSH1 0x0 DUP1 REVERT JUMPDEST PUSH1 0x0 CALLDATALOAD PUSH1 0xE0 SHR DUP1 PUSH4 0x112EA262 EQ PUSH2 0x1B82 JUMPI DUP1 PUSH4 0x28BDCDE8 EQ PUSH2 0x1AB5 JUMPI DUP1 PUSH4 0x3280A836 EQ PUSH2 0x1926 JUMPI DUP1 PUSH4 0x3C6FA765 EQ PUSH2 0x1908 JUMPI DUP1 PUSH4 0x46904840 EQ PUSH2 0x18DF JUMPI DUP1 PUSH4 0x4DEE07DF EQ PUSH2 0x18C1 JUMPI DUP1 PUSH4 0x53445E22 EQ PUSH2 0x185B JUMPI DUP1 PUSH4 0x673B57E9 EQ PUSH2 0x17F5 JUMPI DUP1 PUSH4 0x682AB743 EQ PUSH2 0x17AB JUMPI DUP1 PUSH4 0x69DC3AE2 EQ PUSH2 0x176C JUMPI DUP1 PUSH4 0x69FCF0F9 EQ PUSH2 0x174E JUMPI DUP1 PUSH4 0x708F29A6 EQ PUSH2 0x1730 JUMPI DUP1 PUSH4 0x715018A6 EQ PUSH2 0x16D7 JUMPI DUP1 PUSH4 0x78F337E7 EQ PUSH2 0x16AE JUMPI DUP1 PUSH4 0x7DA2BA7C EQ PUSH2 0x15F4 JUMPI DUP1 PUSH4 0x87D81789 EQ PUSH2 0x1551 JUMPI DUP1 PUSH4 0x8CFEAB35 EQ PUSH2 0x14F9 JUMPI DUP1 PUSH4 0x8DA5CB5B EQ PUSH2 0x14D0 JUMPI DUP1 PUSH4 0x94ED4D3E EQ PUSH2 0x14B2 JUMPI DUP1 PUSH4 0x99DF7612 EQ PUSH2 0x1494 JUMPI DUP1 PUSH4 0x9D7DADEB EQ PUSH2 0x141C JUMPI DUP1 PUSH4 0x9EF3A261 EQ PUSH2 0x138B JUMPI DUP1 PUSH4 0xAE3B7F06 EQ PUSH2 0x12FD JUMPI DUP1 PUSH4 0xB1CD06E6 EQ PUSH2 0x1138 JUMPI DUP1 PUSH4 0xC9BB1A48 EQ PUSH2 0x110F JUMPI DUP1 PUSH4 0xD2D7231F EQ PUSH2 0x10E9 JUMPI DUP1 PUSH4 0xDB2E21BC EQ PUSH2 0x10A2 JUMPI DUP1 PUSH4 0xDE65483D EQ PUSH2 0xB04 JUMPI DUP1 PUSH4 0xDE8C6568 EQ PUSH2 0xA26 JUMPI DUP1 PUSH4 0xE65EF7F5 EQ PUSH2 0x99E JUMPI DUP1 PUSH4 0xEECA08F0 EQ PUSH2 0x980 JUMPI DUP1 PUSH4 0xF0975190 EQ PUSH2 0x2E0 JUMPI DUP1 PUSH4 0xF160D369 EQ PUSH2 0x25B JUMPI PUSH4 0xF2FDE38B EQ PUSH2 0x192 JUMPI PUSH1 0x0 DUP1 REVERT JUMPDEST CALLVALUE PUSH2 0x256 JUMPI PUSH1 0x20 CALLDATASIZE PUSH1 0x3 NOT ADD SLT PUSH2 0x256 JUMPI PUSH2 0x1AB PUSH2 0x1C37 JUMP JUMPDEST PUSH2 0x1B3 PUSH2 0x1EBF JUMP JUMPDEST PUSH1 0x1 PUSH1 0x1 PUSH1 0xA0 SHL SUB SWAP1 DUP2 AND SWAP1 DUP2 ISZERO PUSH2 0x202 JUMPI PUSH1 0x0 SLOAD DUP3 PUSH1 0x1 PUSH1 0x1 PUSH1 0x60 SHL SUB PUSH1 0xA0 SHL DUP3 AND OR PUSH1 0x0 SSTORE AND PUSH32 0x8BE0079C531659141344CD1FD0A4F28419497F9722A3DAAFE3B4186F6B6457E0 PUSH1 0x0 DUP1 LOG3 STOP JUMPDEST PUSH1 0x40 MLOAD PUSH3 0x461BCD PUSH1 0xE5 SHL DUP2 MSTORE PUSH1 0x20 PUSH1 0x4 DUP3 ADD MSTORE PUSH1 0x26 PUSH1 0x24 DUP3 ADD MSTORE PUSH32 0x4F776E61626C653A206E6577206F776E657220697320746865207A65726F2061 PUSH1 0x44 DUP3 ADD MSTORE PUSH6 0x646472657373 PUSH1 0xD0 SHL PUSH1 0x64 DUP3 ADD MSTORE PUSH1 0x84 SWAP1 REVERT JUMPDEST PUSH1 0x0 DUP1 REVERT JUMPDEST CALLVALUE PUSH2 0x256 JUMPI PUSH1 0x20 CALLDATASIZE PUSH1 0x3 NOT ADD SLT PUSH2 0x256 JUMPI PUSH2 0x274 PUSH2 0x1C37 JUMP JUMPDEST PUSH2 0x27C PUSH2 0x1EBF JUMP JUMPDEST PUSH1 0x1 PUSH1 0x1 PUSH1 0xA0 SHL SUB AND DUP1 ISZERO PUSH2 0x2A3 JUMPI PUSH1 0x1 PUSH1 0x1 PUSH1 0x60 SHL SUB PUSH1 0xA0 SHL PUSH1 0xF SLOAD AND OR PUSH1 0xF SSTORE PUSH1 0x0 DUP1 RETURN JUMPDEST PUSH1 0x40 MLOAD PUSH3 0x461BCD PUSH1 0xE5 SHL DUP2 MSTORE PUSH1 0x20 PUSH1 0x4 DUP3 ADD MSTORE PUSH1 0x15 PUSH1 0x24 DUP3 ADD MSTORE PUSH21 0x125B9D985B1A5908199959481C9958DA5C1A595B9D PUSH1 0x5A SHL PUSH1 0x44 DUP3 ADD MSTORE PUSH1 0x64 SWAP1 REVERT JUMPDEST PUSH1 0x20 CALLDATASIZE PUSH1 0x3 NOT ADD SLT PUSH2 0x256 JUMPI PUSH1 0x4 CALLDATALOAD ISZERO ISZERO DUP1 PUSH2 0x972 JUMPI JUMPDEST PUSH2 0x300 SWAP1 PUSH2 0x1FA9 JUMP JUMPDEST PUSH1 0x24 PUSH1 0x20 PUSH1 0x1 DUP1 PUSH1 0xA0 SHL SUB PUSH1 0x4 SLOAD AND PUSH1 0x40 MLOAD SWAP3 DUP4 DUP1 SWAP3 PUSH4 0xB9209E33 PUSH1 0xE0 SHL DUP3 MSTORE CALLER PUSH1 0x4 DUP4 ADD MSTORE GAS STATICCALL SWAP1 DUP2 ISZERO PUSH2 0x601 JUMPI PUSH1 0x0 SWAP2 PUSH2 0x953 JUMPI JUMPDEST POP ISZERO PUSH2 0x91A JUMPI PUSH1 0x2 PUSH1 0x1 SLOAD EQ PUSH2 0x8D5 JUMPI PUSH1 0x2 PUSH1 0x1 SSTORE PUSH1 0x4 CALLDATALOAD PUSH1 0x0 MSTORE PUSH1 0x6 PUSH1 0x20 MSTORE PUSH1 0x40 PUSH1 0x0 KECCAK256 CALLER PUSH1 0x1 DUP1 PUSH1 0xA0 SHL SUB PUSH1 0x1 DUP4 ADD SLOAD AND SUB PUSH2 0x89F JUMPI PUSH1 0x6 DUP2 ADD SWAP1 DUP2 SLOAD SWAP1 PUSH2 0x384 PUSH1 0xFF DUP4 AND ISZERO PUSH2 0x2003 JUMP JUMPDEST PUSH1 0x3 DUP2 ADD SLOAD DUP1 CALLVALUE LT PUSH2 0x85A JUMPI PUSH2 0x3A9 PUSH1 0x64 PUSH2 0x3A1 PUSH1 0xE SLOAD DUP5 PUSH2 0x2043 JUMP JUMPDEST DIV DUP1 SWAP3 PUSH2 0x206C JUMP JUMPDEST SWAP4 PUSH1 0x1 PUSH2 0x3B7 PUSH1 0x4 CALLDATALOAD PUSH2 0x2095 JUMP JUMPDEST SWAP5 PUSH1 0xFF NOT AND OR SWAP1 SSTORE PUSH1 0x1 PUSH1 0x2 SLOAD ADD SWAP4 DUP5 PUSH1 0x2 SSTORE PUSH1 0x3 DUP4 ADD SLOAD PUSH1 0x40 MLOAD SWAP1 PUSH2 0x3DC DUP3 PUSH2 0x1C87 JUMP JUMPDEST DUP7 DUP3 MSTORE PUSH1 0x4 CALLDATALOAD PUSH1 0x20 DUP4 ADD MSTORE CALLER PUSH1 0x40 DUP4 ADD MSTORE PUSH1 0x60 DUP3 ADD MSTORE TIMESTAMP PUSH1 0x80 DUP3 ADD MSTORE PUSH1 0x1 PUSH1 0xA0 DUP3 ADD MSTORE PUSH1 0x40 MLOAD SWAP1 DUP2 PUSH1 0x20 DUP2 ADD LT PUSH8 0xFFFFFFFFFFFFFFFF PUSH1 0x20 DUP5 ADD GT OR PUSH2 0x82E JUMPI PUSH1 0x20 DUP3 ADD PUSH1 0x40 MSTORE PUSH1 0x0 DUP3 MSTORE PUSH1 0xC0 DUP2 ADD SWAP2 DUP3 MSTORE DUP6 PUSH1 0xE0 DUP3 ADD MSTORE DUP7 PUSH1 0x0 MSTORE PUSH1 0x7 PUSH1 0x20 MSTORE PUSH1 0x40 PUSH1 0x0 KECCAK256 SWAP2 DUP2 MLOAD DUP4 SSTORE PUSH1 0x20 DUP3 ADD MLOAD PUSH1 0x1 DUP5 ADD SSTORE PUSH1 0x2 DUP4 ADD PUSH1 0x1 DUP1 PUSH1 0xA0 SHL SUB PUSH1 0x40 DUP5 ADD MLOAD AND PUSH1 0x1 PUSH1 0x1 PUSH1 0x60 SHL SUB PUSH1 0xA0 SHL DUP3 SLOAD AND OR SWAP1 SSTORE PUSH1 0x60 DUP3 ADD MLOAD PUSH1 0x3 DUP5 ADD SSTORE PUSH1 0x80 DUP3 ADD MLOAD PUSH1 0x4 DUP5 ADD SSTORE PUSH1 0x5 DUP4 ADD PUSH1 0xA0 DUP4 ADD MLOAD PUSH1 0x4 DUP2 LT ISZERO PUSH2 0x844 JUMPI PUSH1 0xFF DUP1 NOT DUP4 SLOAD AND SWAP2 AND OR SWAP1 SSTORE MLOAD DUP1 MLOAD SWAP1 PUSH8 0xFFFFFFFFFFFFFFFF DUP3 GT PUSH2 0x82E JUMPI PUSH2 0x4C5 PUSH1 0x6 DUP6 ADD SLOAD PUSH2 0x1C4D JUMP JUMPDEST PUSH1 0x1F DUP2 GT PUSH2 0x7E7 JUMPI JUMPDEST POP PUSH1 0x20 SWAP1 PUSH1 0x1F DUP4 GT PUSH1 0x1 EQ PUSH2 0x772 JUMPI SWAP2 DUP1 PUSH1 0x7 SWAP5 SWAP3 PUSH1 0xE0 SWAP5 PUSH1 0x0 SWAP3 PUSH2 0x767 JUMPI JUMPDEST POP POP DUP2 PUSH1 0x1 SHL SWAP2 PUSH1 0x0 NOT SWAP1 PUSH1 0x3 SHL SHR NOT AND OR PUSH1 0x6 DUP6 ADD SSTORE JUMPDEST ADD MLOAD SWAP2 ADD SSTORE CALLER PUSH1 0x0 MSTORE PUSH1 0x9 PUSH1 0x20 MSTORE PUSH2 0x522 DUP6 PUSH1 0x40 PUSH1 0x0 KECCAK256 PUSH2 0x1F6F JUMP JUMPDEST CALLER PUSH1 0x0 MSTORE PUSH1 0xA PUSH1 0x20 MSTORE PUSH1 0x40 PUSH1 0x0 KECCAK256 PUSH2 0x53A DUP2 SLOAD PUSH2 0x2079 JUMP JUMPDEST DUP2 SSTORE TIMESTAMP PUSH1 0x4 DUP1 DUP4 ADD DUP3 SWAP1 SSTORE DUP6 ADD SLOAD LT PUSH2 0x752 JUMPI PUSH1 0x1 DUP2 ADD PUSH2 0x55B DUP2 SLOAD PUSH2 0x2079 JUMP JUMPDEST SWAP1 SSTORE JUMPDEST DUP5 PUSH2 0x64F JUMPI JUMPDEST POP PUSH1 0x0 DUP1 DUP1 DUP1 SWAP4 PUSH1 0x1 DUP1 PUSH1 0xA0 SHL SUB DUP3 SLOAD AND DUP3 DUP3 ISZERO PUSH2 0x646 JUMPI JUMPDEST CALL ISZERO PUSH2 0x601 JUMPI DUP1 ISZERO DUP1 ISZERO PUSH2 0x616 JUMPI JUMPDEST POP POP PUSH1 0x3 DUP2 ADD SLOAD DUP1 CALLVALUE GT PUSH2 0x5DC JUMPI JUMPDEST POP PUSH1 0x3 ADD SLOAD SWAP1 PUSH1 0x40 MLOAD SWAP2 DUP3 MSTORE PUSH1 0x20 DUP3 ADD MSTORE CALLER SWAP2 PUSH32 0xDD94524E20A492198C03D08291F5DDE45A69802F8C8B94125A0FD1149CA99FE8 PUSH1 0x40 PUSH1 0x4 CALLDATALOAD SWAP4 LOG4 PUSH1 0x1 DUP1 SSTORE STOP JUMPDEST PUSH1 0x0 DUP1 DUP1 PUSH2 0x5EB DUP2 SWAP5 CALLVALUE PUSH2 0x206C JUMP JUMPDEST DUP2 DUP2 ISZERO PUSH2 0x60D JUMPI JUMPDEST CALLER SWAP1 CALL ISZERO PUSH2 0x601 JUMPI DUP4 PUSH2 0x59B JUMP JUMPDEST PUSH1 0x40 MLOAD RETURNDATASIZE PUSH1 0x0 DUP3 RETURNDATACOPY RETURNDATASIZE SWAP1 REVERT JUMPDEST POP PUSH2 0x8FC PUSH2 0x5F3 JUMP JUMPDEST PUSH1 0x0 DUP1 DUP1 SWAP4 DUP2 SWAP4 PUSH1 0x1 DUP1 PUSH1 0xA0 SHL SUB PUSH1 0xF SLOAD AND SWAP1 DUP4 SWAP1 PUSH2 0x63D JUMPI JUMPDEST CALL ISZERO PUSH2 0x601 JUMPI DUP4 DUP1 PUSH2 0x58C JUMP JUMPDEST POP PUSH2 0x8FC PUSH2 0x630 JUMP JUMPDEST POP PUSH2 0x8FC PUSH2 0x57D JUMP JUMPDEST PUSH1 0x3 ADD PUSH2 0x65D DUP6 DUP3 SLOAD PUSH2 0x2088 JUMP JUMPDEST SWAP1 SSTORE PUSH1 0x5 SLOAD PUSH1 0x40 MLOAD PUSH4 0xA9059CBB PUSH1 0xE0 SHL DUP2 MSTORE CALLER PUSH1 0x4 DUP3 ADD MSTORE PUSH1 0x24 DUP2 ADD DUP7 SWAP1 MSTORE SWAP1 PUSH1 0x20 SWAP1 DUP3 SWAP1 PUSH1 0x44 SWAP1 DUP3 SWAP1 PUSH1 0x0 SWAP1 PUSH1 0x1 PUSH1 0x1 PUSH1 0xA0 SHL SUB AND GAS CALL SWAP1 DUP2 ISZERO PUSH2 0x601 JUMPI PUSH1 0x0 SWAP2 PUSH2 0x723 JUMPI JUMPDEST POP ISZERO PUSH2 0x6E5 JUMPI PUSH1 0x0 DUP1 DUP1 DUP1 SWAP4 PUSH1 0x40 MLOAD DUP9 DUP2 MSTORE PUSH32 0xE34918FF1C7084970068B53FD71AD6D8B04E9F15D3886CBF006443E6CDC52EA6 PUSH1 0x20 CALLER SWAP3 LOG2 SWAP4 POP POP POP PUSH2 0x564 JUMP JUMPDEST PUSH1 0x40 MLOAD PUSH3 0x461BCD PUSH1 0xE5 SHL DUP2 MSTORE PUSH1 0x20 PUSH1 0x4 DUP3 ADD MSTORE PUSH1 0x16 PUSH1 0x24 DUP3 ADD MSTORE PUSH22 0x14995DD85C99081D1C985B9CD9995C8819985A5B1959 PUSH1 0x52 SHL PUSH1 0x44 DUP3 ADD MSTORE PUSH1 0x64 SWAP1 REVERT JUMPDEST PUSH2 0x745 SWAP2 POP PUSH1 0x20 RETURNDATASIZE PUSH1 0x20 GT PUSH2 0x74B JUMPI JUMPDEST PUSH2 0x73D DUP2 DUP4 PUSH2 0x1CDD JUMP JUMPDEST DUP2 ADD SWAP1 PUSH2 0x1FEB JUMP JUMPDEST DUP7 PUSH2 0x6A4 JUMP JUMPDEST POP RETURNDATASIZE PUSH2 0x733 JUMP JUMPDEST PUSH1 0x2 DUP2 ADD PUSH2 0x760 DUP2 SLOAD PUSH2 0x2079 JUMP JUMPDEST SWAP1 SSTORE PUSH2 0x55E JUMP JUMPDEST ADD MLOAD SWAP1 POP DUP12 DUP1 PUSH2 0x4EE JUMP JUMPDEST SWAP1 PUSH1 0x6 DUP6 ADD PUSH1 0x0 MSTORE PUSH1 0x20 PUSH1 0x0 KECCAK256 SWAP2 PUSH1 0x0 JUMPDEST PUSH1 0x1F NOT DUP6 AND DUP2 LT PUSH2 0x7CF JUMPI POP SWAP3 PUSH1 0x7 SWAP5 SWAP3 PUSH1 0x1 SWAP3 PUSH1 0xE0 SWAP6 DUP4 PUSH1 0x1F NOT DUP2 AND LT PUSH2 0x7B6 JUMPI JUMPDEST POP POP POP DUP2 SHL ADD PUSH1 0x6 DUP6 ADD SSTORE PUSH2 0x506 JUMP JUMPDEST ADD MLOAD PUSH1 0x0 NOT PUSH1 0xF8 DUP5 PUSH1 0x3 SHL AND SHR NOT AND SWAP1 SSTORE DUP12 DUP1 DUP1 PUSH2 0x7A6 JUMP JUMPDEST SWAP2 SWAP3 PUSH1 0x20 PUSH1 0x1 DUP2 SWAP3 DUP7 DUP6 ADD MLOAD DUP2 SSTORE ADD SWAP5 ADD SWAP3 ADD PUSH2 0x783 JUMP JUMPDEST PUSH1 0x6 DUP6 ADD PUSH1 0x0 MSTORE PUSH1 0x20 PUSH1 0x0 KECCAK256 PUSH1 0x1F DUP5 ADD PUSH1 0x5 SHR DUP2 ADD PUSH1 0x20 DUP6 LT PUSH2 0x827 JUMPI JUMPDEST PUSH1 0x1F DUP4 ADD PUSH1 0x5 SHR DUP3 ADD DUP2 LT PUSH2 0x81B JUMPI POP POP PUSH2 0x4CE JUMP JUMPDEST PUSH1 0x0 DUP2 SSTORE PUSH1 0x1 ADD PUSH2 0x805 JUMP JUMPDEST POP DUP1 PUSH2 0x805 JUMP JUMPDEST PUSH4 0x4E487B71 PUSH1 0xE0 SHL PUSH1 0x0 MSTORE PUSH1 0x41 PUSH1 0x4 MSTORE PUSH1 0x24 PUSH1 0x0 REVERT JUMPDEST PUSH4 0x4E487B71 PUSH1 0xE0 SHL PUSH1 0x0 MSTORE PUSH1 0x21 PUSH1 0x4 MSTORE PUSH1 0x24 PUSH1 0x0 REVERT JUMPDEST PUSH1 0x40 MLOAD PUSH3 0x461BCD PUSH1 0xE5 SHL DUP2 MSTORE PUSH1 0x20 PUSH1 0x4 DUP3 ADD MSTORE PUSH1 0x1B PUSH1 0x24 DUP3 ADD MSTORE PUSH32 0x496E73756666696369656E74207061796D656E7420616D6F756E740000000000 PUSH1 0x44 DUP3 ADD MSTORE PUSH1 0x64 SWAP1 REVERT JUMPDEST PUSH1 0x40 MLOAD PUSH3 0x461BCD PUSH1 0xE5 SHL DUP2 MSTORE PUSH1 0x20 PUSH1 0x4 DUP3 ADD MSTORE PUSH1 0xE PUSH1 0x24 DUP3 ADD MSTORE PUSH14 0x2737BA103134B6361037BBB732B9 PUSH1 0x91 SHL PUSH1 0x44 DUP3 ADD MSTORE PUSH1 0x64 SWAP1 REVERT JUMPDEST PUSH1 0x40 MLOAD PUSH3 0x461BCD PUSH1 0xE5 SHL DUP2 MSTORE PUSH1 0x20 PUSH1 0x4 DUP3 ADD MSTORE PUSH1 0x1F PUSH1 0x24 DUP3 ADD MSTORE PUSH32 0x5265656E7472616E637947756172643A207265656E7472616E742063616C6C00 PUSH1 0x44 DUP3 ADD MSTORE PUSH1 0x64 SWAP1 REVERT JUMPDEST PUSH1 0x40 MLOAD PUSH3 0x461BCD PUSH1 0xE5 SHL DUP2 MSTORE PUSH1 0x20 PUSH1 0x4 DUP3 ADD MSTORE PUSH1 0x11 PUSH1 0x24 DUP3 ADD MSTORE PUSH17 0x155CD95C881B9BDD081D995C9A599A5959 PUSH1 0x7A SHL PUSH1 0x44 DUP3 ADD MSTORE PUSH1 0x64 SWAP1 REVERT JUMPDEST PUSH2 0x96C SWAP2 POP PUSH1 0x20 RETURNDATASIZE PUSH1 0x20 GT PUSH2 0x74B JUMPI PUSH2 0x73D DUP2 DUP4 PUSH2 0x1CDD JUMP JUMPDEST DUP2 PUSH2 0x337 JUMP JUMPDEST POP PUSH1 0x3 SLOAD PUSH1 0x4 CALLDATALOAD GT ISZERO PUSH2 0x2F7 JUMP JUMPDEST CALLVALUE PUSH2 0x256 JUMPI PUSH1 0x0 CALLDATASIZE PUSH1 0x3 NOT ADD SLT PUSH2 0x256 JUMPI PUSH1 0x20 PUSH1 0xE SLOAD PUSH1 0x40 MLOAD SWAP1 DUP2 MSTORE RETURN JUMPDEST CALLVALUE PUSH2 0x256 JUMPI PUSH1 0x20 DUP1 PUSH1 0x3 NOT CALLDATASIZE ADD SLT PUSH2 0x256 JUMPI PUSH1 0x1 PUSH1 0x1 PUSH1 0xA0 SHL SUB PUSH2 0x9C0 PUSH2 0x1C37 JUMP JUMPDEST AND PUSH1 0x0 MSTORE PUSH1 0x8 DUP2 MSTORE PUSH1 0x40 PUSH1 0x0 KECCAK256 SWAP1 PUSH1 0x40 MLOAD SWAP1 DUP2 DUP2 DUP5 SLOAD SWAP2 DUP3 DUP2 MSTORE ADD SWAP4 PUSH1 0x0 MSTORE DUP2 PUSH1 0x0 KECCAK256 SWAP2 PUSH1 0x0 SWAP1 JUMPDEST DUP3 DUP3 LT PUSH2 0xA0F JUMPI PUSH2 0xA0B DUP6 PUSH2 0x9FF DUP2 DUP10 SUB DUP3 PUSH2 0x1CDD JUMP JUMPDEST PUSH1 0x40 MLOAD SWAP2 DUP3 SWAP2 DUP3 PUSH2 0x1E2D JUMP JUMPDEST SUB SWAP1 RETURN JUMPDEST DUP4 SLOAD DUP7 MSTORE SWAP5 DUP6 ADD SWAP5 PUSH1 0x1 SWAP4 DUP5 ADD SWAP4 SWAP1 SWAP2 ADD SWAP1 PUSH2 0x9E8 JUMP JUMPDEST CALLVALUE PUSH2 0x256 JUMPI PUSH1 0x20 CALLDATASIZE PUSH1 0x3 NOT ADD SLT PUSH2 0x256 JUMPI PUSH1 0x4 CALLDATALOAD CALLER PUSH1 0x0 MSTORE PUSH1 0xB PUSH1 0x20 MSTORE PUSH1 0xFF PUSH1 0x40 PUSH1 0x0 KECCAK256 SLOAD AND DUP1 ISZERO PUSH2 0xAF0 JUMPI JUMPDEST PUSH2 0xA5C SWAP1 PUSH2 0x1F17 JUMP JUMPDEST DUP1 ISZERO ISZERO DUP1 PUSH2 0xAE4 JUMPI JUMPDEST PUSH2 0xA6E SWAP1 PUSH2 0x1FA9 JUMP JUMPDEST PUSH1 0x0 MSTORE PUSH1 0x6 PUSH1 0x20 MSTORE PUSH1 0x40 PUSH1 0x0 KECCAK256 PUSH1 0x6 DUP2 ADD SWAP1 PUSH1 0x4 DUP3 SLOAD SWAP2 PUSH2 0xA92 PUSH1 0xFF DUP5 AND ISZERO PUSH2 0x2003 JUMP JUMPDEST ADD SLOAD TIMESTAMP GT ISZERO PUSH2 0xAA8 JUMPI PUSH2 0xFF00 NOT AND PUSH2 0x100 OR SWAP1 SSTORE STOP JUMPDEST PUSH1 0x40 MLOAD PUSH3 0x461BCD PUSH1 0xE5 SHL DUP2 MSTORE PUSH1 0x20 PUSH1 0x4 DUP3 ADD MSTORE PUSH1 0x14 PUSH1 0x24 DUP3 ADD MSTORE PUSH20 0x42696C6C206E6F7420796574206F766572647565 PUSH1 0x60 SHL PUSH1 0x44 DUP3 ADD MSTORE PUSH1 0x64 SWAP1 REVERT JUMPDEST POP PUSH1 0x3 SLOAD DUP2 GT ISZERO PUSH2 0xA65 JUMP JUMPDEST POP PUSH1 0x0 SLOAD PUSH1 0x1 PUSH1 0x1 PUSH1 0xA0 SHL SUB AND CALLER EQ PUSH2 0xA53 JUMP JUMPDEST CALLVALUE PUSH2 0x256 JUMPI PUSH1 0xC0 CALLDATASIZE PUSH1 0x3 NOT ADD SLT PUSH2 0x256 JUMPI PUSH2 0xB1D PUSH2 0x1C37 JUMP JUMPDEST PUSH1 0x8 PUSH1 0x24 CALLDATALOAD LT ISZERO PUSH2 0x256 JUMPI PUSH1 0x44 CALLDATALOAD PUSH8 0xFFFFFFFFFFFFFFFF DUP2 GT PUSH2 0x256 JUMPI PUSH2 0xB48 SWAP1 CALLDATASIZE SWAP1 PUSH1 0x4 ADD PUSH2 0x1E68 JUMP JUMPDEST PUSH1 0xA4 CALLDATALOAD PUSH8 0xFFFFFFFFFFFFFFFF DUP2 GT PUSH2 0x256 JUMPI PUSH2 0xB68 SWAP1 CALLDATASIZE SWAP1 PUSH1 0x4 ADD PUSH2 0x1E68 JUMP JUMPDEST SWAP2 CALLER PUSH1 0x0 MSTORE PUSH1 0xB PUSH1 0x20 MSTORE PUSH1 0xFF PUSH1 0x40 PUSH1 0x0 KECCAK256 SLOAD AND DUP1 ISZERO PUSH2 0x108E JUMPI JUMPDEST PUSH2 0xB8B SWAP1 PUSH2 0x1F17 JUMP JUMPDEST PUSH1 0x1 PUSH1 0x1 PUSH1 0xA0 SHL SUB SWAP3 DUP2 DUP5 AND ISZERO PUSH2 0x1052 JUMPI PUSH1 0x64 CALLDATALOAD ISZERO PUSH2 0x100D JUMPI TIMESTAMP PUSH1 0x84 CALLDATALOAD GT ISZERO PUSH2 0xFC8 JUMPI DUP3 MLOAD ISZERO PUSH2 0xF83 JUMPI PUSH1 0x1 PUSH1 0x3 SLOAD ADD SWAP3 DUP4 PUSH1 0x3 SSTORE PUSH1 0x40 MLOAD SWAP1 PUSH2 0xBCD DUP3 PUSH2 0x1CC0 JUMP JUMPDEST DUP5 DUP3 MSTORE PUSH1 0x20 DUP3 ADD DUP7 DUP6 AND DUP2 MSTORE PUSH1 0x40 DUP4 ADD SWAP4 PUSH2 0xBEA PUSH1 0x24 CALLDATALOAD DUP7 PUSH2 0x1F63 JUMP JUMPDEST PUSH1 0x60 DUP5 ADD SWAP3 DUP4 MSTORE PUSH1 0x64 CALLDATALOAD PUSH1 0x80 DUP6 ADD MSTORE PUSH1 0x84 CALLDATALOAD PUSH1 0xA0 DUP6 ADD MSTORE TIMESTAMP PUSH1 0xC0 DUP6 ADD MSTORE PUSH1 0x0 PUSH1 0xE0 DUP6 ADD MSTORE PUSH1 0x0 PUSH2 0x100 DUP6 ADD MSTORE PUSH2 0x120 DUP5 ADD MSTORE DUP6 PUSH1 0x0 MSTORE PUSH1 0x6 PUSH1 0x20 MSTORE PUSH1 0x40 PUSH1 0x0 KECCAK256 SWAP4 DUP4 MLOAD DUP6 SSTORE DUP8 PUSH1 0x1 DUP7 ADD SWAP3 MLOAD AND DUP3 SLOAD SWAP2 MLOAD PUSH1 0x8 DUP2 LT ISZERO PUSH2 0x844 JUMPI PUSH1 0x1 PUSH1 0x1 PUSH1 0xA8 SHL SUB NOT SWAP1 SWAP3 AND OR PUSH1 0xA0 SWAP2 SWAP1 SWAP2 SHL PUSH1 0xFF PUSH1 0xA0 SHL AND OR SWAP1 SSTORE MLOAD DUP1 MLOAD SWAP1 PUSH8 0xFFFFFFFFFFFFFFFF DUP3 GT PUSH2 0x82E JUMPI PUSH2 0xC80 PUSH1 0x2 DUP6 ADD SLOAD PUSH2 0x1C4D JUMP JUMPDEST PUSH1 0x1F DUP2 GT PUSH2 0xF3C JUMPI JUMPDEST POP PUSH1 0x20 SWAP1 PUSH1 0x1F DUP4 GT PUSH1 0x1 EQ PUSH2 0xEC8 JUMPI PUSH2 0x120 SWAP4 SWAP3 SWAP2 PUSH1 0x0 SWAP2 DUP4 PUSH2 0xEBD JUMPI JUMPDEST POP POP DUP2 PUSH1 0x1 SHL SWAP2 PUSH1 0x0 NOT SWAP1 PUSH1 0x3 SHL SHR NOT AND OR PUSH1 0x2 DUP5 ADD SSTORE JUMPDEST PUSH1 0x80 DUP2 ADD MLOAD PUSH1 0x3 DUP5 ADD SSTORE PUSH1 0xA0 DUP2 ADD MLOAD PUSH1 0x4 DUP5 ADD SSTORE PUSH1 0xC0 DUP2 ADD MLOAD PUSH1 0x5 DUP5 ADD SSTORE PUSH1 0x6 DUP4 ADD PUSH1 0xE0 DUP3 ADD MLOAD ISZERO ISZERO DUP2 SLOAD PUSH1 0xFF PUSH2 0xFF00 PUSH2 0x100 DUP7 ADD MLOAD ISZERO ISZERO PUSH1 0x8 SHL AND SWAP3 AND SWAP1 PUSH2 0xFFFF NOT AND OR OR SWAP1 SSTORE ADD MLOAD DUP1 MLOAD SWAP1 PUSH8 0xFFFFFFFFFFFFFFFF DUP3 GT PUSH2 0x82E JUMPI PUSH2 0xD28 PUSH1 0x7 DUP5 ADD SLOAD PUSH2 0x1C4D JUMP JUMPDEST PUSH1 0x1F DUP2 GT PUSH2 0xE72 JUMPI JUMPDEST POP SWAP2 PUSH1 0x20 SWAP6 SWAP2 DUP6 SWAP4 DUP8 SWAP1 PUSH1 0x1F DUP4 GT PUSH1 0x1 EQ PUSH2 0xDDC JUMPI DUP3 PUSH32 0x8B0FD94F7A52C91D188993CB42729C5FEF26E6DFA148C8E22681BC8C42484C21 SWAP6 SWAP4 PUSH1 0x60 SWAP6 SWAP4 PUSH1 0x7 SWAP4 PUSH1 0x0 SWAP3 PUSH2 0xDD1 JUMPI JUMPDEST POP POP DUP2 PUSH1 0x1 SHL SWAP2 PUSH1 0x0 NOT SWAP1 PUSH1 0x3 SHL SHR NOT AND OR SWAP2 ADD SSTORE JUMPDEST DUP1 DUP6 AND PUSH1 0x0 MSTORE PUSH1 0x8 DUP8 MSTORE PUSH2 0xDA7 DUP5 PUSH1 0x40 PUSH1 0x0 KECCAK256 PUSH2 0x1F6F JUMP JUMPDEST PUSH1 0x40 MLOAD SWAP5 PUSH2 0xDB7 DUP7 PUSH1 0x24 CALLDATALOAD PUSH2 0x1DA5 JUMP JUMPDEST PUSH1 0x64 CALLDATALOAD DUP9 DUP8 ADD MSTORE PUSH1 0x84 CALLDATALOAD PUSH1 0x40 DUP8 ADD MSTORE AND SWAP4 LOG3 PUSH1 0x40 MLOAD SWAP1 DUP2 MSTORE RETURN JUMPDEST ADD MLOAD SWAP1 POP DUP12 DUP1 PUSH2 0xD79 JUMP JUMPDEST SWAP1 PUSH1 0x7 DUP5 ADD PUSH1 0x0 MSTORE DUP9 PUSH1 0x0 KECCAK256 SWAP2 PUSH1 0x0 JUMPDEST PUSH1 0x1F NOT DUP6 AND DUP2 LT PUSH2 0xE58 JUMPI POP DUP4 PUSH1 0x60 SWAP6 SWAP4 PUSH1 0x7 SWAP4 PUSH1 0x1 SWAP4 PUSH32 0x8B0FD94F7A52C91D188993CB42729C5FEF26E6DFA148C8E22681BC8C42484C21 SWAP10 SWAP8 PUSH1 0x1F NOT DUP2 AND LT PUSH2 0xE3F JUMPI JUMPDEST POP POP POP DUP2 SHL ADD SWAP2 ADD SSTORE PUSH2 0xD8F JUMP JUMPDEST ADD MLOAD PUSH1 0x0 NOT PUSH1 0xF8 DUP5 PUSH1 0x3 SHL AND SHR NOT AND SWAP1 SSTORE DUP12 DUP1 DUP1 PUSH2 0xE31 JUMP JUMPDEST DUP2 DUP4 ADD MLOAD DUP5 SSTORE DUP10 SWAP8 POP PUSH1 0x1 SWAP1 SWAP4 ADD SWAP3 SWAP2 DUP11 ADD SWAP2 DUP11 ADD PUSH2 0xDEC JUMP JUMPDEST PUSH1 0x7 DUP5 ADD PUSH1 0x0 MSTORE PUSH1 0x20 PUSH1 0x0 KECCAK256 PUSH1 0x1F DUP5 ADD PUSH1 0x5 SHR DUP2 ADD SWAP2 PUSH1 0x20 DUP6 LT PUSH2 0xEB3 JUMPI JUMPDEST PUSH1 0x1F ADD PUSH1 0x5 SHR ADD SWAP1 JUMPDEST DUP2 DUP2 LT PUSH2 0xEA7 JUMPI POP PUSH2 0xD31 JUMP JUMPDEST PUSH1 0x0 DUP2 SSTORE PUSH1 0x1 ADD PUSH2 0xE9A JUMP JUMPDEST SWAP1 SWAP2 POP DUP2 SWAP1 PUSH2 0xE91 JUMP JUMPDEST ADD MLOAD SWAP1 POP DUP9 DUP1 PUSH2 0xCA7 JUMP JUMPDEST SWAP1 PUSH1 0x2 DUP6 ADD PUSH1 0x0 MSTORE PUSH1 0x20 PUSH1 0x0 KECCAK256 SWAP2 PUSH1 0x0 JUMPDEST PUSH1 0x1F NOT DUP6 AND DUP2 LT PUSH2 0xF24 JUMPI POP SWAP2 DUP4 SWAP2 PUSH1 0x1 SWAP4 PUSH2 0x120 SWAP7 SWAP6 PUSH1 0x1F NOT DUP2 AND LT PUSH2 0xF0B JUMPI JUMPDEST POP POP POP DUP2 SHL ADD PUSH1 0x2 DUP5 ADD SSTORE PUSH2 0xCBF JUMP JUMPDEST ADD MLOAD PUSH1 0x0 NOT PUSH1 0xF8 DUP5 PUSH1 0x3 SHL AND SHR NOT AND SWAP1 SSTORE DUP9 DUP1 DUP1 PUSH2 0xEFB JUMP JUMPDEST SWAP2 SWAP3 PUSH1 0x20 PUSH1 0x1 DUP2 SWAP3 DUP7 DUP6 ADD MLOAD DUP2 SSTORE ADD SWAP5 ADD SWAP3 ADD PUSH2 0xED9 JUMP JUMPDEST PUSH1 0x2 DUP6 ADD PUSH1 0x0 MSTORE PUSH1 0x20 PUSH1 0x0 KECCAK256 PUSH1 0x1F DUP5 ADD PUSH1 0x5 SHR DUP2 ADD PUSH1 0x20 DUP6 LT PUSH2 0xF7C JUMPI JUMPDEST PUSH1 0x1F DUP4 ADD PUSH1 0x5 SHR DUP3 ADD DUP2 LT PUSH2 0xF70 JUMPI POP POP PUSH2 0xC89 JUMP JUMPDEST PUSH1 0x0 DUP2 SSTORE PUSH1 0x1 ADD PUSH2 0xF5A JUMP JUMPDEST POP DUP1 PUSH2 0xF5A JUMP JUMPDEST PUSH1 0x40 MLOAD PUSH3 0x461BCD PUSH1 0xE5 SHL DUP2 MSTORE PUSH1 0x20 PUSH1 0x4 DUP3 ADD MSTORE PUSH1 0x1D PUSH1 0x24 DUP3 ADD MSTORE PUSH32 0x50726F7669646572206E616D652063616E6E6F7420626520656D707479000000 PUSH1 0x44 DUP3 ADD MSTORE PUSH1 0x64 SWAP1 REVERT JUMPDEST PUSH1 0x40 MLOAD PUSH3 0x461BCD PUSH1 0xE5 SHL DUP2 MSTORE PUSH1 0x20 PUSH1 0x4 DUP3 ADD MSTORE PUSH1 0x1E PUSH1 0x24 DUP3 ADD MSTORE PUSH32 0x4475652064617465206D75737420626520696E20746865206675747572650000 PUSH1 0x44 DUP3 ADD MSTORE PUSH1 0x64 SWAP1 REVERT JUMPDEST PUSH1 0x40 MLOAD PUSH3 0x461BCD PUSH1 0xE5 SHL DUP2 MSTORE PUSH1 0x20 PUSH1 0x4 DUP3 ADD MSTORE PUSH1 0x1D PUSH1 0x24 DUP3 ADD MSTORE PUSH32 0x416D6F756E74206D7573742062652067726561746572207468616E2030000000 PUSH1 0x44 DUP3 ADD MSTORE PUSH1 0x64 SWAP1 REVERT JUMPDEST PUSH1 0x40 MLOAD PUSH3 0x461BCD PUSH1 0xE5 SHL DUP2 MSTORE PUSH1 0x20 PUSH1 0x4 DUP3 ADD MSTORE PUSH1 0x14 PUSH1 0x24 DUP3 ADD MSTORE PUSH20 0x496E76616C696420757365722061646472657373 PUSH1 0x60 SHL PUSH1 0x44 DUP3 ADD MSTORE PUSH1 0x64 SWAP1 REVERT JUMPDEST POP PUSH1 0x0 SLOAD PUSH1 0x1 PUSH1 0x1 PUSH1 0xA0 SHL SUB AND CALLER EQ PUSH2 0xB82 JUMP JUMPDEST CALLVALUE PUSH2 0x256 JUMPI PUSH1 0x0 CALLDATASIZE PUSH1 0x3 NOT ADD SLT PUSH2 0x256 JUMPI PUSH2 0x10BB PUSH2 0x1EBF JUMP JUMPDEST PUSH1 0x0 DUP1 SLOAD DUP2 SWAP1 DUP2 SWAP1 DUP2 SWAP1 SELFBALANCE SWAP1 PUSH1 0x1 PUSH1 0x1 PUSH1 0xA0 SHL SUB AND DUP3 DUP3 ISZERO PUSH2 0x10E0 JUMPI JUMPDEST CALL ISZERO PUSH2 0x601 JUMPI STOP JUMPDEST POP PUSH2 0x8FC PUSH2 0x10D8 JUMP JUMPDEST CALLVALUE PUSH2 0x256 JUMPI PUSH1 0x20 CALLDATASIZE PUSH1 0x3 NOT ADD SLT PUSH2 0x256 JUMPI PUSH1 0x20 PUSH2 0x1107 PUSH1 0x4 CALLDATALOAD PUSH2 0x2095 JUMP JUMPDEST PUSH1 0x40 MLOAD SWAP1 DUP2 MSTORE RETURN JUMPDEST CALLVALUE PUSH2 0x256 JUMPI PUSH1 0x0 CALLDATASIZE PUSH1 0x3 NOT ADD SLT PUSH2 0x256 JUMPI PUSH1 0x4 SLOAD PUSH1 0x40 MLOAD PUSH1 0x1 PUSH1 0x1 PUSH1 0xA0 SHL SUB SWAP1 SWAP2 AND DUP2 MSTORE PUSH1 0x20 SWAP1 RETURN JUMPDEST CALLVALUE PUSH2 0x256 JUMPI PUSH1 0x20 CALLDATASIZE PUSH1 0x3 NOT ADD SLT PUSH2 0x256 JUMPI PUSH1 0x4 CALLDATALOAD PUSH1 0x60 PUSH2 0x120 PUSH1 0x40 MLOAD PUSH2 0x115D DUP2 PUSH2 0x1CC0 JUMP JUMPDEST PUSH1 0x0 DUP2 MSTORE PUSH1 0x0 PUSH1 0x20 DUP3 ADD MSTORE PUSH1 0x0 PUSH1 0x40 DUP3 ADD MSTORE DUP3 DUP1 DUP3 ADD MSTORE PUSH1 0x0 PUSH1 0x80 DUP3 ADD MSTORE PUSH1 0x0 PUSH1 0xA0 DUP3 ADD MSTORE PUSH1 0x0 PUSH1 0xC0 DUP3 ADD MSTORE PUSH1 0x0 PUSH1 0xE0 DUP3 ADD MSTORE PUSH1 0x0 PUSH2 0x100 DUP3 ADD MSTORE ADD MSTORE DUP1 ISZERO ISZERO DUP1 PUSH2 0x12F1 JUMPI JUMPDEST PUSH2 0x11AC SWAP1 PUSH2 0x1FA9 JUMP JUMPDEST PUSH1 0x0 MSTORE PUSH1 0x6 PUSH1 0x20 MSTORE PUSH2 0xA0B PUSH1 0x40 PUSH1 0x0 KECCAK256 PUSH2 0x124B PUSH1 0x7 PUSH1 0x40 MLOAD SWAP3 PUSH2 0x11CE DUP5 PUSH2 0x1CC0 JUMP JUMPDEST DUP1 SLOAD DUP5 MSTORE PUSH1 0x1 DUP2 ADD SLOAD PUSH1 0x1 PUSH1 0x1 PUSH1 0xA0 SHL SUB DUP2 AND PUSH1 0x20 DUP7 ADD MSTORE PUSH2 0x11F9 SWAP1 PUSH1 0xA0 SHR PUSH1 0xFF AND PUSH1 0x40 DUP7 ADD PUSH2 0x1F63 JUMP JUMPDEST PUSH2 0x1205 PUSH1 0x2 DUP3 ADD PUSH2 0x1CFF JUMP JUMPDEST PUSH1 0x60 DUP6 ADD MSTORE PUSH1 0x3 DUP2 ADD SLOAD PUSH1 0x80 DUP6 ADD MSTORE PUSH1 0x4 DUP2 ADD SLOAD PUSH1 0xA0 DUP6 ADD MSTORE PUSH1 0x5 DUP2 ADD SLOAD PUSH1 0xC0 DUP6 ADD MSTORE PUSH1 0xFF PUSH1 0x6 DUP3 ADD SLOAD DUP2 DUP2 AND ISZERO ISZERO PUSH1 0xE0 DUP8 ADD MSTORE PUSH1 0x8 SHR AND ISZERO ISZERO PUSH2 0x100 DUP6 ADD MSTORE ADD PUSH2 0x1CFF JUMP JUMPDEST PUSH2 0x120 DUP3 ADD MSTORE PUSH1 0x40 MLOAD SWAP2 DUP3 SWAP2 PUSH1 0x20 DUP4 MSTORE DUP1 MLOAD PUSH1 0x20 DUP5 ADD MSTORE PUSH1 0x1 DUP1 PUSH1 0xA0 SHL SUB PUSH1 0x20 DUP3 ADD MLOAD AND PUSH1 0x40 DUP5 ADD MSTORE PUSH2 0x1286 PUSH1 0x40 DUP3 ADD MLOAD PUSH1 0x60 DUP6 ADD SWAP1 PUSH2 0x1DA5 JUMP JUMPDEST PUSH1 0x60 DUP2 ADD MLOAD PUSH2 0x120 PUSH2 0x12A6 PUSH2 0x140 SWAP3 DUP4 PUSH1 0x80 DUP9 ADD MSTORE PUSH2 0x160 DUP8 ADD SWAP1 PUSH2 0x1DB2 JUMP JUMPDEST SWAP3 PUSH1 0x80 DUP2 ADD MLOAD PUSH1 0xA0 DUP8 ADD MSTORE PUSH1 0xA0 DUP2 ADD MLOAD PUSH1 0xC0 DUP8 ADD MSTORE PUSH1 0xC0 DUP2 ADD MLOAD PUSH1 0xE0 DUP8 ADD MSTORE PUSH1 0xE0 DUP2 ADD MLOAD ISZERO ISZERO PUSH2 0x100 DUP8 ADD MSTORE PUSH2 0x100 DUP2 ADD MLOAD ISZERO ISZERO DUP3 DUP8 ADD MSTORE ADD MLOAD SWAP1 PUSH1 0x1F NOT DUP6 DUP5 SUB ADD SWAP1 DUP6 ADD MSTORE PUSH2 0x1DB2 JUMP JUMPDEST POP PUSH1 0x3 SLOAD DUP2 GT ISZERO PUSH2 0x11A3 JUMP JUMPDEST CALLVALUE PUSH2 0x256 JUMPI PUSH1 0x20 CALLDATASIZE PUSH1 0x3 NOT ADD SLT PUSH2 0x256 JUMPI PUSH1 0x4 CALLDATALOAD PUSH2 0x1319 PUSH2 0x1EBF JUMP JUMPDEST PUSH1 0xA DUP2 GT PUSH2 0x1352 JUMPI PUSH1 0x20 DUP2 PUSH32 0x45610D581145924DD7090A5017E5F2B1D6F42213BB2E95707FF86846BBFCB1CA SWAP3 PUSH1 0xE SSTORE PUSH1 0x40 MLOAD SWAP1 DUP2 MSTORE LOG1 STOP JUMPDEST PUSH1 0x40 MLOAD PUSH3 0x461BCD PUSH1 0xE5 SHL DUP2 MSTORE PUSH1 0x20 PUSH1 0x4 DUP3 ADD MSTORE PUSH1 0x11 PUSH1 0x24 DUP3 ADD MSTORE PUSH17 0x8CCACA40E4C2E8CA40E8DEDE40D0D2CED PUSH1 0x7B SHL PUSH1 0x44 DUP3 ADD MSTORE PUSH1 0x64 SWAP1 REVERT JUMPDEST CALLVALUE PUSH2 0x256 JUMPI PUSH1 0x20 CALLDATASIZE PUSH1 0x3 NOT ADD SLT PUSH2 0x256 JUMPI PUSH1 0x4 CALLDATALOAD PUSH2 0x13A7 PUSH2 0x1EBF JUMP JUMPDEST PUSH1 0x14 DUP2 GT PUSH2 0x13E0 JUMPI PUSH1 0x20 DUP2 PUSH32 0x41D466EBD06FB97E7786086AC8B69B7EB7DA798592036251291D34E9791CDE01 SWAP3 PUSH1 0xC SSTORE PUSH1 0x40 MLOAD SWAP1 DUP2 MSTORE LOG1 STOP JUMPDEST PUSH1 0x40 MLOAD PUSH3 0x461BCD PUSH1 0xE5 SHL DUP2 MSTORE PUSH1 0x20 PUSH1 0x4 DUP3 ADD MSTORE PUSH1 0x14 PUSH1 0x24 DUP3 ADD MSTORE PUSH20 0xA4CAEEC2E4C840E4C2E8CA40E8DEDE40D0D2CED PUSH1 0x63 SHL PUSH1 0x44 DUP3 ADD MSTORE PUSH1 0x64 SWAP1 REVERT JUMPDEST CALLVALUE PUSH2 0x256 JUMPI PUSH1 0x20 DUP1 PUSH1 0x3 NOT CALLDATASIZE ADD SLT PUSH2 0x256 JUMPI PUSH1 0x1 PUSH1 0x1 PUSH1 0xA0 SHL SUB PUSH2 0x143E PUSH2 0x1C37 JUMP JUMPDEST AND PUSH1 0x0 MSTORE PUSH1 0x9 DUP2 MSTORE PUSH1 0x40 PUSH1 0x0 KECCAK256 SWAP1 PUSH1 0x40 MLOAD SWAP1 DUP2 DUP2 DUP5 SLOAD SWAP2 DUP3 DUP2 MSTORE ADD SWAP4 PUSH1 0x0 MSTORE DUP2 PUSH1 0x0 KECCAK256 SWAP2 PUSH1 0x0 SWAP1 JUMPDEST DUP3 DUP3 LT PUSH2 0x147D JUMPI PUSH2 0xA0B DUP6 PUSH2 0x9FF DUP2 DUP10 SUB DUP3 PUSH2 0x1CDD JUMP JUMPDEST DUP4 SLOAD DUP7 MSTORE SWAP5 DUP6 ADD SWAP5 PUSH1 0x1 SWAP4 DUP5 ADD SWAP4 SWAP1 SWAP2 ADD SWAP1 PUSH2 0x1466 JUMP JUMPDEST CALLVALUE PUSH2 0x256 JUMPI PUSH1 0x0 CALLDATASIZE PUSH1 0x3 NOT ADD SLT PUSH2 0x256 JUMPI PUSH1 0x20 PUSH1 0x40 MLOAD PUSH3 0x278D00 DUP2 MSTORE RETURN JUMPDEST CALLVALUE PUSH2 0x256 JUMPI PUSH1 0x0 CALLDATASIZE PUSH1 0x3 NOT ADD SLT PUSH2 0x256 JUMPI PUSH1 0x20 PUSH1 0xD SLOAD PUSH1 0x40 MLOAD SWAP1 DUP2 MSTORE RETURN JUMPDEST CALLVALUE PUSH2 0x256 JUMPI PUSH1 0x0 CALLDATASIZE PUSH1 0x3 NOT ADD SLT PUSH2 0x256 JUMPI PUSH1 0x0 SLOAD PUSH1 0x40 MLOAD PUSH1 0x1 PUSH1 0x1 PUSH1 0xA0 SHL SUB SWAP1 SWAP2 AND DUP2 MSTORE PUSH1 0x20 SWAP1 RETURN JUMPDEST CALLVALUE PUSH2 0x256 JUMPI PUSH1 0x40 CALLDATASIZE PUSH1 0x3 NOT ADD SLT PUSH2 0x256 JUMPI PUSH2 0x1512 PUSH2 0x1C37 JUMP JUMPDEST PUSH1 0x1 PUSH1 0x1 PUSH1 0xA0 SHL SUB AND PUSH1 0x0 SWAP1 DUP2 MSTORE PUSH1 0x9 PUSH1 0x20 MSTORE PUSH1 0x40 SWAP1 KECCAK256 DUP1 SLOAD PUSH1 0x24 CALLDATALOAD SWAP2 SWAP1 DUP3 LT ISZERO PUSH2 0x256 JUMPI PUSH1 0x20 SWAP2 PUSH2 0x1543 SWAP2 PUSH2 0x1DFF JUMP JUMPDEST SWAP1 SLOAD PUSH1 0x40 MLOAD SWAP2 PUSH1 0x3 SHL SHR DUP2 MSTORE RETURN JUMPDEST CALLVALUE PUSH2 0x256 JUMPI PUSH1 0x20 CALLDATASIZE PUSH1 0x3 NOT ADD SLT PUSH2 0x256 JUMPI PUSH1 0x4 CALLDATALOAD PUSH1 0x0 MSTORE PUSH1 0x7 PUSH1 0x20 MSTORE PUSH1 0x40 PUSH1 0x0 KECCAK256 DUP1 SLOAD PUSH1 0x1 DUP3 ADD SLOAD SWAP2 PUSH2 0x15EA PUSH1 0x1 DUP1 PUSH1 0xA0 SHL SUB PUSH1 0x2 DUP4 ADD SLOAD AND SWAP2 PUSH2 0x15D9 PUSH1 0x3 DUP3 ADD SLOAD PUSH1 0x4 DUP4 ADD SLOAD PUSH1 0xFF PUSH1 0x5 DUP6 ADD SLOAD AND SWAP2 PUSH1 0x7 PUSH2 0x15AF PUSH1 0x6 DUP8 ADD PUSH2 0x1CFF JUMP JUMPDEST SWAP6 ADD SLOAD SWAP7 PUSH1 0x40 MLOAD SWAP10 DUP11 SWAP10 DUP11 MSTORE PUSH1 0x20 DUP11 ADD MSTORE PUSH1 0x40 DUP10 ADD MSTORE PUSH1 0x60 DUP9 ADD MSTORE PUSH1 0x80 DUP8 ADD MSTORE PUSH1 0xA0 DUP7 ADD SWAP1 PUSH2 0x1DF2 JUMP JUMPDEST PUSH2 0x100 DUP1 PUSH1 0xC0 DUP7 ADD MSTORE DUP5 ADD SWAP1 PUSH2 0x1DB2 JUMP JUMPDEST SWAP1 PUSH1 0xE0 DUP4 ADD MSTORE SUB SWAP1 RETURN JUMPDEST CALLVALUE PUSH2 0x256 JUMPI PUSH1 0x20 CALLDATASIZE PUSH1 0x3 NOT ADD SLT PUSH2 0x256 JUMPI PUSH2 0x160D PUSH2 0x1C37 JUMP JUMPDEST PUSH1 0x0 PUSH1 0x80 PUSH1 0x40 MLOAD PUSH2 0x161D DUP2 PUSH2 0x1CA4 JUMP JUMPDEST DUP3 DUP2 MSTORE DUP3 PUSH1 0x20 DUP3 ADD MSTORE DUP3 PUSH1 0x40 DUP3 ADD MSTORE DUP3 PUSH1 0x60 DUP3 ADD MSTORE ADD MSTORE PUSH1 0x1 DUP1 PUSH1 0xA0 SHL SUB AND PUSH1 0x0 MSTORE PUSH1 0xA PUSH1 0x20 MSTORE PUSH1 0xA0 PUSH1 0x40 PUSH1 0x0 KECCAK256 PUSH1 0x40 MLOAD PUSH2 0x1657 DUP2 PUSH2 0x1CA4 JUMP JUMPDEST DUP2 SLOAD SWAP2 DUP3 DUP3 MSTORE PUSH1 0x1 DUP2 ADD SLOAD PUSH1 0x20 DUP4 ADD SWAP1 DUP2 MSTORE PUSH1 0x2 DUP3 ADD SLOAD SWAP1 PUSH1 0x40 DUP5 ADD SWAP2 DUP3 MSTORE PUSH1 0x80 PUSH1 0x4 PUSH1 0x3 DUP6 ADD SLOAD SWAP5 PUSH1 0x60 DUP8 ADD SWAP6 DUP7 MSTORE ADD SLOAD SWAP5 ADD SWAP4 DUP5 MSTORE PUSH1 0x40 MLOAD SWAP5 DUP6 MSTORE MLOAD PUSH1 0x20 DUP6 ADD MSTORE MLOAD PUSH1 0x40 DUP5 ADD MSTORE MLOAD PUSH1 0x60 DUP4 ADD MSTORE MLOAD PUSH1 0x80 DUP3 ADD MSTORE RETURN JUMPDEST CALLVALUE PUSH2 0x256 JUMPI PUSH1 0x0 CALLDATASIZE PUSH1 0x3 NOT ADD SLT PUSH2 0x256 JUMPI PUSH1 0x5 SLOAD PUSH1 0x40 MLOAD PUSH1 0x1 PUSH1 0x1 PUSH1 0xA0 SHL SUB SWAP1 SWAP2 AND DUP2 MSTORE PUSH1 0x20 SWAP1 RETURN JUMPDEST CALLVALUE PUSH2 0x256 JUMPI PUSH1 0x0 CALLDATASIZE PUSH1 0x3 NOT ADD SLT PUSH2 0x256 JUMPI PUSH2 0x16F0 PUSH2 0x1EBF JUMP JUMPDEST PUSH1 0x0 DUP1 SLOAD PUSH1 0x1 PUSH1 0x1 PUSH1 0xA0 SHL SUB NOT DUP2 AND DUP3 SSTORE PUSH1 0x1 PUSH1 0x1 PUSH1 0xA0 SHL SUB AND PUSH32 0x8BE0079C531659141344CD1FD0A4F28419497F9722A3DAAFE3B4186F6B6457E0 DUP3 DUP1 LOG3 STOP JUMPDEST CALLVALUE PUSH2 0x256 JUMPI PUSH1 0x0 CALLDATASIZE PUSH1 0x3 NOT ADD SLT PUSH2 0x256 JUMPI PUSH1 0x20 PUSH1 0x2 SLOAD PUSH1 0x40 MLOAD SWAP1 DUP2 MSTORE RETURN JUMPDEST CALLVALUE PUSH2 0x256 JUMPI PUSH1 0x0 CALLDATASIZE PUSH1 0x3 NOT ADD SLT PUSH2 0x256 JUMPI PUSH1 0x20 PUSH1 0xC SLOAD PUSH1 0x40 MLOAD SWAP1 DUP2 MSTORE RETURN JUMPDEST CALLVALUE PUSH2 0x256 JUMPI PUSH1 0x20 CALLDATASIZE PUSH1 0x3 NOT ADD SLT PUSH2 0x256 JUMPI PUSH1 0x1 PUSH1 0x1 PUSH1 0xA0 SHL SUB PUSH2 0x178D PUSH2 0x1C37 JUMP JUMPDEST AND PUSH1 0x0 MSTORE PUSH1 0xB PUSH1 0x20 MSTORE PUSH1 0x20 PUSH1 0xFF PUSH1 0x40 PUSH1 0x0 KECCAK256 SLOAD AND PUSH1 0x40 MLOAD SWAP1 ISZERO ISZERO DUP2 MSTORE RETURN JUMPDEST CALLVALUE PUSH2 0x256 JUMPI PUSH1 0x40 CALLDATASIZE PUSH1 0x3 NOT ADD SLT PUSH2 0x256 JUMPI PUSH2 0x17C4 PUSH2 0x1C37 JUMP JUMPDEST PUSH1 0x1 PUSH1 0x1 PUSH1 0xA0 SHL SUB AND PUSH1 0x0 SWAP1 DUP2 MSTORE PUSH1 0x8 PUSH1 0x20 MSTORE PUSH1 0x40 SWAP1 KECCAK256 DUP1 SLOAD PUSH1 0x24 CALLDATALOAD SWAP2 SWAP1 DUP3 LT ISZERO PUSH2 0x256 JUMPI PUSH1 0x20 SWAP2 PUSH2 0x1543 SWAP2 PUSH2 0x1DFF JUMP JUMPDEST CALLVALUE PUSH2 0x256 JUMPI PUSH1 0x20 CALLDATASIZE PUSH1 0x3 NOT ADD SLT PUSH2 0x256 JUMPI PUSH2 0x180E PUSH2 0x1C37 JUMP JUMPDEST PUSH2 0x1816 PUSH2 0x1EBF JUMP JUMPDEST PUSH1 0x1 PUSH1 0x1 PUSH1 0xA0 SHL SUB AND PUSH1 0x0 DUP2 DUP2 MSTORE PUSH1 0xB PUSH1 0x20 MSTORE PUSH1 0x40 DUP2 KECCAK256 DUP1 SLOAD PUSH1 0xFF NOT AND SWAP1 SSTORE PUSH32 0x61AB96A9965AD8F38C807D7CF0636F9B6073D66B161B2086791AC6E48C97155C SWAP1 DUP1 LOG2 STOP JUMPDEST CALLVALUE PUSH2 0x256 JUMPI PUSH1 0x20 CALLDATASIZE PUSH1 0x3 NOT ADD SLT PUSH2 0x256 JUMPI PUSH1 0x1 PUSH1 0x1 PUSH1 0xA0 SHL SUB PUSH2 0x187C PUSH2 0x1C37 JUMP JUMPDEST AND PUSH1 0x0 MSTORE PUSH1 0xA PUSH1 0x20 MSTORE PUSH1 0xA0 PUSH1 0x40 PUSH1 0x0 KECCAK256 DUP1 SLOAD SWAP1 PUSH1 0x1 DUP2 ADD SLOAD SWAP1 PUSH1 0x2 DUP2 ADD SLOAD PUSH1 0x4 PUSH1 0x3 DUP4 ADD SLOAD SWAP3 ADD SLOAD SWAP3 PUSH1 0x40 MLOAD SWAP5 DUP6 MSTORE PUSH1 0x20 DUP6 ADD MSTORE PUSH1 0x40 DUP5 ADD MSTORE PUSH1 0x60 DUP4 ADD MSTORE PUSH1 0x80 DUP3 ADD MSTORE RETURN JUMPDEST CALLVALUE PUSH2 0x256 JUMPI PUSH1 0x0 CALLDATASIZE PUSH1 0x3 NOT ADD SLT PUSH2 0x256 JUMPI PUSH1 0x20 PUSH1 0x40 MLOAD PUSH3 0x93A80 DUP2 MSTORE RETURN JUMPDEST CALLVALUE PUSH2 0x256 JUMPI PUSH1 0x0 CALLDATASIZE PUSH1 0x3 NOT ADD SLT PUSH2 0x256 JUMPI PUSH1 0xF SLOAD PUSH1 0x40 MLOAD PUSH1 0x1 PUSH1 0x1 PUSH1 0xA0 SHL SUB SWAP1 SWAP2 AND DUP2 MSTORE PUSH1 0x20 SWAP1 RETURN JUMPDEST CALLVALUE PUSH2 0x256 JUMPI PUSH1 0x0 CALLDATASIZE PUSH1 0x3 NOT ADD SLT PUSH2 0x256 JUMPI PUSH1 0x20 PUSH1 0x3 SLOAD PUSH1 0x40 MLOAD SWAP1 DUP2 MSTORE RETURN JUMPDEST CALLVALUE PUSH2 0x256 JUMPI PUSH1 0x20 DUP1 PUSH1 0x3 NOT CALLDATASIZE ADD SLT PUSH2 0x256 JUMPI PUSH1 0x4 CALLDATALOAD PUSH1 0x0 PUSH1 0xE0 PUSH1 0x40 MLOAD PUSH2 0x194B DUP2 PUSH2 0x1C87 JUMP JUMPDEST DUP3 DUP2 MSTORE DUP3 DUP6 DUP3 ADD MSTORE DUP3 PUSH1 0x40 DUP3 ADD MSTORE DUP3 PUSH1 0x60 DUP3 ADD MSTORE DUP3 PUSH1 0x80 DUP3 ADD MSTORE DUP3 PUSH1 0xA0 DUP3 ADD MSTORE PUSH1 0x60 PUSH1 0xC0 DUP3 ADD MSTORE ADD MSTORE DUP1 ISZERO ISZERO DUP1 PUSH2 0x1AA9 JUMPI JUMPDEST ISZERO PUSH2 0x1A6B JUMPI PUSH1 0x0 MSTORE PUSH1 0x7 DUP2 MSTORE PUSH1 0x40 PUSH1 0x0 KECCAK256 PUSH1 0x40 MLOAD SWAP1 PUSH2 0x199B DUP3 PUSH2 0x1C87 JUMP JUMPDEST DUP1 SLOAD DUP3 MSTORE PUSH1 0x1 DUP2 ADD SLOAD SWAP1 DUP4 DUP4 ADD SWAP2 DUP3 MSTORE PUSH1 0x1 DUP1 PUSH1 0xA0 SHL SUB DUP1 PUSH1 0x2 DUP4 ADD SLOAD AND PUSH1 0x40 DUP6 ADD SWAP1 DUP2 MSTORE PUSH1 0x3 DUP4 ADD SLOAD PUSH1 0x60 DUP7 ADD SWAP1 DUP2 MSTORE PUSH1 0x4 DUP5 ADD SLOAD SWAP1 PUSH1 0x80 DUP8 ADD SWAP2 DUP3 MSTORE PUSH1 0xFF PUSH1 0x5 DUP7 ADD SLOAD AND SWAP4 PUSH1 0xA0 DUP9 ADD SWAP4 PUSH1 0x4 DUP7 LT ISZERO PUSH2 0x844 JUMPI PUSH2 0x1A48 SWAP6 DUP6 MSTORE PUSH1 0x7 PUSH2 0x1A04 PUSH1 0x6 DUP10 ADD PUSH2 0x1CFF JUMP JUMPDEST SWAP8 PUSH1 0xC0 DUP12 ADD SWAP9 DUP10 MSTORE ADD SLOAD SWAP8 PUSH1 0xE0 DUP11 ADD SWAP9 DUP10 MSTORE PUSH1 0x40 MLOAD SWAP11 DUP12 SWAP11 DUP2 DUP13 MSTORE MLOAD SWAP1 DUP12 ADD MSTORE MLOAD PUSH1 0x40 DUP11 ADD MSTORE MLOAD AND PUSH1 0x60 DUP9 ADD MSTORE MLOAD PUSH1 0x80 DUP8 ADD MSTORE MLOAD PUSH1 0xA0 DUP7 ADD MSTORE MLOAD PUSH1 0xC0 DUP6 ADD SWAP1 PUSH2 0x1DF2 JUMP JUMPDEST MLOAD PUSH2 0x1A61 PUSH2 0x100 SWAP2 DUP3 PUSH1 0xE0 DUP7 ADD MSTORE PUSH2 0x120 DUP6 ADD SWAP1 PUSH2 0x1DB2 JUMP JUMPDEST SWAP2 MLOAD SWAP1 DUP4 ADD MSTORE SUB SWAP1 RETURN JUMPDEST PUSH1 0x40 MLOAD PUSH3 0x461BCD PUSH1 0xE5 SHL DUP2 MSTORE PUSH1 0x4 DUP2 ADD DUP4 SWAP1 MSTORE PUSH1 0x16 PUSH1 0x24 DUP3 ADD MSTORE PUSH22 0x14185E5B595B9D08191BD95CC81B9BDD08195E1A5CDD PUSH1 0x52 SHL PUSH1 0x44 DUP3 ADD MSTORE PUSH1 0x64 SWAP1 REVERT JUMPDEST POP PUSH1 0x2 SLOAD DUP2 GT ISZERO PUSH2 0x197D JUMP JUMPDEST CALLVALUE PUSH2 0x256 JUMPI PUSH1 0x20 CALLDATASIZE PUSH1 0x3 NOT ADD SLT PUSH2 0x256 JUMPI PUSH1 0x4 CALLDATALOAD PUSH1 0x0 MSTORE PUSH1 0x6 PUSH1 0x20 MSTORE PUSH1 0x40 PUSH1 0x0 KECCAK256 DUP1 SLOAD PUSH2 0xA0B PUSH1 0x1 DUP4 ADD SLOAD SWAP3 PUSH2 0x1AED PUSH1 0x2 DUP3 ADD PUSH2 0x1CFF JUMP JUMPDEST PUSH1 0xFF PUSH1 0x3 DUP4 ADD SLOAD SWAP3 PUSH1 0x4 DUP2 ADD SLOAD PUSH1 0x5 DUP3 ADD SLOAD SWAP1 PUSH2 0x1B4E PUSH2 0x1B14 PUSH1 0x7 PUSH1 0x6 DUP7 ADD SLOAD SWAP6 ADD PUSH2 0x1CFF JUMP JUMPDEST SWAP6 PUSH2 0x1B3D PUSH1 0x40 MLOAD SWAP12 DUP13 SWAP12 DUP13 MSTORE PUSH1 0x1 DUP1 PUSH1 0xA0 SHL SUB DUP2 AND PUSH1 0x20 DUP14 ADD MSTORE DUP8 PUSH1 0x40 DUP14 ADD SWAP2 PUSH1 0xA0 SHR AND PUSH2 0x1DA5 JUMP JUMPDEST PUSH2 0x140 DUP1 PUSH1 0x60 DUP13 ADD MSTORE DUP11 ADD SWAP1 PUSH2 0x1DB2 JUMP JUMPDEST SWAP6 PUSH1 0x80 DUP10 ADD MSTORE PUSH1 0xA0 DUP9 ADD MSTORE PUSH1 0xC0 DUP8 ADD MSTORE DUP2 DUP2 AND ISZERO ISZERO PUSH1 0xE0 DUP8 ADD MSTORE PUSH1 0x8 SHR AND ISZERO ISZERO PUSH2 0x100 DUP6 ADD MSTORE DUP4 DUP3 SUB PUSH2 0x120 DUP6 ADD MSTORE PUSH2 0x1DB2 JUMP JUMPDEST CALLVALUE PUSH2 0x256 JUMPI PUSH1 0x20 CALLDATASIZE PUSH1 0x3 NOT ADD SLT PUSH2 0x256 JUMPI PUSH2 0x1B9B PUSH2 0x1C37 JUMP JUMPDEST PUSH2 0x1BA3 PUSH2 0x1EBF JUMP JUMPDEST PUSH1 0x1 PUSH1 0x1 PUSH1 0xA0 SHL SUB AND DUP1 ISZERO PUSH2 0x1BF2 JUMPI DUP1 PUSH1 0x0 MSTORE PUSH1 0xB PUSH1 0x20 MSTORE PUSH1 0x40 PUSH1 0x0 KECCAK256 PUSH1 0x1 PUSH1 0xFF NOT DUP3 SLOAD AND OR SWAP1 SSTORE PUSH32 0x30AAD5EC8E5CED8DED7E45959F743DF649DBC96638AA1A73A56BB0C4E25AAB3A PUSH1 0x0 DUP1 LOG2 STOP JUMPDEST PUSH1 0x40 MLOAD PUSH3 0x461BCD PUSH1 0xE5 SHL DUP2 MSTORE PUSH1 0x20 PUSH1 0x4 DUP3 ADD MSTORE PUSH1 0x18 PUSH1 0x24 DUP3 ADD MSTORE PUSH32 0x496E76616C69642070726F766964657220616464726573730000000000000000 PUSH1 0x44 DUP3 ADD MSTORE PUSH1 0x64 SWAP1 REVERT JUMPDEST PUSH1 0x4 CALLDATALOAD SWAP1 PUSH1 0x1 PUSH1 0x1 PUSH1 0xA0 SHL SUB DUP3 AND DUP3 SUB PUSH2 0x256 JUMPI JUMP JUMPDEST SWAP1 PUSH1 0x1 DUP3 DUP2 SHR SWAP3 AND DUP1 ISZERO PUSH2 0x1C7D JUMPI JUMPDEST PUSH1 0x20 DUP4 LT EQ PUSH2 0x1C67 JUMPI JUMP JUMPDEST PUSH4 0x4E487B71 PUSH1 0xE0 SHL PUSH1 0x0 MSTORE PUSH1 0x22 PUSH1 0x4 MSTORE PUSH1 0x24 PUSH1 0x0 REVERT JUMPDEST SWAP2 PUSH1 0x7F AND SWAP2 PUSH2 0x1C5C JUMP JUMPDEST PUSH2 0x100 DUP2 ADD SWAP1 DUP2 LT PUSH8 0xFFFFFFFFFFFFFFFF DUP3 GT OR PUSH2 0x82E JUMPI PUSH1 0x40 MSTORE JUMP JUMPDEST PUSH1 0xA0 DUP2 ADD SWAP1 DUP2 LT PUSH8 0xFFFFFFFFFFFFFFFF DUP3 GT OR PUSH2 0x82E JUMPI PUSH1 0x40 MSTORE JUMP JUMPDEST PUSH2 0x140 DUP2 ADD SWAP1 DUP2 LT PUSH8 0xFFFFFFFFFFFFFFFF DUP3 GT OR PUSH2 0x82E JUMPI PUSH1 0x40 MSTORE JUMP JUMPDEST SWAP1 PUSH1 0x1F DUP1 NOT SWAP2 ADD AND DUP2 ADD SWAP1 DUP2 LT PUSH8 0xFFFFFFFFFFFFFFFF DUP3 GT OR PUSH2 0x82E JUMPI PUSH1 0x40 MSTORE JUMP JUMPDEST SWAP1 PUSH1 0x40 MLOAD SWAP2 DUP3 PUSH1 0x0 DUP3 SLOAD SWAP3 PUSH2 0x1D13 DUP5 PUSH2 0x1C4D JUMP JUMPDEST SWAP1 DUP2 DUP5 MSTORE PUSH1 0x1 SWAP5 DUP6 DUP2 AND SWAP1 DUP2 PUSH1 0x0 EQ PUSH2 0x1D82 JUMPI POP PUSH1 0x1 EQ PUSH2 0x1D3F JUMPI JUMPDEST POP POP PUSH2 0x1D3D SWAP3 POP SUB DUP4 PUSH2 0x1CDD JUMP JUMPDEST JUMP JUMPDEST SWAP1 SWAP4 SWAP2 POP PUSH1 0x0 MSTORE PUSH1 0x20 SWAP1 DUP2 PUSH1 0x0 KECCAK256 SWAP4 PUSH1 0x0 SWAP2 JUMPDEST DUP2 DUP4 LT PUSH2 0x1D6A JUMPI POP POP PUSH2 0x1D3D SWAP4 POP DUP3 ADD ADD CODESIZE DUP1 PUSH2 0x1D2F JUMP JUMPDEST DUP6 SLOAD DUP9 DUP5 ADD DUP6 ADD MSTORE SWAP5 DUP6 ADD SWAP5 DUP8 SWAP5 POP SWAP2 DUP4 ADD SWAP2 PUSH2 0x1D52 JUMP JUMPDEST SWAP2 POP POP PUSH2 0x1D3D SWAP5 POP PUSH1 0x20 SWAP3 POP PUSH1 0xFF NOT AND DUP3 DUP5 ADD MSTORE ISZERO ISZERO PUSH1 0x5 SHL DUP3 ADD ADD CODESIZE DUP1 PUSH2 0x1D2F JUMP JUMPDEST SWAP1 PUSH1 0x8 DUP3 LT ISZERO PUSH2 0x844 JUMPI MSTORE JUMP JUMPDEST SWAP2 SWAP1 DUP3 MLOAD SWAP3 DUP4 DUP3 MSTORE PUSH1 0x0 JUMPDEST DUP5 DUP2 LT PUSH2 0x1DDE JUMPI POP POP DUP3 PUSH1 0x0 PUSH1 0x20 DUP1 SWAP5 SWAP6 DUP5 ADD ADD MSTORE PUSH1 0x1F DUP1 NOT SWAP2 ADD AND ADD ADD SWAP1 JUMP JUMPDEST PUSH1 0x20 DUP2 DUP4 ADD DUP2 ADD MLOAD DUP5 DUP4 ADD DUP3 ADD MSTORE ADD PUSH2 0x1DBD JUMP JUMPDEST SWAP1 PUSH1 0x4 DUP3 LT ISZERO PUSH2 0x844 JUMPI MSTORE JUMP JUMPDEST DUP1 SLOAD DUP3 LT ISZERO PUSH2 0x1E17 JUMPI PUSH1 0x0 MSTORE PUSH1 0x20 PUSH1 0x0 KECCAK256 ADD SWAP1 PUSH1 0x0 SWAP1 JUMP JUMPDEST PUSH4 0x4E487B71 PUSH1 0xE0 SHL PUSH1 0x0 MSTORE PUSH1 0x32 PUSH1 0x4 MSTORE PUSH1 0x24 PUSH1 0x0 REVERT JUMPDEST PUSH1 0x20 SWAP1 DUP2 PUSH1 0x40 DUP2 DUP4 ADD SWAP3 DUP3 DUP2 MSTORE DUP6 MLOAD DUP1 SWAP5 MSTORE ADD SWAP4 ADD SWAP2 PUSH1 0x0 JUMPDEST DUP3 DUP2 LT PUSH2 0x1E54 JUMPI POP POP POP POP SWAP1 JUMP JUMPDEST DUP4 MLOAD DUP6 MSTORE SWAP4 DUP2 ADD SWAP4 SWAP3 DUP2 ADD SWAP3 PUSH1 0x1 ADD PUSH2 0x1E46 JUMP JUMPDEST DUP2 PUSH1 0x1F DUP3 ADD SLT ISZERO PUSH2 0x256 JUMPI DUP1 CALLDATALOAD SWAP1 PUSH8 0xFFFFFFFFFFFFFFFF DUP3 GT PUSH2 0x82E JUMPI PUSH1 0x40 MLOAD SWAP3 PUSH2 0x1E9D PUSH1 0x1F DUP5 ADD PUSH1 0x1F NOT AND PUSH1 0x20 ADD DUP6 PUSH2 0x1CDD JUMP JUMPDEST DUP3 DUP5 MSTORE PUSH1 0x20 DUP4 DUP4 ADD ADD GT PUSH2 0x256 JUMPI DUP2 PUSH1 0x0 SWAP3 PUSH1 0x20 DUP1 SWAP4 ADD DUP4 DUP7 ADD CALLDATACOPY DUP4 ADD ADD MSTORE SWAP1 JUMP JUMPDEST PUSH1 0x0 SLOAD PUSH1 0x1 PUSH1 0x1 PUSH1 0xA0 SHL SUB AND CALLER SUB PUSH2 0x1ED3 JUMPI JUMP JUMPDEST PUSH1 0x64 PUSH1 0x40 MLOAD PUSH3 0x461BCD PUSH1 0xE5 SHL DUP2 MSTORE PUSH1 0x20 PUSH1 0x4 DUP3 ADD MSTORE PUSH1 0x20 PUSH1 0x24 DUP3 ADD MSTORE PUSH32 0x4F776E61626C653A2063616C6C6572206973206E6F7420746865206F776E6572 PUSH1 0x44 DUP3 ADD MSTORE REVERT JUMPDEST ISZERO PUSH2 0x1F1E JUMPI JUMP JUMPDEST PUSH1 0x40 MLOAD PUSH3 0x461BCD PUSH1 0xE5 SHL DUP2 MSTORE PUSH1 0x20 PUSH1 0x4 DUP3 ADD MSTORE PUSH1 0x17 PUSH1 0x24 DUP3 ADD MSTORE PUSH32 0x4E6F7420617574686F72697A65642070726F7669646572000000000000000000 PUSH1 0x44 DUP3 ADD MSTORE PUSH1 0x64 SWAP1 REVERT JUMPDEST PUSH1 0x8 DUP3 LT ISZERO PUSH2 0x844 JUMPI MSTORE JUMP JUMPDEST DUP1 SLOAD PUSH9 0x10000000000000000 DUP2 LT ISZERO PUSH2 0x82E JUMPI PUSH2 0x1F91 SWAP2 PUSH1 0x1 DUP3 ADD DUP2 SSTORE PUSH2 0x1DFF JUMP JUMPDEST DUP2 SWAP3 SWAP2 SLOAD SWAP1 PUSH1 0x3 SHL SWAP2 DUP3 SHL SWAP2 PUSH1 0x0 NOT SWAP1 SHL NOT AND OR SWAP1 SSTORE JUMP JUMPDEST ISZERO PUSH2 0x1FB0 JUMPI JUMP JUMPDEST PUSH1 0x40 MLOAD PUSH3 0x461BCD PUSH1 0xE5 SHL DUP2 MSTORE PUSH1 0x20 PUSH1 0x4 DUP3 ADD MSTORE PUSH1 0x13 PUSH1 0x24 DUP3 ADD MSTORE PUSH19 0x109A5B1B08191BD95CC81B9BDD08195E1A5CDD PUSH1 0x6A SHL PUSH1 0x44 DUP3 ADD MSTORE PUSH1 0x64 SWAP1 REVERT JUMPDEST SWAP1 DUP2 PUSH1 0x20 SWAP2 SUB SLT PUSH2 0x256 JUMPI MLOAD DUP1 ISZERO ISZERO DUP2 SUB PUSH2 0x256 JUMPI SWAP1 JUMP JUMPDEST ISZERO PUSH2 0x200A JUMPI JUMP JUMPDEST PUSH1 0x40 MLOAD PUSH3 0x461BCD PUSH1 0xE5 SHL DUP2 MSTORE PUSH1 0x20 PUSH1 0x4 DUP3 ADD MSTORE PUSH1 0x11 PUSH1 0x24 DUP3 ADD MSTORE PUSH17 0x109A5B1B08185B1C9958591E481C185A59 PUSH1 0x7A SHL PUSH1 0x44 DUP3 ADD MSTORE PUSH1 0x64 SWAP1 REVERT JUMPDEST DUP2 DUP2 MUL SWAP3 SWAP2 DUP2 ISZERO SWAP2 DUP5 DIV EQ OR ISZERO PUSH2 0x2056 JUMPI JUMP JUMPDEST PUSH4 0x4E487B71 PUSH1 0xE0 SHL PUSH1 0x0 MSTORE PUSH1 0x11 PUSH1 0x4 MSTORE PUSH1 0x24 PUSH1 0x0 REVERT JUMPDEST SWAP2 SWAP1 DUP3 SUB SWAP2 DUP3 GT PUSH2 0x2056 JUMPI JUMP JUMPDEST PUSH1 0x0 NOT DUP2 EQ PUSH2 0x2056 JUMPI PUSH1 0x1 ADD SWAP1 JUMP JUMPDEST SWAP2 SWAP1 DUP3 ADD DUP1 SWAP3 GT PUSH2 0x2056 JUMPI JUMP JUMPDEST PUSH2 0x20B0 SWAP1 DUP1 ISZERO ISZERO DUP1 PUSH2 0x20B3 JUMPI JUMPDEST PUSH2 0x20AB SWAP1 PUSH2 0x1FA9 JUMP JUMPDEST PUSH2 0x20BF JUMP JUMPDEST SWAP1 JUMP JUMPDEST POP PUSH1 0x3 SLOAD DUP2 GT ISZERO PUSH2 0x20A2 JUMP JUMPDEST PUSH1 0x0 SWAP1 DUP2 MSTORE PUSH1 0x6 PUSH1 0x20 MSTORE PUSH1 0x40 DUP2 KECCAK256 PUSH1 0x40 MLOAD PUSH2 0x20D9 DUP2 PUSH2 0x1CC0 JUMP JUMPDEST DUP2 SLOAD DUP2 MSTORE PUSH1 0x1 DUP3 ADD SLOAD PUSH1 0x1 PUSH1 0x1 PUSH1 0xA0 SHL SUB DUP2 AND PUSH1 0x20 DUP4 ADD MSTORE PUSH2 0x2104 SWAP1 PUSH1 0xA0 SHR PUSH1 0xFF AND PUSH1 0x40 DUP4 ADD PUSH2 0x1F63 JUMP JUMPDEST PUSH2 0x2110 PUSH1 0x2 DUP4 ADD PUSH2 0x1CFF JUMP JUMPDEST PUSH1 0x60 DUP3 ADD MSTORE PUSH1 0x3 DUP3 ADD SLOAD SWAP1 PUSH1 0x80 DUP2 ADD SWAP2 DUP3 MSTORE PUSH2 0x120 PUSH2 0x2164 PUSH1 0x7 PUSH1 0x4 DUP7 ADD SLOAD SWAP6 PUSH1 0xA0 DUP6 ADD SWAP7 DUP8 MSTORE PUSH1 0x5 DUP2 ADD SLOAD PUSH1 0xC0 DUP7 ADD MSTORE PUSH1 0xFF PUSH1 0x6 DUP3 ADD SLOAD DUP2 DUP2 AND ISZERO ISZERO PUSH1 0xE0 DUP9 ADD MSTORE PUSH1 0x8 SHR AND ISZERO ISZERO PUSH2 0x100 DUP7 ADD MSTORE ADD PUSH2 0x1CFF JUMP JUMPDEST SWAP2 ADD MSTORE DUP2 MLOAD PUSH3 0x278D00 DUP2 ADD DUP1 SWAP2 GT PUSH2 0x21EC JUMPI TIMESTAMP GT PUSH2 0x21E7 JUMPI PUSH1 0x64 PUSH2 0x218C DUP3 MLOAD PUSH1 0xC SLOAD SWAP1 PUSH2 0x2043 JUMP JUMPDEST DIV SWAP3 DUP3 MLOAD SWAP1 PUSH3 0x93A7F NOT DUP3 ADD SWAP2 DUP3 GT PUSH2 0x21D3 JUMPI POP TIMESTAMP GT ISZERO PUSH2 0x21B6 JUMPI POP MLOAD TIMESTAMP GT ISZERO PUSH2 0x20B0 JUMPI PUSH1 0x1 SHR SWAP1 JUMP JUMPDEST PUSH2 0x20B0 SWAP3 SWAP2 POP PUSH2 0x21CC PUSH1 0x64 SWAP2 MLOAD PUSH1 0xD SLOAD SWAP1 PUSH2 0x2043 JUMP JUMPDEST DIV SWAP1 PUSH2 0x2088 JUMP JUMPDEST PUSH4 0x4E487B71 PUSH1 0xE0 SHL DUP2 MSTORE PUSH1 0x11 PUSH1 0x4 MSTORE PUSH1 0x24 SWAP1 REVERT JUMPDEST POP POP SWAP1 JUMP JUMPDEST PUSH4 0x4E487B71 PUSH1 0xE0 SHL DUP5 MSTORE PUSH1 0x11 PUSH1 0x4 MSTORE PUSH1 0x24 DUP5 REVERT INVALID LOG2 PUSH5 0x6970667358 0x22 SLT KECCAK256 SWAP8 DUP14 0xB2 0xAD 0xF8 NOT 0xC5 PUSH26 0x212F1ACBBF93D96EE92B9E8193177FD530AD0987E342A7FE6473 PUSH16 0x6C634300081300330000000000000000 "},"methodIdentifiers":{"EARLY_PAYMENT_THRESHOLD()":"4dee07df","OVERDUE_PENALTY_DAYS()":"99df7612","authorizeProvider(address)":"112ea262","authorizedProviders(address)":"69dc3ae2","bills(uint256)":"28bdcde8","calculateReward(uint256)":"d2d7231f","createBill(address,uint8,string,uint256,uint256,string)":"de65483d","deauthorizeProvider(address)":"673b57e9","earlyPaymentBonus()":"94ed4d3e","emergencyWithdraw()":"db2e21bc","feeRecipient()":"46904840","getBill(uint256)":"b1cd06e6","getPayment(uint256)":"3280a836","getPaymentHistory(address)":"7da2ba7c","getTotalBills()":"3c6fa765","getTotalPayments()":"708f29a6","getUserBills(address)":"e65ef7f5","getUserPayments(address)":"9d7dadeb","markBillOverdue(uint256)":"de8c6568","nexusToken()":"78f337e7","onTimeRewardRate()":"69fcf0f9","owner()":"8da5cb5b","payBill(uint256)":"f0975190","paymentHistories(address)":"53445e22","payments(uint256)":"87d81789","platformFeeRate()":"eeca08f0","profileRegistry()":"c9bb1a48","renounceOwnership()":"715018a6","transferOwnership(address)":"f2fde38b","updateFeeRecipient(address)":"f160d369","updatePlatformFeeRate(uint256)":"ae3b7f06","updateRewardRate(uint256)":"9ef3a261","userBills(address,uint256)":"682ab743","userPayments(address,uint256)":"8cfeab35"}}}}}