{"contracts/ReputationSystem.sol":{"ReputationSystem":{"abi":[{"inputs":[{"internalType":"address","name":"_profileRegistry","type":"address"},{"internalType":"address","name":"_utilityPayment","type":"address"}],"stateMutability":"nonpayable","type":"constructor"},{"anonymous":false,"inputs":[{"indexed":true,"internalType":"address","name":"admin","type":"address"}],"name":"AdminAdded","type":"event"},{"anonymous":false,"inputs":[{"indexed":true,"internalType":"address","name":"admin","type":"address"}],"name":"AdminRemoved","type":"event"},{"anonymous":false,"inputs":[{"indexed":true,"internalType":"address","name":"dao","type":"address"}],"name":"DAOAdded","type":"event"},{"anonymous":false,"inputs":[{"indexed":true,"internalType":"address","name":"dao","type":"address"}],"name":"DAORemoved","type":"event"},{"anonymous":false,"inputs":[{"indexed":true,"internalType":"address","name":"dao","type":"address"},{"indexed":false,"internalType":"uint256","name":"amount","type":"uint256"}],"name":"DAOStaked","type":"event"},{"anonymous":false,"inputs":[{"indexed":true,"internalType":"address","name":"dao","type":"address"},{"indexed":false,"internalType":"uint256","name":"amount","type":"uint256"}],"name":"DAOUnstaked","type":"event"},{"anonymous":false,"inputs":[{"indexed":true,"internalType":"address","name":"previousOwner","type":"address"},{"indexed":true,"internalType":"address","name":"newOwner","type":"address"}],"name":"OwnershipTransferred","type":"event"},{"anonymous":false,"inputs":[{"indexed":true,"internalType":"uint256","name":"proposalId","type":"uint256"},{"indexed":false,"internalType":"enum ReputationSystem.ProposalType","name":"proposalType","type":"uint8"},{"indexed":true,"internalType":"address","name":"proposer","type":"address"},{"indexed":false,"internalType":"string","name":"description","type":"string"}],"name":"ProposalCreated","type":"event"},{"anonymous":false,"inputs":[{"indexed":true,"internalType":"uint256","name":"proposalId","type":"uint256"},{"indexed":false,"internalType":"enum ReputationSystem.ProposalType","name":"proposalType","type":"uint8"}],"name":"ProposalExecuted","type":"event"},{"anonymous":false,"inputs":[{"indexed":true,"internalType":"address","name":"user","type":"address"},{"indexed":false,"internalType":"uint256","name":"newScore","type":"uint256"},{"indexed":false,"internalType":"uint256","name":"newLevel","type":"uint256"}],"name":"ReputationUpdated","type":"event"},{"anonymous":false,"inputs":[{"indexed":true,"internalType":"uint256","name":"proposalId","type":"uint256"},{"indexed":true,"internalType":"address","name":"voter","type":"address"},{"indexed":false,"internalType":"bool","name":"support","type":"bool"},{"indexed":false,"internalType":"uint256","name":"votingPower","type":"uint256"}],"name":"VoteCast","type":"event"},{"inputs":[],"name":"APPROVAL_THRESHOLD","outputs":[{"internalType":"uint256","name":"","type":"uint256"}],"stateMutability":"view","type":"function"},{"inputs":[],"name":"MIN_PROPOSAL_THRESHOLD","outputs":[{"internalType":"uint256","name":"","type":"uint256"}],"stateMutability":"view","type":"function"},{"inputs":[],"name":"QUORUM_THRESHOLD","outputs":[{"internalType":"uint256","name":"","type":"uint256"}],"stateMutability":"view","type":"function"},{"inputs":[],"name":"VOTING_DURATION","outputs":[{"internalType":"uint256","name":"","type":"uint256"}],"stateMutability":"view","type":"function"},{"inputs":[{"internalType":"address","name":"","type":"address"}],"name":"admins","outputs":[{"internalType":"bool","name":"","type":"bool"}],"stateMutability":"view","type":"function"},{"inputs":[{"internalType":"address","name":"_user","type":"address"}],"name":"calculateVotingPower","outputs":[{"internalType":"uint256","name":"","type":"uint256"}],"stateMutability":"view","type":"function"},{"inputs":[],"name":"communityWeight","outputs":[{"internalType":"uint256","name":"","type":"uint256"}],"stateMutability":"view","type":"function"},{"inputs":[{"internalType":"enum ReputationSystem.ProposalType","name":"_proposalType","type":"uint8"},{"internalType":"address","name":"_targetAddress","type":"address"},{"internalType":"string","name":"_description","type":"string"},{"internalType":"string","name":"_metadata","type":"string"}],"name":"createProposal","outputs":[{"internalType":"uint256","name":"","type":"uint256"}],"stateMutability":"nonpayable","type":"function"},{"inputs":[{"internalType":"address","name":"","type":"address"}],"name":"daoStakes","outputs":[{"internalType":"uint256","name":"","type":"uint256"}],"stateMutability":"view","type":"function"},{"inputs":[{"internalType":"address","name":"","type":"address"}],"name":"daos","outputs":[{"internalType":"bool","name":"","type":"bool"}],"stateMutability":"view","type":"function"},{"inputs":[{"internalType":"uint256","name":"_proposalId","type":"uint256"}],"name":"executeProposal","outputs":[],"stateMutability":"nonpayable","type":"function"},{"inputs":[{"internalType":"uint256","name":"_proposalId","type":"uint256"}],"name":"getProposal","outputs":[{"internalType":"uint256","name":"id","type":"uint256"},{"internalType":"enum ReputationSystem.ProposalType","name":"proposalType","type":"uint8"},{"internalType":"address","name":"proposer","type":"address"},{"internalType":"address","name":"targetAddress","type":"address"},{"internalType":"string","name":"description","type":"string"},{"internalType":"string","name":"metadata","type":"string"},{"internalType":"uint256","name":"votesFor","type":"uint256"},{"internalType":"uint256","name":"votesAgainst","type":"uint256"},{"internalType":"uint256","name":"startTime","type":"uint256"},{"internalType":"uint256","name":"endTime","type":"uint256"},{"internalType":"enum ReputationSystem.ProposalStatus","name":"status","type":"uint8"},{"internalType":"bool","name":"executed","type":"bool"}],"stateMutability":"view","type":"function"},{"inputs":[{"internalType":"address","name":"_user","type":"address"}],"name":"getReputationMetrics","outputs":[{"components":[{"internalType":"uint256","name":"profileScore","type":"uint256"},{"internalType":"uint256","name":"paymentScore","type":"uint256"},{"internalType":"uint256","name":"communityScore","type":"uint256"},{"internalType":"uint256","name":"totalScore","type":"uint256"},{"internalType":"uint256","name":"lastUpdated","type":"uint256"},{"internalType":"uint256","name":"level","type":"uint256"}],"internalType":"struct ReputationSystem.ReputationMetrics","name":"","type":"tuple"}],"stateMutability":"view","type":"function"},{"inputs":[],"name":"getTotalProposals","outputs":[{"internalType":"uint256","name":"","type":"uint256"}],"stateMutability":"view","type":"function"},{"inputs":[],"name":"getTotalStake","outputs":[{"internalType":"uint256","name":"","type":"uint256"}],"stateMutability":"view","type":"function"},{"inputs":[],"name":"owner","outputs":[{"internalType":"address","name":"","type":"address"}],"stateMutability":"view","type":"function"},{"inputs":[],"name":"paymentWeight","outputs":[{"internalType":"uint256","name":"","type":"uint256"}],"stateMutability":"view","type":"function"},{"inputs":[],"name":"profileRegistry","outputs":[{"internalType":"contract ProfileRegistry","name":"","type":"address"}],"stateMutability":"view","type":"function"},{"inputs":[],"name":"profileWeight","outputs":[{"internalType":"uint256","name":"","type":"uint256"}],"stateMutability":"view","type":"function"},{"inputs":[{"internalType":"uint256","name":"","type":"uint256"}],"name":"proposals","outputs":[{"internalType":"uint256","name":"id","type":"uint256"},{"internalType":"enum ReputationSystem.ProposalType","name":"proposalType","type":"uint8"},{"internalType":"address","name":"proposer","type":"address"},{"internalType":"address","name":"targetAddress","type":"address"},{"internalType":"string","name":"description","type":"string"},{"internalType":"string","name":"metadata","type":"string"},{"internalType":"uint256","name":"votesFor","type":"uint256"},{"internalType":"uint256","name":"votesAgainst","type":"uint256"},{"internalType":"uint256","name":"startTime","type":"uint256"},{"internalType":"uint256","name":"endTime","type":"uint256"},{"internalType":"enum ReputationSystem.ProposalStatus","name":"status","type":"uint8"},{"internalType":"bool","name":"executed","type":"bool"}],"stateMutability":"view","type":"function"},{"inputs":[],"name":"renounceOwnership","outputs":[],"stateMutability":"nonpayable","type":"function"},{"inputs":[{"internalType":"uint256","name":"","type":"uint256"}],"name":"reputationLevels","outputs":[{"internalType":"uint256","name":"","type":"uint256"}],"stateMutability":"view","type":"function"},{"inputs":[{"internalType":"address","name":"","type":"address"}],"name":"reputationMetrics","outputs":[{"internalType":"uint256","name":"profileScore","type":"uint256"},{"internalType":"uint256","name":"paymentScore","type":"uint256"},{"internalType":"uint256","name":"communityScore","type":"uint256"},{"internalType":"uint256","name":"totalScore","type":"uint256"},{"internalType":"uint256","name":"lastUpdated","type":"uint256"},{"internalType":"uint256","name":"level","type":"uint256"}],"stateMutability":"view","type":"function"},{"inputs":[{"internalType":"uint256","name":"_amount","type":"uint256"}],"name":"stakeAsDAO","outputs":[],"stateMutability":"payable","type":"function"},{"inputs":[{"internalType":"address","name":"newOwner","type":"address"}],"name":"transferOwnership","outputs":[],"stateMutability":"nonpayable","type":"function"},{"inputs":[{"internalType":"uint256","name":"_amount","type":"uint256"}],"name":"unstakeAsDAO","outputs":[],"stateMutability":"nonpayable","type":"function"},{"inputs":[{"internalType":"address","name":"_user","type":"address"}],"name":"updateReputationMetrics","outputs":[],"stateMutability":"nonpayable","type":"function"},{"inputs":[{"internalType":"uint256","name":"_profileWeight","type":"uint256"},{"internalType":"uint256","name":"_paymentWeight","type":"uint256"},{"internalType":"uint256","name":"_communityWeight","type":"uint256"}],"name":"updateScoringWeights","outputs":[],"stateMutability":"nonpayable","type":"function"},{"inputs":[],"name":"utilityPayment","outputs":[{"internalType":"contract UtilityPayment","name":"","type":"address"}],"stateMutability":"view","type":"function"},{"inputs":[{"internalType":"uint256","name":"_proposalId","type":"uint256"},{"internalType":"bool","name":"_support","type":"bool"}],"name":"vote","outputs":[],"stateMutability":"nonpayable","type":"function"}],"evm":{"bytecode":{"linkReferences":{},"object":"608034620001e65762002718906001600160401b0390601f38849003908101601f191682019083821183831017620001eb5780839160409687948552833981010312620001e657620000518162000201565b9062000061602080920162000201565b600080546001600160a01b0319808216339081178455929590936001600160a01b0393909284167f8be0079c531659141344cd1fd0a4f28419497f9722a3daafe3b4186f6b6457e08880a3600196878055600a90601e82556028600b55601e600c5589519061014082019082821090821117620001d2578a526064815260c88782015261015e8a8201526101f460608201526102bc608082015261038460a08201526104b060c08201526105dc60e08201526107d06101008201526109c4610120820152600d5482600d55808310620001a7575b50908996949297959391600d87528587208a885b8481106200018d575050505050816008959697168360035416176003551690600454161760045533835252209060ff19825416179055516125019081620002178239f35b835161ffff16838201558d9a50928801928c910162000149565b600d89528983898b2092830192015b828110620001c657505062000135565b8a8155018a90620001b6565b634e487b7160e01b89526041600452602489fd5b600080fd5b634e487b7160e01b600052604160045260246000fd5b51906001600160a01b0382168203620001e65756fe6080604052600436101561001257600080fd5b6000803560e01c8063013cf08b14611c82578063084346e51461183c5780630d61b519146111035780631a5007dd146110e55780631ee8181c146110175780633ab3429014610ffb578063409294a114610fd2578063429b62e514610f93578063548aa6d614610f7557806359d177e614610f515780635e510b6014610f355780636277f6c614610ea757806366b3bd5a14610de95780636dc918d014610db0578063715018a614610d56578063791f5d2314610d395780637bc7422514610d16578063858fe17914610ca55780638da5cb5b14610c7e57806390e0805614610c60578063942b23da14610c27578063a06b921a14610c09578063a438d20814610beb578063c25f3cf614610bac578063c7f758a814610afc578063c9bb1a4814610ad3578063c9d27afe14610864578063e2aa436b14610347578063f2fde38b1461027c5763fdee50dd1461016757600080fd5b346102795760208060031936011261027557600435903383526007815261019460ff6040852054166123db565b81156101a08115612413565b338452600982528260408520541061023b573384526009825260408420805490848203918211610227575583908190849061021d575b8280929181923390f115610212577fdae29c2efa110cad2b7ec84a38f9604b9b432122831966c54e1bef01ed55b6eb906040519283523392a280f35b6040513d84823e3d90fd5b6108fc91506101d6565b634e487b7160e01b86526011600452602486fd5b60405162461bcd60e51b8152600481018390526012602482015271496e73756666696369656e74207374616b6560701b6044820152606490fd5b5080fd5b80fd5b503461027957602036600319011261027957610296611f51565b61029e612017565b6001600160a01b039081169081156102f357600054826bffffffffffffffffffffffff60a01b821617600055167f8be0079c531659141344cd1fd0a4f28419497f9722a3daafe3b4186f6b6457e0600080a380f35b60405162461bcd60e51b815260206004820152602660248201527f4f776e61626c653a206e6577206f776e657220697320746865207a65726f206160448201526564647265737360d01b6064820152608490fd5b50346102795760803660031901126102795760076004351015610279576001600160a01b03602435818116929083900361085f5760443567ffffffffffffffff81116102755761039b903690600401611fd0565b9060643567ffffffffffffffff81116102755760206103c06024923690600401611fd0565b94600354166040519283809263b9209e3360e01b82523360048301525afa8015610212578290610824575b6103f5915061207c565b6103fd6120df565b33815260066020526103e86040822060405161041881611d78565b81548152600182015460208201526002820154604082015260a06005600384015493846060850152600481015460808501520154910152106107cc578151156107875760028054600190810180835580845260056020526040842081815591820180546001600160a81b03191660043560ff16173360081b610100600160a81b031617905591810180546001600160a01b031916909617909555825190939067ffffffffffffffff81116106ba576104d36003870154611d14565b601f8111610743575b50806020601f82116001146106d95784916106ce575b508160011b916000199060031b1c19161760038601555b80519067ffffffffffffffff82116106ba57819061052a6004880154611d14565b601f811161066a575b50602090601f83116001146106005784926105f5575b50508160011b916000199060031b1c19161760048501555b42600785015562093a804201908142116105e1575083600991600860209601550161ffff198154169055817f2fa4d1bc9ff8794eac01702cd7a1e2321b00783a0bfd55d3e40e25bd3448b72f6040516105bc81600435611e5c565b604086820152806105d233956040830190611ea2565b0390a360018055604051908152f35b634e487b7160e01b81526011600452602490fd5b015190503880610549565b600488018552602085209250601f198416855b8181106106525750908460019594939210610639575b505050811b016004850155610561565b015160001960f88460031b161c19169055388080610629565b92936020600181928786015181550195019301610613565b90915060048701845260208420601f840160051c8101602085106106b3575b90849392915b601f830160051c820181106106a5575050610533565b86815585945060010161068f565b5080610689565b634e487b7160e01b83526041600452602483fd5b9050840151386104f2565b91506003870184526020842084925b601f198316841061072b576001935082601f19811610610712575b5050811b016003860155610509565b86015160001960f88460031b161c191690553880610703565b868101518255602093840193600190920191016106e8565b60038701845260208420601f830160051c810160208410610780575b601f830160051c820181106107755750506104dc565b85815560010161075f565b508061075f565b60405162461bcd60e51b815260206004820152601b60248201527f4465736372697074696f6e2063616e6e6f7420626520656d70747900000000006044820152606490fd5b60405162461bcd60e51b815260206004820152602a60248201527f496e73756666696369656e742072657075746174696f6e20746f20637265617460448201526919481c1c9bdc1bdcd85b60b21b6064820152608490fd5b506020813d602011610857575b8161083e60209383611d94565b81010312610275576108526103f59161206f565b6103eb565b3d9150610831565b600080fd5b503461027957604036600319011261027957602480358015159160043591838103610acf5782151580610ac3575b61089b90612135565b60035460405163b9209e3360e01b81523360048201526020929183908290869082906001600160a01b03165afa8015610ab8578790610a7e575b6108df915061207c565b6108e76120df565b83865260058252604086209060ff6009830154166004811015610a6b5761090e9015612181565b60088201544211610a3157600a82013360005280845260ff604060002054166109fd5761093a336121d6565b9485156109c857503360005283526040600020600160ff19825416179055600b82018352836040600020556000146109b35760050161097a8382546120bc565b90555b6040519384528301527fcbdf6214089cba887ecbf35a0b6a734589959c9763342c756bb2a80ca2bc9f6e60403393a36001805580f35b6006016109c18382546120bc565b905561097d565b84600f6064926040519262461bcd60e51b845260048401528201526e2737903b37ba34b733903837bbb2b960891b6044820152fd5b60405162461bcd60e51b815260048101859052600d818701526c105b1c9958591e481d9bdd1959609a1b6044820152606490fd5b60405162461bcd60e51b81526004810184905260138186015272159bdd1a5b99c81c195c9a5bd908195b991959606a1b6044820152606490fd5b634e487b7160e01b885260216004528488fd5b508281813d8311610ab1575b610a948183611d94565b81010312610aad57610aa86108df9161206f565b6108d5565b8680fd5b503d610a8a565b6040513d89823e3d90fd5b50600254831115610892565b8480fd5b50346102795780600319360112610279576003546040516001600160a01b039091168152602090f35b50346102795760203660031901126102795760409060043580151580610ba0575b610b2690612135565b81526005602052208054610b9c60018301549260018060a01b038060028301541660058301546006840154600785015491600886015493600987015496610b7b6004610b7460038401611db6565b9201611db6565b916040519b8c9b60ff80808d60081c169c169a8360081c169216908d611ec7565b0390f35b50600254811115610b1d565b50346102795760203660031901126102795760209060ff906040906001600160a01b03610bd7611f51565b168152600784522054166040519015158152f35b5034610279578060031936011261027957602060405162093a808152f35b50346102795780600319360112610279576020600b54604051908152f35b50346102795760203660031901126102795760043590600d54821015610279576020610c5283611f67565b90546040519160031b1c8152f35b50346102795780600319360112610279576020600a54604051908152f35b5034610279578060031936011261027957546040516001600160a01b039091168152602090f35b50346102795760203660031901126102795760c0906040906001600160a01b03610ccd611f51565b16815260066020522080549060018101549060028101546003820154906005600484015493015493604051958652602086015260408501526060840152608083015260a0820152f35b50346102795780600319360112610279576020610d3161245f565b604051908152f35b503461027957806003193601126102795760206040516103e88152f35b5034610279578060031936011261027957610d6f612017565b600080546001600160a01b0319811682556001600160a01b03167f8be0079c531659141344cd1fd0a4f28419497f9722a3daafe3b4186f6b6457e08280a380f35b5034610279576020366003190112610279576020906040906001600160a01b03610dd8611f51565b168152600983522054604051908152f35b506020366003190112610279576004353382526007602052610e1160ff6040842054166123db565b610e1c811515612413565b803410610e6b57338252600960205260408220610e3a8282546120bc565b90556040519081527f1c32cfe23625ce0c2f6f6a39fbcafcdf54205ab0eab80d7e8e71389d1e321ef660203392a280f35b60405162461bcd60e51b8152602060048201526014602482015273125b9cdd59999a58da595b9d081c185e5b595b9d60621b6044820152606490fd5b503461027957606036600319011261027957604435602435600435610eca612017565b6064610edf84610eda85856120bc565b6120bc565b03610ef057600a55600b55600c5580f35b60405162461bcd60e51b815260206004820152601760248201527f57656967687473206d7573742073756d20746f203130300000000000000000006044820152606490fd5b50346102795780600319360112610279576020604051601e8152f35b5034610279576020366003190112610279576020610d31610f70611f51565b6121d6565b50346102795780600319360112610279576020600c54604051908152f35b50346102795760203660031901126102795760209060ff906040906001600160a01b03610fbe611f51565b168152600884522054166040519015158152f35b50346102795780600319360112610279576004546040516001600160a01b039091168152602090f35b50346102795780600319360112610279576020604051603c8152f35b503461027957602036600319011261027957604060c091611036611f51565b8160a0845161104481611d78565b8281528260208201528286820152826060820152826080820152015260018060a01b0316815260066020522060405161107c81611d78565b8154918282526001810154602083019081526002820154604084019081526003830154916060850192835260a0600560048601549560808801968752015495019485526040519586525160208601525160408501525160608401525160808301525160a0820152f35b50346102795780600319360112610279576020600254604051908152f35b503461027957602080600319360112610275576004359081151580611830575b61112c90612135565b6111346120df565b81835260058152604083209060098201805460ff8116600481101561181c5761115d9015612181565b60088401544211156117d75760ff8160081c166117925760058401546111876006860154826120bc565b61118f61245f565b601e810290808204601e149015171561177e5760649004811061174857603c810290808204603c149015171561173457606490041015611722575061010161ffff19825416179055600182019160ff835416600781101561170e57859190806112ea5750600354600291909101546040516301c045f160e21b81526001600160a01b0391821660048201529116908381602481855afa9081156112df5783916112ae575b50813b156112aa578291602483926040519485938492630f4c44a360e21b845260048401525af1801561021257611292575b505060ff6000805160206124ac833981519152925b54166112896040518092611e5c565ba25b6001805580f35b61129b90611d4e565b6112a6578338611265565b8380fd5b8280fd5b809350848092503d83116112d8575b6112c78183611d94565b8101031261085f5785915138611233565b503d6112bd565b6040513d85823e3d90fd5b600181036113c35750600354600291909101546040516301c045f160e21b81526001600160a01b0391821660048201529116908381602481855afa9081156112df578391611392575b50813b156112aa57829160248392604051948593849263ce93b52760e01b845260048401525af180156102125761137e575b505060ff6000805160206124ac8339815191529261127a565b61138790611d4e565b6112a6578338611365565b809350848092503d83116113bc575b6113ab8183611d94565b8101031261085f5785915138611333565b503d6113a1565b90939150600281036114925750600354600290930180546001600160a01b03948791908616908616813b156112aa578291602483926040519485938492637048027560e01b845260048401525af1801561021257611476575b50508054841686526008835260408620805460ff19166001179055546000805160206124ac8339815191529360ff9291167f44d6d25963f097ad14f29f06854a01f575648a1ef82f30e562ccd3889717e3398780a261127a565b61148290939293611d4e565b61148e5790853861141c565b8580fd5b600381036115565750600354600290930180546001600160a01b03948791908616908616813b156112aa5782916024839260405194859384926305e17d4f60e21b845260048401525af180156102125761153e575b50508054841686526008835260408620805460ff19169055546000805160206124ac8339815191529360ff9291167fa3b62bc36326052d97ea62d63c3d60308ed4c3ea8ac079dd8499f1e9c4f80c0f8780a261127a565b61154a90939293611d4e565b61148e579085386114e7565b6004810361161d5750600354600290930180546001600160a01b03948791908616908616813b156112aa578291602483926040519485938492636c15370360e11b845260048401525af1801561021257611605575b50508054841686526007835260408620805460ff19166001179055546000805160206124ac8339815191529360ff9291167fc251ff2b0da987a4cc8f48505264a6637c9d9d0f04a579d164aecc63963ee8228780a261127a565b61161190939293611d4e565b61148e579085386115ab565b91929091600514611642575b509060ff6000805160206124ac8339815191529261127a565b600354600290910180546001600160a01b039287918416908416803b156112aa57602483926040519485938492637c897de560e11b845260048401525af18015610ab8576116e4575b5091818360ff936000805160206124ac83398151915296955416885260078552604088208419815416905554167fac29b2a542253bf4ca97f2427146ea9e117dfafc4c76a839c32641462d7ebef78780a2919250611629565b916000805160206124ac8339815191529493919661170360ff94611d4e565b96919394509161168b565b634e487b7160e01b86526021600452602486fd5b60ff191660021790555061128b915050565b634e487b7160e01b88526011600452602488fd5b60405162461bcd60e51b815260048101869052600e60248201526d145d5bdc9d5b481b9bdd081b595d60921b6044820152606490fd5b634e487b7160e01b89526011600452602489fd5b60405162461bcd60e51b815260048101849052601960248201527f50726f706f73616c20616c7265616479206578656375746564000000000000006044820152606490fd5b60405162461bcd60e51b815260048101849052601760248201527f566f74696e6720706572696f64206e6f7420656e6465640000000000000000006044820152606490fd5b634e487b7160e01b87526021600452602487fd5b50600254821115611123565b50346102795760208060031936011261027557611857611f51565b60035460405163b9209e3360e01b81526001600160a01b03928316600482018190529392918216919060249084818381875afa8015610ab8578790611c4c575b6118a1915061207c565b848652600684528086604081209460405192838092631335a56760e21b82528a60048301525afa8015610ab8578790611b15575b610120915001518084558160a0846004541660405192838092631f68ae9f60e21b82528b60048301525afa8015611b0a578890611a78575b61191791506122bb565b91600193838587015588948091600254925b8a8c848c87851115611a2d575050505050505b818111156119d65750505082606461199c6119a387958361199c816119916119ad997f5b88a2e3fc1a53234357ab78c104df11c33ccfa79886793654565ad70b8afb6e9e9c600260409f0155600a54906121c3565b0492600b54906121c3565b04906120bc565b92600c54906121c3565b918260038301556119bd8361238b565b918260058201556004429101558351928352820152a280f35b808a5260058852600a8060408c20018a8c52895260ff60408c205416611a06575b50611a019061237c565b61193c565b86919601809111611a1a5794611a016119f7565b634e487b7160e01b8a526011600452828afd5b826005604092878996525220015460081c1614611a53575b611a4e9061237c565b611929565b9660328101809111611a655796611a45565b634e487b7160e01b8c526011600452848cfd5b5060a0813d8211611b02575b81611a9160a09383611d94565b81010312611afe576040519060a0820182811067ffffffffffffffff821117611aeb57611917929160809160405280518352888101518984015260408101516040840152606081015160608401520151608082015261190d565b634e487b7160e01b8a526041600452848afd5b8780fd5b3d9150611a84565b6040513d8a823e3d90fd5b503d8088833e611b258183611d94565b81018582820312611afe57815167ffffffffffffffff92838211611c31570191610160918284820312611c315760405192830183811083821117611c395760405283518352611b75888501612265565b888401526040840151828111611c355781611b91918601612279565b60408401526060840151828111611c355781611bae918601612279565b60608401526080840151918211611c3157611bca918401612279565b608082015260a0820151916004831015611c2d576101209260a083015260c081015160c083015260e081015160e0830152610100611c09818301612265565b90830152828082015190830152611c2461014080920161206f565b908201526118d5565b8880fd5b8980fd5b8a80fd5b634e487b7160e01b8b526041600452858bfd5b508481813d8311611c7b575b611c628183611d94565b81010312610aad57611c766118a19161206f565b611897565b503d611c58565b50346102795760203660031901126102795760043581526005602052604090208054600182015460028301549092610b9c916001600160a01b0390811691611ccc60038201611db6565b611cd860048301611db6565b600583015460068401549160078501549360096008870154960154976040519b8c9b60ff80808d60081c169c169a8360081c169216908d611ec7565b90600182811c92168015611d44575b6020831014611d2e57565b634e487b7160e01b600052602260045260246000fd5b91607f1691611d23565b67ffffffffffffffff8111611d6257604052565b634e487b7160e01b600052604160045260246000fd5b60c0810190811067ffffffffffffffff821117611d6257604052565b90601f8019910116810190811067ffffffffffffffff821117611d6257604052565b9060405191826000825492611dca84611d14565b908184526001948581169081600014611e395750600114611df6575b5050611df492500383611d94565b565b9093915060005260209081600020936000915b818310611e21575050611df493508201013880611de6565b85548884018501529485019487945091830191611e09565b915050611df494506020925060ff191682840152151560051b8201013880611de6565b906007821015611e695752565b634e487b7160e01b600052602160045260246000fd5b60005b838110611e925750506000910152565b8181015183820152602001611e82565b90602091611ebb81518092818552858086019101611e7f565b601f01601f1916010190565b9a99979593611eea611f209693989e9d9a9860208e611f12979581520190611e5c565b6001600160a01b0391821660408d01521660608b015261018060808b018190528a0190611ea2565b9088820360a08a0152611ea2565b9760c087015260e08601526101008501526101208401526004821015611e6957610160916101408401521515910152565b600435906001600160a01b038216820361085f57565b600d54811015611f9e57600d6000527fd7b6990105719101dabeb77144f2a3385c8033acd3af97e9423a695e81ad1eb50190600090565b634e487b7160e01b600052603260045260246000fd5b67ffffffffffffffff8111611d6257601f01601f191660200190565b81601f8201121561085f57803590611fe782611fb4565b92611ff56040519485611d94565b8284526020838301011161085f57816000926020809301838601378301015290565b6000546001600160a01b0316330361202b57565b606460405162461bcd60e51b815260206004820152602060248201527f4f776e61626c653a2063616c6c6572206973206e6f7420746865206f776e65726044820152fd5b5190811515820361085f57565b1561208357565b60405162461bcd60e51b8152602060048201526011602482015270155cd95c881b9bdd081d995c9a599a5959607a1b6044820152606490fd5b919082018092116120c957565b634e487b7160e01b600052601160045260246000fd5b6002600154146120f0576002600155565b60405162461bcd60e51b815260206004820152601f60248201527f5265656e7472616e637947756172643a207265656e7472616e742063616c6c006044820152606490fd5b1561213c57565b60405162461bcd60e51b815260206004820152601760248201527f50726f706f73616c20646f6573206e6f742065786973740000000000000000006044820152606490fd5b1561218857565b60405162461bcd60e51b815260206004820152601360248201527250726f706f73616c206e6f742061637469766560681b6044820152606490fd5b818102929181159184041417156120c957565b6001600160a01b03166000818152600660205260409081902090516121fa81611d78565b81548152600182015460208201526002820154604082015260a060056003840154938460608501526004810154608085015201549101528091600052600760205260ff6040600020541661224c575090565b61226291506009602052604060002054906120bc565b90565b51906001600160a01b038216820361085f57565b81601f8201121561085f57805161228f81611fb4565b9261229d6040519485611d94565b8184526020828401011161085f576122629160208085019101611e7f565b8051156123765760208101516064810290808204606414901517156120c957815190811561236057049051600a810291818304600a14821517156120c957605a8110612317575060140290808204600214901517156120c95790565b6050811061233a57506105dc0290808204609614901517156120c9576064900490565b60461115612346575090565b6104b00290808204607814901517156120c9576064900490565b634e487b7160e01b600052601260045260246000fd5b50600090565b60001981146120c95760010190565b60008091600d54925b8381106123a45750505050600a90565b6123ad81611f67565b90549060031b1c82106123c8576123c39061237c565b612394565b80935060019150018092116105e1575090565b156123e257565b60405162461bcd60e51b81526020600482015260096024820152684e6f7420612044414f60b81b6044820152606490fd5b1561241a57565b60405162461bcd60e51b815260206004820152601d60248201527f416d6f756e74206d7573742062652067726561746572207468616e20300000006044820152606490fd5b6000806001906002545b808311156124775750505090565b9091926103e8810180911161249757612490909361237c565b9190612469565b634e487b7160e01b83526011600452602483fdfe5b9614f21773d68c0b149bda804ff3d491c8bc8795f7ed236cc97804cd005389a26469706673582212205fb03d539657147291b2f6276be6c1b42096517f62a693f86087ef0373628d8c64736f6c63430008130033","opcodes":"PUSH1 0x80 CALLVALUE PUSH3 0x1E6 JUMPI PUSH3 0x2718 SWAP1 PUSH1 0x1 PUSH1 0x1 PUSH1 0x40 SHL SUB SWAP1 PUSH1 0x1F CODESIZE DUP5 SWAP1 SUB SWAP1 DUP2 ADD PUSH1 0x1F NOT AND DUP3 ADD SWAP1 DUP4 DUP3 GT DUP4 DUP4 LT OR PUSH3 0x1EB JUMPI DUP1 DUP4 SWAP2 PUSH1 0x40 SWAP7 DUP8 SWAP5 DUP6 MSTORE DUP4 CODECOPY DUP2 ADD SUB SLT PUSH3 0x1E6 JUMPI PUSH3 0x51 DUP2 PUSH3 0x201 JUMP JUMPDEST SWAP1 PUSH3 0x61 PUSH1 0x20 DUP1 SWAP3 ADD PUSH3 0x201 JUMP JUMPDEST PUSH1 0x0 DUP1 SLOAD PUSH1 0x1 PUSH1 0x1 PUSH1 0xA0 SHL SUB NOT DUP1 DUP3 AND CALLER SWAP1 DUP2 OR DUP5 SSTORE SWAP3 SWAP6 SWAP1 SWAP4 PUSH1 0x1 PUSH1 0x1 PUSH1 0xA0 SHL SUB SWAP4 SWAP1 SWAP3 DUP5 AND PUSH32 0x8BE0079C531659141344CD1FD0A4F28419497F9722A3DAAFE3B4186F6B6457E0 DUP9 DUP1 LOG3 PUSH1 0x1 SWAP7 DUP8 DUP1 SSTORE PUSH1 0xA SWAP1 PUSH1 0x1E DUP3 SSTORE PUSH1 0x28 PUSH1 0xB SSTORE PUSH1 0x1E PUSH1 0xC SSTORE DUP10 MLOAD SWAP1 PUSH2 0x140 DUP3 ADD SWAP1 DUP3 DUP3 LT SWAP1 DUP3 GT OR PUSH3 0x1D2 JUMPI DUP11 MSTORE PUSH1 0x64 DUP2 MSTORE PUSH1 0xC8 DUP8 DUP3 ADD MSTORE PUSH2 0x15E DUP11 DUP3 ADD MSTORE PUSH2 0x1F4 PUSH1 0x60 DUP3 ADD MSTORE PUSH2 0x2BC PUSH1 0x80 DUP3 ADD MSTORE PUSH2 0x384 PUSH1 0xA0 DUP3 ADD MSTORE PUSH2 0x4B0 PUSH1 0xC0 DUP3 ADD MSTORE PUSH2 0x5DC PUSH1 0xE0 DUP3 ADD MSTORE PUSH2 0x7D0 PUSH2 0x100 DUP3 ADD MSTORE PUSH2 0x9C4 PUSH2 0x120 DUP3 ADD MSTORE PUSH1 0xD SLOAD DUP3 PUSH1 0xD SSTORE DUP1 DUP4 LT PUSH3 0x1A7 JUMPI JUMPDEST POP SWAP1 DUP10 SWAP7 SWAP5 SWAP3 SWAP8 SWAP6 SWAP4 SWAP2 PUSH1 0xD DUP8 MSTORE DUP6 DUP8 KECCAK256 DUP11 DUP9 JUMPDEST DUP5 DUP2 LT PUSH3 0x18D JUMPI POP POP POP POP POP DUP2 PUSH1 0x8 SWAP6 SWAP7 SWAP8 AND DUP4 PUSH1 0x3 SLOAD AND OR PUSH1 0x3 SSTORE AND SWAP1 PUSH1 0x4 SLOAD AND OR PUSH1 0x4 SSTORE CALLER DUP4 MSTORE MSTORE KECCAK256 SWAP1 PUSH1 0xFF NOT DUP3 SLOAD AND OR SWAP1 SSTORE MLOAD PUSH2 0x2501 SWAP1 DUP2 PUSH3 0x217 DUP3 CODECOPY RETURN JUMPDEST DUP4 MLOAD PUSH2 0xFFFF AND DUP4 DUP3 ADD SSTORE DUP14 SWAP11 POP SWAP3 DUP9 ADD SWAP3 DUP13 SWAP2 ADD PUSH3 0x149 JUMP JUMPDEST PUSH1 0xD DUP10 MSTORE DUP10 DUP4 DUP10 DUP12 KECCAK256 SWAP3 DUP4 ADD SWAP3 ADD JUMPDEST DUP3 DUP2 LT PUSH3 0x1C6 JUMPI POP POP PUSH3 0x135 JUMP JUMPDEST DUP11 DUP2 SSTORE ADD DUP11 SWAP1 PUSH3 0x1B6 JUMP JUMPDEST PUSH4 0x4E487B71 PUSH1 0xE0 SHL DUP10 MSTORE PUSH1 0x41 PUSH1 0x4 MSTORE PUSH1 0x24 DUP10 REVERT JUMPDEST PUSH1 0x0 DUP1 REVERT JUMPDEST PUSH4 0x4E487B71 PUSH1 0xE0 SHL PUSH1 0x0 MSTORE PUSH1 0x41 PUSH1 0x4 MSTORE PUSH1 0x24 PUSH1 0x0 REVERT JUMPDEST MLOAD SWAP1 PUSH1 0x1 PUSH1 0x1 PUSH1 0xA0 SHL SUB DUP3 AND DUP3 SUB PUSH3 0x1E6 JUMPI JUMP INVALID PUSH1 0x80 PUSH1 0x40 MSTORE PUSH1 0x4 CALLDATASIZE LT ISZERO PUSH2 0x12 JUMPI PUSH1 0x0 DUP1 REVERT JUMPDEST PUSH1 0x0 DUP1 CALLDATALOAD PUSH1 0xE0 SHR DUP1 PUSH4 0x13CF08B EQ PUSH2 0x1C82 JUMPI DUP1 PUSH4 0x84346E5 EQ PUSH2 0x183C JUMPI DUP1 PUSH4 0xD61B519 EQ PUSH2 0x1103 JUMPI DUP1 PUSH4 0x1A5007DD EQ PUSH2 0x10E5 JUMPI DUP1 PUSH4 0x1EE8181C EQ PUSH2 0x1017 JUMPI DUP1 PUSH4 0x3AB34290 EQ PUSH2 0xFFB JUMPI DUP1 PUSH4 0x409294A1 EQ PUSH2 0xFD2 JUMPI DUP1 PUSH4 0x429B62E5 EQ PUSH2 0xF93 JUMPI DUP1 PUSH4 0x548AA6D6 EQ PUSH2 0xF75 JUMPI DUP1 PUSH4 0x59D177E6 EQ PUSH2 0xF51 JUMPI DUP1 PUSH4 0x5E510B60 EQ PUSH2 0xF35 JUMPI DUP1 PUSH4 0x6277F6C6 EQ PUSH2 0xEA7 JUMPI DUP1 PUSH4 0x66B3BD5A EQ PUSH2 0xDE9 JUMPI DUP1 PUSH4 0x6DC918D0 EQ PUSH2 0xDB0 JUMPI DUP1 PUSH4 0x715018A6 EQ PUSH2 0xD56 JUMPI DUP1 PUSH4 0x791F5D23 EQ PUSH2 0xD39 JUMPI DUP1 PUSH4 0x7BC74225 EQ PUSH2 0xD16 JUMPI DUP1 PUSH4 0x858FE179 EQ PUSH2 0xCA5 JUMPI DUP1 PUSH4 0x8DA5CB5B EQ PUSH2 0xC7E JUMPI DUP1 PUSH4 0x90E08056 EQ PUSH2 0xC60 JUMPI DUP1 PUSH4 0x942B23DA EQ PUSH2 0xC27 JUMPI DUP1 PUSH4 0xA06B921A EQ PUSH2 0xC09 JUMPI DUP1 PUSH4 0xA438D208 EQ PUSH2 0xBEB JUMPI DUP1 PUSH4 0xC25F3CF6 EQ PUSH2 0xBAC JUMPI DUP1 PUSH4 0xC7F758A8 EQ PUSH2 0xAFC JUMPI DUP1 PUSH4 0xC9BB1A48 EQ PUSH2 0xAD3 JUMPI DUP1 PUSH4 0xC9D27AFE EQ PUSH2 0x864 JUMPI DUP1 PUSH4 0xE2AA436B EQ PUSH2 0x347 JUMPI DUP1 PUSH4 0xF2FDE38B EQ PUSH2 0x27C JUMPI PUSH4 0xFDEE50DD EQ PUSH2 0x167 JUMPI PUSH1 0x0 DUP1 REVERT JUMPDEST CALLVALUE PUSH2 0x279 JUMPI PUSH1 0x20 DUP1 PUSH1 0x3 NOT CALLDATASIZE ADD SLT PUSH2 0x275 JUMPI PUSH1 0x4 CALLDATALOAD SWAP1 CALLER DUP4 MSTORE PUSH1 0x7 DUP2 MSTORE PUSH2 0x194 PUSH1 0xFF PUSH1 0x40 DUP6 KECCAK256 SLOAD AND PUSH2 0x23DB JUMP JUMPDEST DUP2 ISZERO PUSH2 0x1A0 DUP2 ISZERO PUSH2 0x2413 JUMP JUMPDEST CALLER DUP5 MSTORE PUSH1 0x9 DUP3 MSTORE DUP3 PUSH1 0x40 DUP6 KECCAK256 SLOAD LT PUSH2 0x23B JUMPI CALLER DUP5 MSTORE PUSH1 0x9 DUP3 MSTORE PUSH1 0x40 DUP5 KECCAK256 DUP1 SLOAD SWAP1 DUP5 DUP3 SUB SWAP2 DUP3 GT PUSH2 0x227 JUMPI SSTORE DUP4 SWAP1 DUP2 SWAP1 DUP5 SWAP1 PUSH2 0x21D JUMPI JUMPDEST DUP3 DUP1 SWAP3 SWAP2 DUP2 SWAP3 CALLER SWAP1 CALL ISZERO PUSH2 0x212 JUMPI PUSH32 0xDAE29C2EFA110CAD2B7EC84A38F9604B9B432122831966C54E1BEF01ED55B6EB SWAP1 PUSH1 0x40 MLOAD SWAP3 DUP4 MSTORE CALLER SWAP3 LOG2 DUP1 RETURN JUMPDEST PUSH1 0x40 MLOAD RETURNDATASIZE DUP5 DUP3 RETURNDATACOPY RETURNDATASIZE SWAP1 REVERT JUMPDEST PUSH2 0x8FC SWAP2 POP PUSH2 0x1D6 JUMP JUMPDEST PUSH4 0x4E487B71 PUSH1 0xE0 SHL DUP7 MSTORE PUSH1 0x11 PUSH1 0x4 MSTORE PUSH1 0x24 DUP7 REVERT JUMPDEST PUSH1 0x40 MLOAD PUSH3 0x461BCD PUSH1 0xE5 SHL DUP2 MSTORE PUSH1 0x4 DUP2 ADD DUP4 SWAP1 MSTORE PUSH1 0x12 PUSH1 0x24 DUP3 ADD MSTORE PUSH18 0x496E73756666696369656E74207374616B65 PUSH1 0x70 SHL PUSH1 0x44 DUP3 ADD MSTORE PUSH1 0x64 SWAP1 REVERT JUMPDEST POP DUP1 REVERT JUMPDEST DUP1 REVERT JUMPDEST POP CALLVALUE PUSH2 0x279 JUMPI PUSH1 0x20 CALLDATASIZE PUSH1 0x3 NOT ADD SLT PUSH2 0x279 JUMPI PUSH2 0x296 PUSH2 0x1F51 JUMP JUMPDEST PUSH2 0x29E PUSH2 0x2017 JUMP JUMPDEST PUSH1 0x1 PUSH1 0x1 PUSH1 0xA0 SHL SUB SWAP1 DUP2 AND SWAP1 DUP2 ISZERO PUSH2 0x2F3 JUMPI PUSH1 0x0 SLOAD DUP3 PUSH12 0xFFFFFFFFFFFFFFFFFFFFFFFF PUSH1 0xA0 SHL DUP3 AND OR PUSH1 0x0 SSTORE AND PUSH32 0x8BE0079C531659141344CD1FD0A4F28419497F9722A3DAAFE3B4186F6B6457E0 PUSH1 0x0 DUP1 LOG3 DUP1 RETURN JUMPDEST PUSH1 0x40 MLOAD PUSH3 0x461BCD PUSH1 0xE5 SHL DUP2 MSTORE PUSH1 0x20 PUSH1 0x4 DUP3 ADD MSTORE PUSH1 0x26 PUSH1 0x24 DUP3 ADD MSTORE PUSH32 0x4F776E61626C653A206E6577206F776E657220697320746865207A65726F2061 PUSH1 0x44 DUP3 ADD MSTORE PUSH6 0x646472657373 PUSH1 0xD0 SHL PUSH1 0x64 DUP3 ADD MSTORE PUSH1 0x84 SWAP1 REVERT JUMPDEST POP CALLVALUE PUSH2 0x279 JUMPI PUSH1 0x80 CALLDATASIZE PUSH1 0x3 NOT ADD SLT PUSH2 0x279 JUMPI PUSH1 0x7 PUSH1 0x4 CALLDATALOAD LT ISZERO PUSH2 0x279 JUMPI PUSH1 0x1 PUSH1 0x1 PUSH1 0xA0 SHL SUB PUSH1 0x24 CALLDATALOAD DUP2 DUP2 AND SWAP3 SWAP1 DUP4 SWAP1 SUB PUSH2 0x85F JUMPI PUSH1 0x44 CALLDATALOAD PUSH8 0xFFFFFFFFFFFFFFFF DUP2 GT PUSH2 0x275 JUMPI PUSH2 0x39B SWAP1 CALLDATASIZE SWAP1 PUSH1 0x4 ADD PUSH2 0x1FD0 JUMP JUMPDEST SWAP1 PUSH1 0x64 CALLDATALOAD PUSH8 0xFFFFFFFFFFFFFFFF DUP2 GT PUSH2 0x275 JUMPI PUSH1 0x20 PUSH2 0x3C0 PUSH1 0x24 SWAP3 CALLDATASIZE SWAP1 PUSH1 0x4 ADD PUSH2 0x1FD0 JUMP JUMPDEST SWAP5 PUSH1 0x3 SLOAD AND PUSH1 0x40 MLOAD SWAP3 DUP4 DUP1 SWAP3 PUSH4 0xB9209E33 PUSH1 0xE0 SHL DUP3 MSTORE CALLER PUSH1 0x4 DUP4 ADD MSTORE GAS STATICCALL DUP1 ISZERO PUSH2 0x212 JUMPI DUP3 SWAP1 PUSH2 0x824 JUMPI JUMPDEST PUSH2 0x3F5 SWAP2 POP PUSH2 0x207C JUMP JUMPDEST PUSH2 0x3FD PUSH2 0x20DF JUMP JUMPDEST CALLER DUP2 MSTORE PUSH1 0x6 PUSH1 0x20 MSTORE PUSH2 0x3E8 PUSH1 0x40 DUP3 KECCAK256 PUSH1 0x40 MLOAD PUSH2 0x418 DUP2 PUSH2 0x1D78 JUMP JUMPDEST DUP2 SLOAD DUP2 MSTORE PUSH1 0x1 DUP3 ADD SLOAD PUSH1 0x20 DUP3 ADD MSTORE PUSH1 0x2 DUP3 ADD SLOAD PUSH1 0x40 DUP3 ADD MSTORE PUSH1 0xA0 PUSH1 0x5 PUSH1 0x3 DUP5 ADD SLOAD SWAP4 DUP5 PUSH1 0x60 DUP6 ADD MSTORE PUSH1 0x4 DUP2 ADD SLOAD PUSH1 0x80 DUP6 ADD MSTORE ADD SLOAD SWAP2 ADD MSTORE LT PUSH2 0x7CC JUMPI DUP2 MLOAD ISZERO PUSH2 0x787 JUMPI PUSH1 0x2 DUP1 SLOAD PUSH1 0x1 SWAP1 DUP2 ADD DUP1 DUP4 SSTORE DUP1 DUP5 MSTORE PUSH1 0x5 PUSH1 0x20 MSTORE PUSH1 0x40 DUP5 KECCAK256 DUP2 DUP2 SSTORE SWAP2 DUP3 ADD DUP1 SLOAD PUSH1 0x1 PUSH1 0x1 PUSH1 0xA8 SHL SUB NOT AND PUSH1 0x4 CALLDATALOAD PUSH1 0xFF AND OR CALLER PUSH1 0x8 SHL PUSH2 0x100 PUSH1 0x1 PUSH1 0xA8 SHL SUB AND OR SWAP1 SSTORE SWAP2 DUP2 ADD DUP1 SLOAD PUSH1 0x1 PUSH1 0x1 PUSH1 0xA0 SHL SUB NOT AND SWAP1 SWAP7 OR SWAP1 SWAP6 SSTORE DUP3 MLOAD SWAP1 SWAP4 SWAP1 PUSH8 0xFFFFFFFFFFFFFFFF DUP2 GT PUSH2 0x6BA JUMPI PUSH2 0x4D3 PUSH1 0x3 DUP8 ADD SLOAD PUSH2 0x1D14 JUMP JUMPDEST PUSH1 0x1F DUP2 GT PUSH2 0x743 JUMPI JUMPDEST POP DUP1 PUSH1 0x20 PUSH1 0x1F DUP3 GT PUSH1 0x1 EQ PUSH2 0x6D9 JUMPI DUP5 SWAP2 PUSH2 0x6CE JUMPI JUMPDEST POP DUP2 PUSH1 0x1 SHL SWAP2 PUSH1 0x0 NOT SWAP1 PUSH1 0x3 SHL SHR NOT AND OR PUSH1 0x3 DUP7 ADD SSTORE JUMPDEST DUP1 MLOAD SWAP1 PUSH8 0xFFFFFFFFFFFFFFFF DUP3 GT PUSH2 0x6BA JUMPI DUP2 SWAP1 PUSH2 0x52A PUSH1 0x4 DUP9 ADD SLOAD PUSH2 0x1D14 JUMP JUMPDEST PUSH1 0x1F DUP2 GT PUSH2 0x66A JUMPI JUMPDEST POP PUSH1 0x20 SWAP1 PUSH1 0x1F DUP4 GT PUSH1 0x1 EQ PUSH2 0x600 JUMPI DUP5 SWAP3 PUSH2 0x5F5 JUMPI JUMPDEST POP POP DUP2 PUSH1 0x1 SHL SWAP2 PUSH1 0x0 NOT SWAP1 PUSH1 0x3 SHL SHR NOT AND OR PUSH1 0x4 DUP6 ADD SSTORE JUMPDEST TIMESTAMP PUSH1 0x7 DUP6 ADD SSTORE PUSH3 0x93A80 TIMESTAMP ADD SWAP1 DUP2 TIMESTAMP GT PUSH2 0x5E1 JUMPI POP DUP4 PUSH1 0x9 SWAP2 PUSH1 0x8 PUSH1 0x20 SWAP7 ADD SSTORE ADD PUSH2 0xFFFF NOT DUP2 SLOAD AND SWAP1 SSTORE DUP2 PUSH32 0x2FA4D1BC9FF8794EAC01702CD7A1E2321B00783A0BFD55D3E40E25BD3448B72F PUSH1 0x40 MLOAD PUSH2 0x5BC DUP2 PUSH1 0x4 CALLDATALOAD PUSH2 0x1E5C JUMP JUMPDEST PUSH1 0x40 DUP7 DUP3 ADD MSTORE DUP1 PUSH2 0x5D2 CALLER SWAP6 PUSH1 0x40 DUP4 ADD SWAP1 PUSH2 0x1EA2 JUMP JUMPDEST SUB SWAP1 LOG3 PUSH1 0x1 DUP1 SSTORE PUSH1 0x40 MLOAD SWAP1 DUP2 MSTORE RETURN JUMPDEST PUSH4 0x4E487B71 PUSH1 0xE0 SHL DUP2 MSTORE PUSH1 0x11 PUSH1 0x4 MSTORE PUSH1 0x24 SWAP1 REVERT JUMPDEST ADD MLOAD SWAP1 POP CODESIZE DUP1 PUSH2 0x549 JUMP JUMPDEST PUSH1 0x4 DUP9 ADD DUP6 MSTORE PUSH1 0x20 DUP6 KECCAK256 SWAP3 POP PUSH1 0x1F NOT DUP5 AND DUP6 JUMPDEST DUP2 DUP2 LT PUSH2 0x652 JUMPI POP SWAP1 DUP5 PUSH1 0x1 SWAP6 SWAP5 SWAP4 SWAP3 LT PUSH2 0x639 JUMPI JUMPDEST POP POP POP DUP2 SHL ADD PUSH1 0x4 DUP6 ADD SSTORE PUSH2 0x561 JUMP JUMPDEST ADD MLOAD PUSH1 0x0 NOT PUSH1 0xF8 DUP5 PUSH1 0x3 SHL AND SHR NOT AND SWAP1 SSTORE CODESIZE DUP1 DUP1 PUSH2 0x629 JUMP JUMPDEST SWAP3 SWAP4 PUSH1 0x20 PUSH1 0x1 DUP2 SWAP3 DUP8 DUP7 ADD MLOAD DUP2 SSTORE ADD SWAP6 ADD SWAP4 ADD PUSH2 0x613 JUMP JUMPDEST SWAP1 SWAP2 POP PUSH1 0x4 DUP8 ADD DUP5 MSTORE PUSH1 0x20 DUP5 KECCAK256 PUSH1 0x1F DUP5 ADD PUSH1 0x5 SHR DUP2 ADD PUSH1 0x20 DUP6 LT PUSH2 0x6B3 JUMPI JUMPDEST SWAP1 DUP5 SWAP4 SWAP3 SWAP2 JUMPDEST PUSH1 0x1F DUP4 ADD PUSH1 0x5 SHR DUP3 ADD DUP2 LT PUSH2 0x6A5 JUMPI POP POP PUSH2 0x533 JUMP JUMPDEST DUP7 DUP2 SSTORE DUP6 SWAP5 POP PUSH1 0x1 ADD PUSH2 0x68F JUMP JUMPDEST POP DUP1 PUSH2 0x689 JUMP JUMPDEST PUSH4 0x4E487B71 PUSH1 0xE0 SHL DUP4 MSTORE PUSH1 0x41 PUSH1 0x4 MSTORE PUSH1 0x24 DUP4 REVERT JUMPDEST SWAP1 POP DUP5 ADD MLOAD CODESIZE PUSH2 0x4F2 JUMP JUMPDEST SWAP2 POP PUSH1 0x3 DUP8 ADD DUP5 MSTORE PUSH1 0x20 DUP5 KECCAK256 DUP5 SWAP3 JUMPDEST PUSH1 0x1F NOT DUP4 AND DUP5 LT PUSH2 0x72B JUMPI PUSH1 0x1 SWAP4 POP DUP3 PUSH1 0x1F NOT DUP2 AND LT PUSH2 0x712 JUMPI JUMPDEST POP POP DUP2 SHL ADD PUSH1 0x3 DUP7 ADD SSTORE PUSH2 0x509 JUMP JUMPDEST DUP7 ADD MLOAD PUSH1 0x0 NOT PUSH1 0xF8 DUP5 PUSH1 0x3 SHL AND SHR NOT AND SWAP1 SSTORE CODESIZE DUP1 PUSH2 0x703 JUMP JUMPDEST DUP7 DUP2 ADD MLOAD DUP3 SSTORE PUSH1 0x20 SWAP4 DUP5 ADD SWAP4 PUSH1 0x1 SWAP1 SWAP3 ADD SWAP2 ADD PUSH2 0x6E8 JUMP JUMPDEST PUSH1 0x3 DUP8 ADD DUP5 MSTORE PUSH1 0x20 DUP5 KECCAK256 PUSH1 0x1F DUP4 ADD PUSH1 0x5 SHR DUP2 ADD PUSH1 0x20 DUP5 LT PUSH2 0x780 JUMPI JUMPDEST PUSH1 0x1F DUP4 ADD PUSH1 0x5 SHR DUP3 ADD DUP2 LT PUSH2 0x775 JUMPI POP POP PUSH2 0x4DC JUMP JUMPDEST DUP6 DUP2 SSTORE PUSH1 0x1 ADD PUSH2 0x75F JUMP JUMPDEST POP DUP1 PUSH2 0x75F JUMP JUMPDEST PUSH1 0x40 MLOAD PUSH3 0x461BCD PUSH1 0xE5 SHL DUP2 MSTORE PUSH1 0x20 PUSH1 0x4 DUP3 ADD MSTORE PUSH1 0x1B PUSH1 0x24 DUP3 ADD MSTORE PUSH32 0x4465736372697074696F6E2063616E6E6F7420626520656D7074790000000000 PUSH1 0x44 DUP3 ADD MSTORE PUSH1 0x64 SWAP1 REVERT JUMPDEST PUSH1 0x40 MLOAD PUSH3 0x461BCD PUSH1 0xE5 SHL DUP2 MSTORE PUSH1 0x20 PUSH1 0x4 DUP3 ADD MSTORE PUSH1 0x2A PUSH1 0x24 DUP3 ADD MSTORE PUSH32 0x496E73756666696369656E742072657075746174696F6E20746F206372656174 PUSH1 0x44 DUP3 ADD MSTORE PUSH10 0x19481C1C9BDC1BDCD85B PUSH1 0xB2 SHL PUSH1 0x64 DUP3 ADD MSTORE PUSH1 0x84 SWAP1 REVERT JUMPDEST POP PUSH1 0x20 DUP2 RETURNDATASIZE PUSH1 0x20 GT PUSH2 0x857 JUMPI JUMPDEST DUP2 PUSH2 0x83E PUSH1 0x20 SWAP4 DUP4 PUSH2 0x1D94 JUMP JUMPDEST DUP2 ADD SUB SLT PUSH2 0x275 JUMPI PUSH2 0x852 PUSH2 0x3F5 SWAP2 PUSH2 0x206F JUMP JUMPDEST PUSH2 0x3EB JUMP JUMPDEST RETURNDATASIZE SWAP2 POP PUSH2 0x831 JUMP JUMPDEST PUSH1 0x0 DUP1 REVERT JUMPDEST POP CALLVALUE PUSH2 0x279 JUMPI PUSH1 0x40 CALLDATASIZE PUSH1 0x3 NOT ADD SLT PUSH2 0x279 JUMPI PUSH1 0x24 DUP1 CALLDATALOAD DUP1 ISZERO ISZERO SWAP2 PUSH1 0x4 CALLDATALOAD SWAP2 DUP4 DUP2 SUB PUSH2 0xACF JUMPI DUP3 ISZERO ISZERO DUP1 PUSH2 0xAC3 JUMPI JUMPDEST PUSH2 0x89B SWAP1 PUSH2 0x2135 JUMP JUMPDEST PUSH1 0x3 SLOAD PUSH1 0x40 MLOAD PUSH4 0xB9209E33 PUSH1 0xE0 SHL DUP2 MSTORE CALLER PUSH1 0x4 DUP3 ADD MSTORE PUSH1 0x20 SWAP3 SWAP2 DUP4 SWAP1 DUP3 SWAP1 DUP7 SWAP1 DUP3 SWAP1 PUSH1 0x1 PUSH1 0x1 PUSH1 0xA0 SHL SUB AND GAS STATICCALL DUP1 ISZERO PUSH2 0xAB8 JUMPI DUP8 SWAP1 PUSH2 0xA7E JUMPI JUMPDEST PUSH2 0x8DF SWAP2 POP PUSH2 0x207C JUMP JUMPDEST PUSH2 0x8E7 PUSH2 0x20DF JUMP JUMPDEST DUP4 DUP7 MSTORE PUSH1 0x5 DUP3 MSTORE PUSH1 0x40 DUP7 KECCAK256 SWAP1 PUSH1 0xFF PUSH1 0x9 DUP4 ADD SLOAD AND PUSH1 0x4 DUP2 LT ISZERO PUSH2 0xA6B JUMPI PUSH2 0x90E SWAP1 ISZERO PUSH2 0x2181 JUMP JUMPDEST PUSH1 0x8 DUP3 ADD SLOAD TIMESTAMP GT PUSH2 0xA31 JUMPI PUSH1 0xA DUP3 ADD CALLER PUSH1 0x0 MSTORE DUP1 DUP5 MSTORE PUSH1 0xFF PUSH1 0x40 PUSH1 0x0 KECCAK256 SLOAD AND PUSH2 0x9FD JUMPI PUSH2 0x93A CALLER PUSH2 0x21D6 JUMP JUMPDEST SWAP5 DUP6 ISZERO PUSH2 0x9C8 JUMPI POP CALLER PUSH1 0x0 MSTORE DUP4 MSTORE PUSH1 0x40 PUSH1 0x0 KECCAK256 PUSH1 0x1 PUSH1 0xFF NOT DUP3 SLOAD AND OR SWAP1 SSTORE PUSH1 0xB DUP3 ADD DUP4 MSTORE DUP4 PUSH1 0x40 PUSH1 0x0 KECCAK256 SSTORE PUSH1 0x0 EQ PUSH2 0x9B3 JUMPI PUSH1 0x5 ADD PUSH2 0x97A DUP4 DUP3 SLOAD PUSH2 0x20BC JUMP JUMPDEST SWAP1 SSTORE JUMPDEST PUSH1 0x40 MLOAD SWAP4 DUP5 MSTORE DUP4 ADD MSTORE PUSH32 0xCBDF6214089CBA887ECBF35A0B6A734589959C9763342C756BB2A80CA2BC9F6E PUSH1 0x40 CALLER SWAP4 LOG3 PUSH1 0x1 DUP1 SSTORE DUP1 RETURN JUMPDEST PUSH1 0x6 ADD PUSH2 0x9C1 DUP4 DUP3 SLOAD PUSH2 0x20BC JUMP JUMPDEST SWAP1 SSTORE PUSH2 0x97D JUMP JUMPDEST DUP5 PUSH1 0xF PUSH1 0x64 SWAP3 PUSH1 0x40 MLOAD SWAP3 PUSH3 0x461BCD PUSH1 0xE5 SHL DUP5 MSTORE PUSH1 0x4 DUP5 ADD MSTORE DUP3 ADD MSTORE PUSH15 0x2737903B37BA34B733903837BBB2B9 PUSH1 0x89 SHL PUSH1 0x44 DUP3 ADD MSTORE REVERT JUMPDEST PUSH1 0x40 MLOAD PUSH3 0x461BCD PUSH1 0xE5 SHL DUP2 MSTORE PUSH1 0x4 DUP2 ADD DUP6 SWAP1 MSTORE PUSH1 0xD DUP2 DUP8 ADD MSTORE PUSH13 0x105B1C9958591E481D9BDD1959 PUSH1 0x9A SHL PUSH1 0x44 DUP3 ADD MSTORE PUSH1 0x64 SWAP1 REVERT JUMPDEST PUSH1 0x40 MLOAD PUSH3 0x461BCD PUSH1 0xE5 SHL DUP2 MSTORE PUSH1 0x4 DUP2 ADD DUP5 SWAP1 MSTORE PUSH1 0x13 DUP2 DUP7 ADD MSTORE PUSH19 0x159BDD1A5B99C81C195C9A5BD908195B991959 PUSH1 0x6A SHL PUSH1 0x44 DUP3 ADD MSTORE PUSH1 0x64 SWAP1 REVERT JUMPDEST PUSH4 0x4E487B71 PUSH1 0xE0 SHL DUP9 MSTORE PUSH1 0x21 PUSH1 0x4 MSTORE DUP5 DUP9 REVERT JUMPDEST POP DUP3 DUP2 DUP2 RETURNDATASIZE DUP4 GT PUSH2 0xAB1 JUMPI JUMPDEST PUSH2 0xA94 DUP2 DUP4 PUSH2 0x1D94 JUMP JUMPDEST DUP2 ADD SUB SLT PUSH2 0xAAD JUMPI PUSH2 0xAA8 PUSH2 0x8DF SWAP2 PUSH2 0x206F JUMP JUMPDEST PUSH2 0x8D5 JUMP JUMPDEST DUP7 DUP1 REVERT JUMPDEST POP RETURNDATASIZE PUSH2 0xA8A JUMP JUMPDEST PUSH1 0x40 MLOAD RETURNDATASIZE DUP10 DUP3 RETURNDATACOPY RETURNDATASIZE SWAP1 REVERT JUMPDEST POP PUSH1 0x2 SLOAD DUP4 GT ISZERO PUSH2 0x892 JUMP JUMPDEST DUP5 DUP1 REVERT JUMPDEST POP CALLVALUE PUSH2 0x279 JUMPI DUP1 PUSH1 0x3 NOT CALLDATASIZE ADD SLT PUSH2 0x279 JUMPI PUSH1 0x3 SLOAD PUSH1 0x40 MLOAD PUSH1 0x1 PUSH1 0x1 PUSH1 0xA0 SHL SUB SWAP1 SWAP2 AND DUP2 MSTORE PUSH1 0x20 SWAP1 RETURN JUMPDEST POP CALLVALUE PUSH2 0x279 JUMPI PUSH1 0x20 CALLDATASIZE PUSH1 0x3 NOT ADD SLT PUSH2 0x279 JUMPI PUSH1 0x40 SWAP1 PUSH1 0x4 CALLDATALOAD DUP1 ISZERO ISZERO DUP1 PUSH2 0xBA0 JUMPI JUMPDEST PUSH2 0xB26 SWAP1 PUSH2 0x2135 JUMP JUMPDEST DUP2 MSTORE PUSH1 0x5 PUSH1 0x20 MSTORE KECCAK256 DUP1 SLOAD PUSH2 0xB9C PUSH1 0x1 DUP4 ADD SLOAD SWAP3 PUSH1 0x1 DUP1 PUSH1 0xA0 SHL SUB DUP1 PUSH1 0x2 DUP4 ADD SLOAD AND PUSH1 0x5 DUP4 ADD SLOAD PUSH1 0x6 DUP5 ADD SLOAD PUSH1 0x7 DUP6 ADD SLOAD SWAP2 PUSH1 0x8 DUP7 ADD SLOAD SWAP4 PUSH1 0x9 DUP8 ADD SLOAD SWAP7 PUSH2 0xB7B PUSH1 0x4 PUSH2 0xB74 PUSH1 0x3 DUP5 ADD PUSH2 0x1DB6 JUMP JUMPDEST SWAP3 ADD PUSH2 0x1DB6 JUMP JUMPDEST SWAP2 PUSH1 0x40 MLOAD SWAP12 DUP13 SWAP12 PUSH1 0xFF DUP1 DUP1 DUP14 PUSH1 0x8 SHR AND SWAP13 AND SWAP11 DUP4 PUSH1 0x8 SHR AND SWAP3 AND SWAP1 DUP14 PUSH2 0x1EC7 JUMP JUMPDEST SUB SWAP1 RETURN JUMPDEST POP PUSH1 0x2 SLOAD DUP2 GT ISZERO PUSH2 0xB1D JUMP JUMPDEST POP CALLVALUE PUSH2 0x279 JUMPI PUSH1 0x20 CALLDATASIZE PUSH1 0x3 NOT ADD SLT PUSH2 0x279 JUMPI PUSH1 0x20 SWAP1 PUSH1 0xFF SWAP1 PUSH1 0x40 SWAP1 PUSH1 0x1 PUSH1 0x1 PUSH1 0xA0 SHL SUB PUSH2 0xBD7 PUSH2 0x1F51 JUMP JUMPDEST AND DUP2 MSTORE PUSH1 0x7 DUP5 MSTORE KECCAK256 SLOAD AND PUSH1 0x40 MLOAD SWAP1 ISZERO ISZERO DUP2 MSTORE RETURN JUMPDEST POP CALLVALUE PUSH2 0x279 JUMPI DUP1 PUSH1 0x3 NOT CALLDATASIZE ADD SLT PUSH2 0x279 JUMPI PUSH1 0x20 PUSH1 0x40 MLOAD PUSH3 0x93A80 DUP2 MSTORE RETURN JUMPDEST POP CALLVALUE PUSH2 0x279 JUMPI DUP1 PUSH1 0x3 NOT CALLDATASIZE ADD SLT PUSH2 0x279 JUMPI PUSH1 0x20 PUSH1 0xB SLOAD PUSH1 0x40 MLOAD SWAP1 DUP2 MSTORE RETURN JUMPDEST POP CALLVALUE PUSH2 0x279 JUMPI PUSH1 0x20 CALLDATASIZE PUSH1 0x3 NOT ADD SLT PUSH2 0x279 JUMPI PUSH1 0x4 CALLDATALOAD SWAP1 PUSH1 0xD SLOAD DUP3 LT ISZERO PUSH2 0x279 JUMPI PUSH1 0x20 PUSH2 0xC52 DUP4 PUSH2 0x1F67 JUMP JUMPDEST SWAP1 SLOAD PUSH1 0x40 MLOAD SWAP2 PUSH1 0x3 SHL SHR DUP2 MSTORE RETURN JUMPDEST POP CALLVALUE PUSH2 0x279 JUMPI DUP1 PUSH1 0x3 NOT CALLDATASIZE ADD SLT PUSH2 0x279 JUMPI PUSH1 0x20 PUSH1 0xA SLOAD PUSH1 0x40 MLOAD SWAP1 DUP2 MSTORE RETURN JUMPDEST POP CALLVALUE PUSH2 0x279 JUMPI DUP1 PUSH1 0x3 NOT CALLDATASIZE ADD SLT PUSH2 0x279 JUMPI SLOAD PUSH1 0x40 MLOAD PUSH1 0x1 PUSH1 0x1 PUSH1 0xA0 SHL SUB SWAP1 SWAP2 AND DUP2 MSTORE PUSH1 0x20 SWAP1 RETURN JUMPDEST POP CALLVALUE PUSH2 0x279 JUMPI PUSH1 0x20 CALLDATASIZE PUSH1 0x3 NOT ADD SLT PUSH2 0x279 JUMPI PUSH1 0xC0 SWAP1 PUSH1 0x40 SWAP1 PUSH1 0x1 PUSH1 0x1 PUSH1 0xA0 SHL SUB PUSH2 0xCCD PUSH2 0x1F51 JUMP JUMPDEST AND DUP2 MSTORE PUSH1 0x6 PUSH1 0x20 MSTORE KECCAK256 DUP1 SLOAD SWAP1 PUSH1 0x1 DUP2 ADD SLOAD SWAP1 PUSH1 0x2 DUP2 ADD SLOAD PUSH1 0x3 DUP3 ADD SLOAD SWAP1 PUSH1 0x5 PUSH1 0x4 DUP5 ADD SLOAD SWAP4 ADD SLOAD SWAP4 PUSH1 0x40 MLOAD SWAP6 DUP7 MSTORE PUSH1 0x20 DUP7 ADD MSTORE PUSH1 0x40 DUP6 ADD MSTORE PUSH1 0x60 DUP5 ADD MSTORE PUSH1 0x80 DUP4 ADD MSTORE PUSH1 0xA0 DUP3 ADD MSTORE RETURN JUMPDEST POP CALLVALUE PUSH2 0x279 JUMPI DUP1 PUSH1 0x3 NOT CALLDATASIZE ADD SLT PUSH2 0x279 JUMPI PUSH1 0x20 PUSH2 0xD31 PUSH2 0x245F JUMP JUMPDEST PUSH1 0x40 MLOAD SWAP1 DUP2 MSTORE RETURN JUMPDEST POP CALLVALUE PUSH2 0x279 JUMPI DUP1 PUSH1 0x3 NOT CALLDATASIZE ADD SLT PUSH2 0x279 JUMPI PUSH1 0x20 PUSH1 0x40 MLOAD PUSH2 0x3E8 DUP2 MSTORE RETURN JUMPDEST POP CALLVALUE PUSH2 0x279 JUMPI DUP1 PUSH1 0x3 NOT CALLDATASIZE ADD SLT PUSH2 0x279 JUMPI PUSH2 0xD6F PUSH2 0x2017 JUMP JUMPDEST PUSH1 0x0 DUP1 SLOAD PUSH1 0x1 PUSH1 0x1 PUSH1 0xA0 SHL SUB NOT DUP2 AND DUP3 SSTORE PUSH1 0x1 PUSH1 0x1 PUSH1 0xA0 SHL SUB AND PUSH32 0x8BE0079C531659141344CD1FD0A4F28419497F9722A3DAAFE3B4186F6B6457E0 DUP3 DUP1 LOG3 DUP1 RETURN JUMPDEST POP CALLVALUE PUSH2 0x279 JUMPI PUSH1 0x20 CALLDATASIZE PUSH1 0x3 NOT ADD SLT PUSH2 0x279 JUMPI PUSH1 0x20 SWAP1 PUSH1 0x40 SWAP1 PUSH1 0x1 PUSH1 0x1 PUSH1 0xA0 SHL SUB PUSH2 0xDD8 PUSH2 0x1F51 JUMP JUMPDEST AND DUP2 MSTORE PUSH1 0x9 DUP4 MSTORE KECCAK256 SLOAD PUSH1 0x40 MLOAD SWAP1 DUP2 MSTORE RETURN JUMPDEST POP PUSH1 0x20 CALLDATASIZE PUSH1 0x3 NOT ADD SLT PUSH2 0x279 JUMPI PUSH1 0x4 CALLDATALOAD CALLER DUP3 MSTORE PUSH1 0x7 PUSH1 0x20 MSTORE PUSH2 0xE11 PUSH1 0xFF PUSH1 0x40 DUP5 KECCAK256 SLOAD AND PUSH2 0x23DB JUMP JUMPDEST PUSH2 0xE1C DUP2 ISZERO ISZERO PUSH2 0x2413 JUMP JUMPDEST DUP1 CALLVALUE LT PUSH2 0xE6B JUMPI CALLER DUP3 MSTORE PUSH1 0x9 PUSH1 0x20 MSTORE PUSH1 0x40 DUP3 KECCAK256 PUSH2 0xE3A DUP3 DUP3 SLOAD PUSH2 0x20BC JUMP JUMPDEST SWAP1 SSTORE PUSH1 0x40 MLOAD SWAP1 DUP2 MSTORE PUSH32 0x1C32CFE23625CE0C2F6F6A39FBCAFCDF54205AB0EAB80D7E8E71389D1E321EF6 PUSH1 0x20 CALLER SWAP3 LOG2 DUP1 RETURN JUMPDEST PUSH1 0x40 MLOAD PUSH3 0x461BCD PUSH1 0xE5 SHL DUP2 MSTORE PUSH1 0x20 PUSH1 0x4 DUP3 ADD MSTORE PUSH1 0x14 PUSH1 0x24 DUP3 ADD MSTORE PUSH20 0x125B9CDD59999A58DA595B9D081C185E5B595B9D PUSH1 0x62 SHL PUSH1 0x44 DUP3 ADD MSTORE PUSH1 0x64 SWAP1 REVERT JUMPDEST POP CALLVALUE PUSH2 0x279 JUMPI PUSH1 0x60 CALLDATASIZE PUSH1 0x3 NOT ADD SLT PUSH2 0x279 JUMPI PUSH1 0x44 CALLDATALOAD PUSH1 0x24 CALLDATALOAD PUSH1 0x4 CALLDATALOAD PUSH2 0xECA PUSH2 0x2017 JUMP JUMPDEST PUSH1 0x64 PUSH2 0xEDF DUP5 PUSH2 0xEDA DUP6 DUP6 PUSH2 0x20BC JUMP JUMPDEST PUSH2 0x20BC JUMP JUMPDEST SUB PUSH2 0xEF0 JUMPI PUSH1 0xA SSTORE PUSH1 0xB SSTORE PUSH1 0xC SSTORE DUP1 RETURN JUMPDEST PUSH1 0x40 MLOAD PUSH3 0x461BCD PUSH1 0xE5 SHL DUP2 MSTORE PUSH1 0x20 PUSH1 0x4 DUP3 ADD MSTORE PUSH1 0x17 PUSH1 0x24 DUP3 ADD MSTORE PUSH32 0x57656967687473206D7573742073756D20746F20313030000000000000000000 PUSH1 0x44 DUP3 ADD MSTORE PUSH1 0x64 SWAP1 REVERT JUMPDEST POP CALLVALUE PUSH2 0x279 JUMPI DUP1 PUSH1 0x3 NOT CALLDATASIZE ADD SLT PUSH2 0x279 JUMPI PUSH1 0x20 PUSH1 0x40 MLOAD PUSH1 0x1E DUP2 MSTORE RETURN JUMPDEST POP CALLVALUE PUSH2 0x279 JUMPI PUSH1 0x20 CALLDATASIZE PUSH1 0x3 NOT ADD SLT PUSH2 0x279 JUMPI PUSH1 0x20 PUSH2 0xD31 PUSH2 0xF70 PUSH2 0x1F51 JUMP JUMPDEST PUSH2 0x21D6 JUMP JUMPDEST POP CALLVALUE PUSH2 0x279 JUMPI DUP1 PUSH1 0x3 NOT CALLDATASIZE ADD SLT PUSH2 0x279 JUMPI PUSH1 0x20 PUSH1 0xC SLOAD PUSH1 0x40 MLOAD SWAP1 DUP2 MSTORE RETURN JUMPDEST POP CALLVALUE PUSH2 0x279 JUMPI PUSH1 0x20 CALLDATASIZE PUSH1 0x3 NOT ADD SLT PUSH2 0x279 JUMPI PUSH1 0x20 SWAP1 PUSH1 0xFF SWAP1 PUSH1 0x40 SWAP1 PUSH1 0x1 PUSH1 0x1 PUSH1 0xA0 SHL SUB PUSH2 0xFBE PUSH2 0x1F51 JUMP JUMPDEST AND DUP2 MSTORE PUSH1 0x8 DUP5 MSTORE KECCAK256 SLOAD AND PUSH1 0x40 MLOAD SWAP1 ISZERO ISZERO DUP2 MSTORE RETURN JUMPDEST POP CALLVALUE PUSH2 0x279 JUMPI DUP1 PUSH1 0x3 NOT CALLDATASIZE ADD SLT PUSH2 0x279 JUMPI PUSH1 0x4 SLOAD PUSH1 0x40 MLOAD PUSH1 0x1 PUSH1 0x1 PUSH1 0xA0 SHL SUB SWAP1 SWAP2 AND DUP2 MSTORE PUSH1 0x20 SWAP1 RETURN JUMPDEST POP CALLVALUE PUSH2 0x279 JUMPI DUP1 PUSH1 0x3 NOT CALLDATASIZE ADD SLT PUSH2 0x279 JUMPI PUSH1 0x20 PUSH1 0x40 MLOAD PUSH1 0x3C DUP2 MSTORE RETURN JUMPDEST POP CALLVALUE PUSH2 0x279 JUMPI PUSH1 0x20 CALLDATASIZE PUSH1 0x3 NOT ADD SLT PUSH2 0x279 JUMPI PUSH1 0x40 PUSH1 0xC0 SWAP2 PUSH2 0x1036 PUSH2 0x1F51 JUMP JUMPDEST DUP2 PUSH1 0xA0 DUP5 MLOAD PUSH2 0x1044 DUP2 PUSH2 0x1D78 JUMP JUMPDEST DUP3 DUP2 MSTORE DUP3 PUSH1 0x20 DUP3 ADD MSTORE DUP3 DUP7 DUP3 ADD MSTORE DUP3 PUSH1 0x60 DUP3 ADD MSTORE DUP3 PUSH1 0x80 DUP3 ADD MSTORE ADD MSTORE PUSH1 0x1 DUP1 PUSH1 0xA0 SHL SUB AND DUP2 MSTORE PUSH1 0x6 PUSH1 0x20 MSTORE KECCAK256 PUSH1 0x40 MLOAD PUSH2 0x107C DUP2 PUSH2 0x1D78 JUMP JUMPDEST DUP2 SLOAD SWAP2 DUP3 DUP3 MSTORE PUSH1 0x1 DUP2 ADD SLOAD PUSH1 0x20 DUP4 ADD SWAP1 DUP2 MSTORE PUSH1 0x2 DUP3 ADD SLOAD PUSH1 0x40 DUP5 ADD SWAP1 DUP2 MSTORE PUSH1 0x3 DUP4 ADD SLOAD SWAP2 PUSH1 0x60 DUP6 ADD SWAP3 DUP4 MSTORE PUSH1 0xA0 PUSH1 0x5 PUSH1 0x4 DUP7 ADD SLOAD SWAP6 PUSH1 0x80 DUP9 ADD SWAP7 DUP8 MSTORE ADD SLOAD SWAP6 ADD SWAP5 DUP6 MSTORE PUSH1 0x40 MLOAD SWAP6 DUP7 MSTORE MLOAD PUSH1 0x20 DUP7 ADD MSTORE MLOAD PUSH1 0x40 DUP6 ADD MSTORE MLOAD PUSH1 0x60 DUP5 ADD MSTORE MLOAD PUSH1 0x80 DUP4 ADD MSTORE MLOAD PUSH1 0xA0 DUP3 ADD MSTORE RETURN JUMPDEST POP CALLVALUE PUSH2 0x279 JUMPI DUP1 PUSH1 0x3 NOT CALLDATASIZE ADD SLT PUSH2 0x279 JUMPI PUSH1 0x20 PUSH1 0x2 SLOAD PUSH1 0x40 MLOAD SWAP1 DUP2 MSTORE RETURN JUMPDEST POP CALLVALUE PUSH2 0x279 JUMPI PUSH1 0x20 DUP1 PUSH1 0x3 NOT CALLDATASIZE ADD SLT PUSH2 0x275 JUMPI PUSH1 0x4 CALLDATALOAD SWAP1 DUP2 ISZERO ISZERO DUP1 PUSH2 0x1830 JUMPI JUMPDEST PUSH2 0x112C SWAP1 PUSH2 0x2135 JUMP JUMPDEST PUSH2 0x1134 PUSH2 0x20DF JUMP JUMPDEST DUP2 DUP4 MSTORE PUSH1 0x5 DUP2 MSTORE PUSH1 0x40 DUP4 KECCAK256 SWAP1 PUSH1 0x9 DUP3 ADD DUP1 SLOAD PUSH1 0xFF DUP2 AND PUSH1 0x4 DUP2 LT ISZERO PUSH2 0x181C JUMPI PUSH2 0x115D SWAP1 ISZERO PUSH2 0x2181 JUMP JUMPDEST PUSH1 0x8 DUP5 ADD SLOAD TIMESTAMP GT ISZERO PUSH2 0x17D7 JUMPI PUSH1 0xFF DUP2 PUSH1 0x8 SHR AND PUSH2 0x1792 JUMPI PUSH1 0x5 DUP5 ADD SLOAD PUSH2 0x1187 PUSH1 0x6 DUP7 ADD SLOAD DUP3 PUSH2 0x20BC JUMP JUMPDEST PUSH2 0x118F PUSH2 0x245F JUMP JUMPDEST PUSH1 0x1E DUP2 MUL SWAP1 DUP1 DUP3 DIV PUSH1 0x1E EQ SWAP1 ISZERO OR ISZERO PUSH2 0x177E JUMPI PUSH1 0x64 SWAP1 DIV DUP2 LT PUSH2 0x1748 JUMPI PUSH1 0x3C DUP2 MUL SWAP1 DUP1 DUP3 DIV PUSH1 0x3C EQ SWAP1 ISZERO OR ISZERO PUSH2 0x1734 JUMPI PUSH1 0x64 SWAP1 DIV LT ISZERO PUSH2 0x1722 JUMPI POP PUSH2 0x101 PUSH2 0xFFFF NOT DUP3 SLOAD AND OR SWAP1 SSTORE PUSH1 0x1 DUP3 ADD SWAP2 PUSH1 0xFF DUP4 SLOAD AND PUSH1 0x7 DUP2 LT ISZERO PUSH2 0x170E JUMPI DUP6 SWAP2 SWAP1 DUP1 PUSH2 0x12EA JUMPI POP PUSH1 0x3 SLOAD PUSH1 0x2 SWAP2 SWAP1 SWAP2 ADD SLOAD PUSH1 0x40 MLOAD PUSH4 0x1C045F1 PUSH1 0xE2 SHL DUP2 MSTORE PUSH1 0x1 PUSH1 0x1 PUSH1 0xA0 SHL SUB SWAP2 DUP3 AND PUSH1 0x4 DUP3 ADD MSTORE SWAP2 AND SWAP1 DUP4 DUP2 PUSH1 0x24 DUP2 DUP6 GAS STATICCALL SWAP1 DUP2 ISZERO PUSH2 0x12DF JUMPI DUP4 SWAP2 PUSH2 0x12AE JUMPI JUMPDEST POP DUP2 EXTCODESIZE ISZERO PUSH2 0x12AA JUMPI DUP3 SWAP2 PUSH1 0x24 DUP4 SWAP3 PUSH1 0x40 MLOAD SWAP5 DUP6 SWAP4 DUP5 SWAP3 PUSH4 0xF4C44A3 PUSH1 0xE2 SHL DUP5 MSTORE PUSH1 0x4 DUP5 ADD MSTORE GAS CALL DUP1 ISZERO PUSH2 0x212 JUMPI PUSH2 0x1292 JUMPI JUMPDEST POP POP PUSH1 0xFF PUSH1 0x0 DUP1 MLOAD PUSH1 0x20 PUSH2 0x24AC DUP4 CODECOPY DUP2 MLOAD SWAP2 MSTORE SWAP3 JUMPDEST SLOAD AND PUSH2 0x1289 PUSH1 0x40 MLOAD DUP1 SWAP3 PUSH2 0x1E5C JUMP JUMPDEST LOG2 JUMPDEST PUSH1 0x1 DUP1 SSTORE DUP1 RETURN JUMPDEST PUSH2 0x129B SWAP1 PUSH2 0x1D4E JUMP JUMPDEST PUSH2 0x12A6 JUMPI DUP4 CODESIZE PUSH2 0x1265 JUMP JUMPDEST DUP4 DUP1 REVERT JUMPDEST DUP3 DUP1 REVERT JUMPDEST DUP1 SWAP4 POP DUP5 DUP1 SWAP3 POP RETURNDATASIZE DUP4 GT PUSH2 0x12D8 JUMPI JUMPDEST PUSH2 0x12C7 DUP2 DUP4 PUSH2 0x1D94 JUMP JUMPDEST DUP2 ADD SUB SLT PUSH2 0x85F JUMPI DUP6 SWAP2 MLOAD CODESIZE PUSH2 0x1233 JUMP JUMPDEST POP RETURNDATASIZE PUSH2 0x12BD JUMP JUMPDEST PUSH1 0x40 MLOAD RETURNDATASIZE DUP6 DUP3 RETURNDATACOPY RETURNDATASIZE SWAP1 REVERT JUMPDEST PUSH1 0x1 DUP2 SUB PUSH2 0x13C3 JUMPI POP PUSH1 0x3 SLOAD PUSH1 0x2 SWAP2 SWAP1 SWAP2 ADD SLOAD PUSH1 0x40 MLOAD PUSH4 0x1C045F1 PUSH1 0xE2 SHL DUP2 MSTORE PUSH1 0x1 PUSH1 0x1 PUSH1 0xA0 SHL SUB SWAP2 DUP3 AND PUSH1 0x4 DUP3 ADD MSTORE SWAP2 AND SWAP1 DUP4 DUP2 PUSH1 0x24 DUP2 DUP6 GAS STATICCALL SWAP1 DUP2 ISZERO PUSH2 0x12DF JUMPI DUP4 SWAP2 PUSH2 0x1392 JUMPI JUMPDEST POP DUP2 EXTCODESIZE ISZERO PUSH2 0x12AA JUMPI DUP3 SWAP2 PUSH1 0x24 DUP4 SWAP3 PUSH1 0x40 MLOAD SWAP5 DUP6 SWAP4 DUP5 SWAP3 PUSH4 0xCE93B527 PUSH1 0xE0 SHL DUP5 MSTORE PUSH1 0x4 DUP5 ADD MSTORE GAS CALL DUP1 ISZERO PUSH2 0x212 JUMPI PUSH2 0x137E JUMPI JUMPDEST POP POP PUSH1 0xFF PUSH1 0x0 DUP1 MLOAD PUSH1 0x20 PUSH2 0x24AC DUP4 CODECOPY DUP2 MLOAD SWAP2 MSTORE SWAP3 PUSH2 0x127A JUMP JUMPDEST PUSH2 0x1387 SWAP1 PUSH2 0x1D4E JUMP JUMPDEST PUSH2 0x12A6 JUMPI DUP4 CODESIZE PUSH2 0x1365 JUMP JUMPDEST DUP1 SWAP4 POP DUP5 DUP1 SWAP3 POP RETURNDATASIZE DUP4 GT PUSH2 0x13BC JUMPI JUMPDEST PUSH2 0x13AB DUP2 DUP4 PUSH2 0x1D94 JUMP JUMPDEST DUP2 ADD SUB SLT PUSH2 0x85F JUMPI DUP6 SWAP2 MLOAD CODESIZE PUSH2 0x1333 JUMP JUMPDEST POP RETURNDATASIZE PUSH2 0x13A1 JUMP JUMPDEST SWAP1 SWAP4 SWAP2 POP PUSH1 0x2 DUP2 SUB PUSH2 0x1492 JUMPI POP PUSH1 0x3 SLOAD PUSH1 0x2 SWAP1 SWAP4 ADD DUP1 SLOAD PUSH1 0x1 PUSH1 0x1 PUSH1 0xA0 SHL SUB SWAP5 DUP8 SWAP2 SWAP1 DUP7 AND SWAP1 DUP7 AND DUP2 EXTCODESIZE ISZERO PUSH2 0x12AA JUMPI DUP3 SWAP2 PUSH1 0x24 DUP4 SWAP3 PUSH1 0x40 MLOAD SWAP5 DUP6 SWAP4 DUP5 SWAP3 PUSH4 0x70480275 PUSH1 0xE0 SHL DUP5 MSTORE PUSH1 0x4 DUP5 ADD MSTORE GAS CALL DUP1 ISZERO PUSH2 0x212 JUMPI PUSH2 0x1476 JUMPI JUMPDEST POP POP DUP1 SLOAD DUP5 AND DUP7 MSTORE PUSH1 0x8 DUP4 MSTORE PUSH1 0x40 DUP7 KECCAK256 DUP1 SLOAD PUSH1 0xFF NOT AND PUSH1 0x1 OR SWAP1 SSTORE SLOAD PUSH1 0x0 DUP1 MLOAD PUSH1 0x20 PUSH2 0x24AC DUP4 CODECOPY DUP2 MLOAD SWAP2 MSTORE SWAP4 PUSH1 0xFF SWAP3 SWAP2 AND PUSH32 0x44D6D25963F097AD14F29F06854A01F575648A1EF82F30E562CCD3889717E339 DUP8 DUP1 LOG2 PUSH2 0x127A JUMP JUMPDEST PUSH2 0x1482 SWAP1 SWAP4 SWAP3 SWAP4 PUSH2 0x1D4E JUMP JUMPDEST PUSH2 0x148E JUMPI SWAP1 DUP6 CODESIZE PUSH2 0x141C JUMP JUMPDEST DUP6 DUP1 REVERT JUMPDEST PUSH1 0x3 DUP2 SUB PUSH2 0x1556 JUMPI POP PUSH1 0x3 SLOAD PUSH1 0x2 SWAP1 SWAP4 ADD DUP1 SLOAD PUSH1 0x1 PUSH1 0x1 PUSH1 0xA0 SHL SUB SWAP5 DUP8 SWAP2 SWAP1 DUP7 AND SWAP1 DUP7 AND DUP2 EXTCODESIZE ISZERO PUSH2 0x12AA JUMPI DUP3 SWAP2 PUSH1 0x24 DUP4 SWAP3 PUSH1 0x40 MLOAD SWAP5 DUP6 SWAP4 DUP5 SWAP3 PUSH4 0x5E17D4F PUSH1 0xE2 SHL DUP5 MSTORE PUSH1 0x4 DUP5 ADD MSTORE GAS CALL DUP1 ISZERO PUSH2 0x212 JUMPI PUSH2 0x153E JUMPI JUMPDEST POP POP DUP1 SLOAD DUP5 AND DUP7 MSTORE PUSH1 0x8 DUP4 MSTORE PUSH1 0x40 DUP7 KECCAK256 DUP1 SLOAD PUSH1 0xFF NOT AND SWAP1 SSTORE SLOAD PUSH1 0x0 DUP1 MLOAD PUSH1 0x20 PUSH2 0x24AC DUP4 CODECOPY DUP2 MLOAD SWAP2 MSTORE SWAP4 PUSH1 0xFF SWAP3 SWAP2 AND PUSH32 0xA3B62BC36326052D97EA62D63C3D60308ED4C3EA8AC079DD8499F1E9C4F80C0F DUP8 DUP1 LOG2 PUSH2 0x127A JUMP JUMPDEST PUSH2 0x154A SWAP1 SWAP4 SWAP3 SWAP4 PUSH2 0x1D4E JUMP JUMPDEST PUSH2 0x148E JUMPI SWAP1 DUP6 CODESIZE PUSH2 0x14E7 JUMP JUMPDEST PUSH1 0x4 DUP2 SUB PUSH2 0x161D JUMPI POP PUSH1 0x3 SLOAD PUSH1 0x2 SWAP1 SWAP4 ADD DUP1 SLOAD PUSH1 0x1 PUSH1 0x1 PUSH1 0xA0 SHL SUB SWAP5 DUP8 SWAP2 SWAP1 DUP7 AND SWAP1 DUP7 AND DUP2 EXTCODESIZE ISZERO PUSH2 0x12AA JUMPI DUP3 SWAP2 PUSH1 0x24 DUP4 SWAP3 PUSH1 0x40 MLOAD SWAP5 DUP6 SWAP4 DUP5 SWAP3 PUSH4 0x6C153703 PUSH1 0xE1 SHL DUP5 MSTORE PUSH1 0x4 DUP5 ADD MSTORE GAS CALL DUP1 ISZERO PUSH2 0x212 JUMPI PUSH2 0x1605 JUMPI JUMPDEST POP POP DUP1 SLOAD DUP5 AND DUP7 MSTORE PUSH1 0x7 DUP4 MSTORE PUSH1 0x40 DUP7 KECCAK256 DUP1 SLOAD PUSH1 0xFF NOT AND PUSH1 0x1 OR SWAP1 SSTORE SLOAD PUSH1 0x0 DUP1 MLOAD PUSH1 0x20 PUSH2 0x24AC DUP4 CODECOPY DUP2 MLOAD SWAP2 MSTORE SWAP4 PUSH1 0xFF SWAP3 SWAP2 AND PUSH32 0xC251FF2B0DA987A4CC8F48505264A6637C9D9D0F04A579D164AECC63963EE822 DUP8 DUP1 LOG2 PUSH2 0x127A JUMP JUMPDEST PUSH2 0x1611 SWAP1 SWAP4 SWAP3 SWAP4 PUSH2 0x1D4E JUMP JUMPDEST PUSH2 0x148E JUMPI SWAP1 DUP6 CODESIZE PUSH2 0x15AB JUMP JUMPDEST SWAP2 SWAP3 SWAP1 SWAP2 PUSH1 0x5 EQ PUSH2 0x1642 JUMPI JUMPDEST POP SWAP1 PUSH1 0xFF PUSH1 0x0 DUP1 MLOAD PUSH1 0x20 PUSH2 0x24AC DUP4 CODECOPY DUP2 MLOAD SWAP2 MSTORE SWAP3 PUSH2 0x127A JUMP JUMPDEST PUSH1 0x3 SLOAD PUSH1 0x2 SWAP1 SWAP2 ADD DUP1 SLOAD PUSH1 0x1 PUSH1 0x1 PUSH1 0xA0 SHL SUB SWAP3 DUP8 SWAP2 DUP5 AND SWAP1 DUP5 AND DUP1 EXTCODESIZE ISZERO PUSH2 0x12AA JUMPI PUSH1 0x24 DUP4 SWAP3 PUSH1 0x40 MLOAD SWAP5 DUP6 SWAP4 DUP5 SWAP3 PUSH4 0x7C897DE5 PUSH1 0xE1 SHL DUP5 MSTORE PUSH1 0x4 DUP5 ADD MSTORE GAS CALL DUP1 ISZERO PUSH2 0xAB8 JUMPI PUSH2 0x16E4 JUMPI JUMPDEST POP SWAP2 DUP2 DUP4 PUSH1 0xFF SWAP4 PUSH1 0x0 DUP1 MLOAD PUSH1 0x20 PUSH2 0x24AC DUP4 CODECOPY DUP2 MLOAD SWAP2 MSTORE SWAP7 SWAP6 SLOAD AND DUP9 MSTORE PUSH1 0x7 DUP6 MSTORE PUSH1 0x40 DUP9 KECCAK256 DUP5 NOT DUP2 SLOAD AND SWAP1 SSTORE SLOAD AND PUSH32 0xAC29B2A542253BF4CA97F2427146EA9E117DFAFC4C76A839C32641462D7EBEF7 DUP8 DUP1 LOG2 SWAP2 SWAP3 POP PUSH2 0x1629 JUMP JUMPDEST SWAP2 PUSH1 0x0 DUP1 MLOAD PUSH1 0x20 PUSH2 0x24AC DUP4 CODECOPY DUP2 MLOAD SWAP2 MSTORE SWAP5 SWAP4 SWAP2 SWAP7 PUSH2 0x1703 PUSH1 0xFF SWAP5 PUSH2 0x1D4E JUMP JUMPDEST SWAP7 SWAP2 SWAP4 SWAP5 POP SWAP2 PUSH2 0x168B JUMP JUMPDEST PUSH4 0x4E487B71 PUSH1 0xE0 SHL DUP7 MSTORE PUSH1 0x21 PUSH1 0x4 MSTORE PUSH1 0x24 DUP7 REVERT JUMPDEST PUSH1 0xFF NOT AND PUSH1 0x2 OR SWAP1 SSTORE POP PUSH2 0x128B SWAP2 POP POP JUMP JUMPDEST PUSH4 0x4E487B71 PUSH1 0xE0 SHL DUP9 MSTORE PUSH1 0x11 PUSH1 0x4 MSTORE PUSH1 0x24 DUP9 REVERT JUMPDEST PUSH1 0x40 MLOAD PUSH3 0x461BCD PUSH1 0xE5 SHL DUP2 MSTORE PUSH1 0x4 DUP2 ADD DUP7 SWAP1 MSTORE PUSH1 0xE PUSH1 0x24 DUP3 ADD MSTORE PUSH14 0x145D5BDC9D5B481B9BDD081B595D PUSH1 0x92 SHL PUSH1 0x44 DUP3 ADD MSTORE PUSH1 0x64 SWAP1 REVERT JUMPDEST PUSH4 0x4E487B71 PUSH1 0xE0 SHL DUP10 MSTORE PUSH1 0x11 PUSH1 0x4 MSTORE PUSH1 0x24 DUP10 REVERT JUMPDEST PUSH1 0x40 MLOAD PUSH3 0x461BCD PUSH1 0xE5 SHL DUP2 MSTORE PUSH1 0x4 DUP2 ADD DUP5 SWAP1 MSTORE PUSH1 0x19 PUSH1 0x24 DUP3 ADD MSTORE PUSH32 0x50726F706F73616C20616C726561647920657865637574656400000000000000 PUSH1 0x44 DUP3 ADD MSTORE PUSH1 0x64 SWAP1 REVERT JUMPDEST PUSH1 0x40 MLOAD PUSH3 0x461BCD PUSH1 0xE5 SHL DUP2 MSTORE PUSH1 0x4 DUP2 ADD DUP5 SWAP1 MSTORE PUSH1 0x17 PUSH1 0x24 DUP3 ADD MSTORE PUSH32 0x566F74696E6720706572696F64206E6F7420656E646564000000000000000000 PUSH1 0x44 DUP3 ADD MSTORE PUSH1 0x64 SWAP1 REVERT JUMPDEST PUSH4 0x4E487B71 PUSH1 0xE0 SHL DUP8 MSTORE PUSH1 0x21 PUSH1 0x4 MSTORE PUSH1 0x24 DUP8 REVERT JUMPDEST POP PUSH1 0x2 SLOAD DUP3 GT ISZERO PUSH2 0x1123 JUMP JUMPDEST POP CALLVALUE PUSH2 0x279 JUMPI PUSH1 0x20 DUP1 PUSH1 0x3 NOT CALLDATASIZE ADD SLT PUSH2 0x275 JUMPI PUSH2 0x1857 PUSH2 0x1F51 JUMP JUMPDEST PUSH1 0x3 SLOAD PUSH1 0x40 MLOAD PUSH4 0xB9209E33 PUSH1 0xE0 SHL DUP2 MSTORE PUSH1 0x1 PUSH1 0x1 PUSH1 0xA0 SHL SUB SWAP3 DUP4 AND PUSH1 0x4 DUP3 ADD DUP2 SWAP1 MSTORE SWAP4 SWAP3 SWAP2 DUP3 AND SWAP2 SWAP1 PUSH1 0x24 SWAP1 DUP5 DUP2 DUP4 DUP2 DUP8 GAS STATICCALL DUP1 ISZERO PUSH2 0xAB8 JUMPI DUP8 SWAP1 PUSH2 0x1C4C JUMPI JUMPDEST PUSH2 0x18A1 SWAP2 POP PUSH2 0x207C JUMP JUMPDEST DUP5 DUP7 MSTORE PUSH1 0x6 DUP5 MSTORE DUP1 DUP7 PUSH1 0x40 DUP2 KECCAK256 SWAP5 PUSH1 0x40 MLOAD SWAP3 DUP4 DUP1 SWAP3 PUSH4 0x1335A567 PUSH1 0xE2 SHL DUP3 MSTORE DUP11 PUSH1 0x4 DUP4 ADD MSTORE GAS STATICCALL DUP1 ISZERO PUSH2 0xAB8 JUMPI DUP8 SWAP1 PUSH2 0x1B15 JUMPI JUMPDEST PUSH2 0x120 SWAP2 POP ADD MLOAD DUP1 DUP5 SSTORE DUP2 PUSH1 0xA0 DUP5 PUSH1 0x4 SLOAD AND PUSH1 0x40 MLOAD SWAP3 DUP4 DUP1 SWAP3 PUSH4 0x1F68AE9F PUSH1 0xE2 SHL DUP3 MSTORE DUP12 PUSH1 0x4 DUP4 ADD MSTORE GAS STATICCALL DUP1 ISZERO PUSH2 0x1B0A JUMPI DUP9 SWAP1 PUSH2 0x1A78 JUMPI JUMPDEST PUSH2 0x1917 SWAP2 POP PUSH2 0x22BB JUMP JUMPDEST SWAP2 PUSH1 0x1 SWAP4 DUP4 DUP6 DUP8 ADD SSTORE DUP9 SWAP5 DUP1 SWAP2 PUSH1 0x2 SLOAD SWAP3 JUMPDEST DUP11 DUP13 DUP5 DUP13 DUP8 DUP6 GT ISZERO PUSH2 0x1A2D JUMPI POP POP POP POP POP POP JUMPDEST DUP2 DUP2 GT ISZERO PUSH2 0x19D6 JUMPI POP POP POP DUP3 PUSH1 0x64 PUSH2 0x199C PUSH2 0x19A3 DUP8 SWAP6 DUP4 PUSH2 0x199C DUP2 PUSH2 0x1991 PUSH2 0x19AD SWAP10 PUSH32 0x5B88A2E3FC1A53234357AB78C104DF11C33CCFA79886793654565AD70B8AFB6E SWAP15 SWAP13 PUSH1 0x2 PUSH1 0x40 SWAP16 ADD SSTORE PUSH1 0xA SLOAD SWAP1 PUSH2 0x21C3 JUMP JUMPDEST DIV SWAP3 PUSH1 0xB SLOAD SWAP1 PUSH2 0x21C3 JUMP JUMPDEST DIV SWAP1 PUSH2 0x20BC JUMP JUMPDEST SWAP3 PUSH1 0xC SLOAD SWAP1 PUSH2 0x21C3 JUMP JUMPDEST SWAP2 DUP3 PUSH1 0x3 DUP4 ADD SSTORE PUSH2 0x19BD DUP4 PUSH2 0x238B JUMP JUMPDEST SWAP2 DUP3 PUSH1 0x5 DUP3 ADD SSTORE PUSH1 0x4 TIMESTAMP SWAP2 ADD SSTORE DUP4 MLOAD SWAP3 DUP4 MSTORE DUP3 ADD MSTORE LOG2 DUP1 RETURN JUMPDEST DUP1 DUP11 MSTORE PUSH1 0x5 DUP9 MSTORE PUSH1 0xA DUP1 PUSH1 0x40 DUP13 KECCAK256 ADD DUP11 DUP13 MSTORE DUP10 MSTORE PUSH1 0xFF PUSH1 0x40 DUP13 KECCAK256 SLOAD AND PUSH2 0x1A06 JUMPI JUMPDEST POP PUSH2 0x1A01 SWAP1 PUSH2 0x237C JUMP JUMPDEST PUSH2 0x193C JUMP JUMPDEST DUP7 SWAP2 SWAP7 ADD DUP1 SWAP2 GT PUSH2 0x1A1A JUMPI SWAP5 PUSH2 0x1A01 PUSH2 0x19F7 JUMP JUMPDEST PUSH4 0x4E487B71 PUSH1 0xE0 SHL DUP11 MSTORE PUSH1 0x11 PUSH1 0x4 MSTORE DUP3 DUP11 REVERT JUMPDEST DUP3 PUSH1 0x5 PUSH1 0x40 SWAP3 DUP8 DUP10 SWAP7 MSTORE MSTORE KECCAK256 ADD SLOAD PUSH1 0x8 SHR AND EQ PUSH2 0x1A53 JUMPI JUMPDEST PUSH2 0x1A4E SWAP1 PUSH2 0x237C JUMP JUMPDEST PUSH2 0x1929 JUMP JUMPDEST SWAP7 PUSH1 0x32 DUP2 ADD DUP1 SWAP2 GT PUSH2 0x1A65 JUMPI SWAP7 PUSH2 0x1A45 JUMP JUMPDEST PUSH4 0x4E487B71 PUSH1 0xE0 SHL DUP13 MSTORE PUSH1 0x11 PUSH1 0x4 MSTORE DUP5 DUP13 REVERT JUMPDEST POP PUSH1 0xA0 DUP2 RETURNDATASIZE DUP3 GT PUSH2 0x1B02 JUMPI JUMPDEST DUP2 PUSH2 0x1A91 PUSH1 0xA0 SWAP4 DUP4 PUSH2 0x1D94 JUMP JUMPDEST DUP2 ADD SUB SLT PUSH2 0x1AFE JUMPI PUSH1 0x40 MLOAD SWAP1 PUSH1 0xA0 DUP3 ADD DUP3 DUP2 LT PUSH8 0xFFFFFFFFFFFFFFFF DUP3 GT OR PUSH2 0x1AEB JUMPI PUSH2 0x1917 SWAP3 SWAP2 PUSH1 0x80 SWAP2 PUSH1 0x40 MSTORE DUP1 MLOAD DUP4 MSTORE DUP9 DUP2 ADD MLOAD DUP10 DUP5 ADD MSTORE PUSH1 0x40 DUP2 ADD MLOAD PUSH1 0x40 DUP5 ADD MSTORE PUSH1 0x60 DUP2 ADD MLOAD PUSH1 0x60 DUP5 ADD MSTORE ADD MLOAD PUSH1 0x80 DUP3 ADD MSTORE PUSH2 0x190D JUMP JUMPDEST PUSH4 0x4E487B71 PUSH1 0xE0 SHL DUP11 MSTORE PUSH1 0x41 PUSH1 0x4 MSTORE DUP5 DUP11 REVERT JUMPDEST DUP8 DUP1 REVERT JUMPDEST RETURNDATASIZE SWAP2 POP PUSH2 0x1A84 JUMP JUMPDEST PUSH1 0x40 MLOAD RETURNDATASIZE DUP11 DUP3 RETURNDATACOPY RETURNDATASIZE SWAP1 REVERT JUMPDEST POP RETURNDATASIZE DUP1 DUP9 DUP4 RETURNDATACOPY PUSH2 0x1B25 DUP2 DUP4 PUSH2 0x1D94 JUMP JUMPDEST DUP2 ADD DUP6 DUP3 DUP3 SUB SLT PUSH2 0x1AFE JUMPI DUP2 MLOAD PUSH8 0xFFFFFFFFFFFFFFFF SWAP3 DUP4 DUP3 GT PUSH2 0x1C31 JUMPI ADD SWAP2 PUSH2 0x160 SWAP2 DUP3 DUP5 DUP3 SUB SLT PUSH2 0x1C31 JUMPI PUSH1 0x40 MLOAD SWAP3 DUP4 ADD DUP4 DUP2 LT DUP4 DUP3 GT OR PUSH2 0x1C39 JUMPI PUSH1 0x40 MSTORE DUP4 MLOAD DUP4 MSTORE PUSH2 0x1B75 DUP9 DUP6 ADD PUSH2 0x2265 JUMP JUMPDEST DUP9 DUP5 ADD MSTORE PUSH1 0x40 DUP5 ADD MLOAD DUP3 DUP2 GT PUSH2 0x1C35 JUMPI DUP2 PUSH2 0x1B91 SWAP2 DUP7 ADD PUSH2 0x2279 JUMP JUMPDEST PUSH1 0x40 DUP5 ADD MSTORE PUSH1 0x60 DUP5 ADD MLOAD DUP3 DUP2 GT PUSH2 0x1C35 JUMPI DUP2 PUSH2 0x1BAE SWAP2 DUP7 ADD PUSH2 0x2279 JUMP JUMPDEST PUSH1 0x60 DUP5 ADD MSTORE PUSH1 0x80 DUP5 ADD MLOAD SWAP2 DUP3 GT PUSH2 0x1C31 JUMPI PUSH2 0x1BCA SWAP2 DUP5 ADD PUSH2 0x2279 JUMP JUMPDEST PUSH1 0x80 DUP3 ADD MSTORE PUSH1 0xA0 DUP3 ADD MLOAD SWAP2 PUSH1 0x4 DUP4 LT ISZERO PUSH2 0x1C2D JUMPI PUSH2 0x120 SWAP3 PUSH1 0xA0 DUP4 ADD MSTORE PUSH1 0xC0 DUP2 ADD MLOAD PUSH1 0xC0 DUP4 ADD MSTORE PUSH1 0xE0 DUP2 ADD MLOAD PUSH1 0xE0 DUP4 ADD MSTORE PUSH2 0x100 PUSH2 0x1C09 DUP2 DUP4 ADD PUSH2 0x2265 JUMP JUMPDEST SWAP1 DUP4 ADD MSTORE DUP3 DUP1 DUP3 ADD MLOAD SWAP1 DUP4 ADD MSTORE PUSH2 0x1C24 PUSH2 0x140 DUP1 SWAP3 ADD PUSH2 0x206F JUMP JUMPDEST SWAP1 DUP3 ADD MSTORE PUSH2 0x18D5 JUMP JUMPDEST DUP9 DUP1 REVERT JUMPDEST DUP10 DUP1 REVERT JUMPDEST DUP11 DUP1 REVERT JUMPDEST PUSH4 0x4E487B71 PUSH1 0xE0 SHL DUP12 MSTORE PUSH1 0x41 PUSH1 0x4 MSTORE DUP6 DUP12 REVERT JUMPDEST POP DUP5 DUP2 DUP2 RETURNDATASIZE DUP4 GT PUSH2 0x1C7B JUMPI JUMPDEST PUSH2 0x1C62 DUP2 DUP4 PUSH2 0x1D94 JUMP JUMPDEST DUP2 ADD SUB SLT PUSH2 0xAAD JUMPI PUSH2 0x1C76 PUSH2 0x18A1 SWAP2 PUSH2 0x206F JUMP JUMPDEST PUSH2 0x1897 JUMP JUMPDEST POP RETURNDATASIZE PUSH2 0x1C58 JUMP JUMPDEST POP CALLVALUE PUSH2 0x279 JUMPI PUSH1 0x20 CALLDATASIZE PUSH1 0x3 NOT ADD SLT PUSH2 0x279 JUMPI PUSH1 0x4 CALLDATALOAD DUP2 MSTORE PUSH1 0x5 PUSH1 0x20 MSTORE PUSH1 0x40 SWAP1 KECCAK256 DUP1 SLOAD PUSH1 0x1 DUP3 ADD SLOAD PUSH1 0x2 DUP4 ADD SLOAD SWAP1 SWAP3 PUSH2 0xB9C SWAP2 PUSH1 0x1 PUSH1 0x1 PUSH1 0xA0 SHL SUB SWAP1 DUP2 AND SWAP2 PUSH2 0x1CCC PUSH1 0x3 DUP3 ADD PUSH2 0x1DB6 JUMP JUMPDEST PUSH2 0x1CD8 PUSH1 0x4 DUP4 ADD PUSH2 0x1DB6 JUMP JUMPDEST PUSH1 0x5 DUP4 ADD SLOAD PUSH1 0x6 DUP5 ADD SLOAD SWAP2 PUSH1 0x7 DUP6 ADD SLOAD SWAP4 PUSH1 0x9 PUSH1 0x8 DUP8 ADD SLOAD SWAP7 ADD SLOAD SWAP8 PUSH1 0x40 MLOAD SWAP12 DUP13 SWAP12 PUSH1 0xFF DUP1 DUP1 DUP14 PUSH1 0x8 SHR AND SWAP13 AND SWAP11 DUP4 PUSH1 0x8 SHR AND SWAP3 AND SWAP1 DUP14 PUSH2 0x1EC7 JUMP JUMPDEST SWAP1 PUSH1 0x1 DUP3 DUP2 SHR SWAP3 AND DUP1 ISZERO PUSH2 0x1D44 JUMPI JUMPDEST PUSH1 0x20 DUP4 LT EQ PUSH2 0x1D2E JUMPI JUMP JUMPDEST PUSH4 0x4E487B71 PUSH1 0xE0 SHL PUSH1 0x0 MSTORE PUSH1 0x22 PUSH1 0x4 MSTORE PUSH1 0x24 PUSH1 0x0 REVERT JUMPDEST SWAP2 PUSH1 0x7F AND SWAP2 PUSH2 0x1D23 JUMP JUMPDEST PUSH8 0xFFFFFFFFFFFFFFFF DUP2 GT PUSH2 0x1D62 JUMPI PUSH1 0x40 MSTORE JUMP JUMPDEST PUSH4 0x4E487B71 PUSH1 0xE0 SHL PUSH1 0x0 MSTORE PUSH1 0x41 PUSH1 0x4 MSTORE PUSH1 0x24 PUSH1 0x0 REVERT JUMPDEST PUSH1 0xC0 DUP2 ADD SWAP1 DUP2 LT PUSH8 0xFFFFFFFFFFFFFFFF DUP3 GT OR PUSH2 0x1D62 JUMPI PUSH1 0x40 MSTORE JUMP JUMPDEST SWAP1 PUSH1 0x1F DUP1 NOT SWAP2 ADD AND DUP2 ADD SWAP1 DUP2 LT PUSH8 0xFFFFFFFFFFFFFFFF DUP3 GT OR PUSH2 0x1D62 JUMPI PUSH1 0x40 MSTORE JUMP JUMPDEST SWAP1 PUSH1 0x40 MLOAD SWAP2 DUP3 PUSH1 0x0 DUP3 SLOAD SWAP3 PUSH2 0x1DCA DUP5 PUSH2 0x1D14 JUMP JUMPDEST SWAP1 DUP2 DUP5 MSTORE PUSH1 0x1 SWAP5 DUP6 DUP2 AND SWAP1 DUP2 PUSH1 0x0 EQ PUSH2 0x1E39 JUMPI POP PUSH1 0x1 EQ PUSH2 0x1DF6 JUMPI JUMPDEST POP POP PUSH2 0x1DF4 SWAP3 POP SUB DUP4 PUSH2 0x1D94 JUMP JUMPDEST JUMP JUMPDEST SWAP1 SWAP4 SWAP2 POP PUSH1 0x0 MSTORE PUSH1 0x20 SWAP1 DUP2 PUSH1 0x0 KECCAK256 SWAP4 PUSH1 0x0 SWAP2 JUMPDEST DUP2 DUP4 LT PUSH2 0x1E21 JUMPI POP POP PUSH2 0x1DF4 SWAP4 POP DUP3 ADD ADD CODESIZE DUP1 PUSH2 0x1DE6 JUMP JUMPDEST DUP6 SLOAD DUP9 DUP5 ADD DUP6 ADD MSTORE SWAP5 DUP6 ADD SWAP5 DUP8 SWAP5 POP SWAP2 DUP4 ADD SWAP2 PUSH2 0x1E09 JUMP JUMPDEST SWAP2 POP POP PUSH2 0x1DF4 SWAP5 POP PUSH1 0x20 SWAP3 POP PUSH1 0xFF NOT AND DUP3 DUP5 ADD MSTORE ISZERO ISZERO PUSH1 0x5 SHL DUP3 ADD ADD CODESIZE DUP1 PUSH2 0x1DE6 JUMP JUMPDEST SWAP1 PUSH1 0x7 DUP3 LT ISZERO PUSH2 0x1E69 JUMPI MSTORE JUMP JUMPDEST PUSH4 0x4E487B71 PUSH1 0xE0 SHL PUSH1 0x0 MSTORE PUSH1 0x21 PUSH1 0x4 MSTORE PUSH1 0x24 PUSH1 0x0 REVERT JUMPDEST PUSH1 0x0 JUMPDEST DUP4 DUP2 LT PUSH2 0x1E92 JUMPI POP POP PUSH1 0x0 SWAP2 ADD MSTORE JUMP JUMPDEST DUP2 DUP2 ADD MLOAD DUP4 DUP3 ADD MSTORE PUSH1 0x20 ADD PUSH2 0x1E82 JUMP JUMPDEST SWAP1 PUSH1 0x20 SWAP2 PUSH2 0x1EBB DUP2 MLOAD DUP1 SWAP3 DUP2 DUP6 MSTORE DUP6 DUP1 DUP7 ADD SWAP2 ADD PUSH2 0x1E7F JUMP JUMPDEST PUSH1 0x1F ADD PUSH1 0x1F NOT AND ADD ADD SWAP1 JUMP JUMPDEST SWAP11 SWAP10 SWAP8 SWAP6 SWAP4 PUSH2 0x1EEA PUSH2 0x1F20 SWAP7 SWAP4 SWAP9 SWAP15 SWAP14 SWAP11 SWAP9 PUSH1 0x20 DUP15 PUSH2 0x1F12 SWAP8 SWAP6 DUP2 MSTORE ADD SWAP1 PUSH2 0x1E5C JUMP JUMPDEST PUSH1 0x1 PUSH1 0x1 PUSH1 0xA0 SHL SUB SWAP2 DUP3 AND PUSH1 0x40 DUP14 ADD MSTORE AND PUSH1 0x60 DUP12 ADD MSTORE PUSH2 0x180 PUSH1 0x80 DUP12 ADD DUP2 SWAP1 MSTORE DUP11 ADD SWAP1 PUSH2 0x1EA2 JUMP JUMPDEST SWAP1 DUP9 DUP3 SUB PUSH1 0xA0 DUP11 ADD MSTORE PUSH2 0x1EA2 JUMP JUMPDEST SWAP8 PUSH1 0xC0 DUP8 ADD MSTORE PUSH1 0xE0 DUP7 ADD MSTORE PUSH2 0x100 DUP6 ADD MSTORE PUSH2 0x120 DUP5 ADD MSTORE PUSH1 0x4 DUP3 LT ISZERO PUSH2 0x1E69 JUMPI PUSH2 0x160 SWAP2 PUSH2 0x140 DUP5 ADD MSTORE ISZERO ISZERO SWAP2 ADD MSTORE JUMP JUMPDEST PUSH1 0x4 CALLDATALOAD SWAP1 PUSH1 0x1 PUSH1 0x1 PUSH1 0xA0 SHL SUB DUP3 AND DUP3 SUB PUSH2 0x85F JUMPI JUMP JUMPDEST PUSH1 0xD SLOAD DUP2 LT ISZERO PUSH2 0x1F9E JUMPI PUSH1 0xD PUSH1 0x0 MSTORE PUSH32 0xD7B6990105719101DABEB77144F2A3385C8033ACD3AF97E9423A695E81AD1EB5 ADD SWAP1 PUSH1 0x0 SWAP1 JUMP JUMPDEST PUSH4 0x4E487B71 PUSH1 0xE0 SHL PUSH1 0x0 MSTORE PUSH1 0x32 PUSH1 0x4 MSTORE PUSH1 0x24 PUSH1 0x0 REVERT JUMPDEST PUSH8 0xFFFFFFFFFFFFFFFF DUP2 GT PUSH2 0x1D62 JUMPI PUSH1 0x1F ADD PUSH1 0x1F NOT AND PUSH1 0x20 ADD SWAP1 JUMP JUMPDEST DUP2 PUSH1 0x1F DUP3 ADD SLT ISZERO PUSH2 0x85F JUMPI DUP1 CALLDATALOAD SWAP1 PUSH2 0x1FE7 DUP3 PUSH2 0x1FB4 JUMP JUMPDEST SWAP3 PUSH2 0x1FF5 PUSH1 0x40 MLOAD SWAP5 DUP6 PUSH2 0x1D94 JUMP JUMPDEST DUP3 DUP5 MSTORE PUSH1 0x20 DUP4 DUP4 ADD ADD GT PUSH2 0x85F JUMPI DUP2 PUSH1 0x0 SWAP3 PUSH1 0x20 DUP1 SWAP4 ADD DUP4 DUP7 ADD CALLDATACOPY DUP4 ADD ADD MSTORE SWAP1 JUMP JUMPDEST PUSH1 0x0 SLOAD PUSH1 0x1 PUSH1 0x1 PUSH1 0xA0 SHL SUB AND CALLER SUB PUSH2 0x202B JUMPI JUMP JUMPDEST PUSH1 0x64 PUSH1 0x40 MLOAD PUSH3 0x461BCD PUSH1 0xE5 SHL DUP2 MSTORE PUSH1 0x20 PUSH1 0x4 DUP3 ADD MSTORE PUSH1 0x20 PUSH1 0x24 DUP3 ADD MSTORE PUSH32 0x4F776E61626C653A2063616C6C6572206973206E6F7420746865206F776E6572 PUSH1 0x44 DUP3 ADD MSTORE REVERT JUMPDEST MLOAD SWAP1 DUP2 ISZERO ISZERO DUP3 SUB PUSH2 0x85F JUMPI JUMP JUMPDEST ISZERO PUSH2 0x2083 JUMPI JUMP JUMPDEST PUSH1 0x40 MLOAD PUSH3 0x461BCD PUSH1 0xE5 SHL DUP2 MSTORE PUSH1 0x20 PUSH1 0x4 DUP3 ADD MSTORE PUSH1 0x11 PUSH1 0x24 DUP3 ADD MSTORE PUSH17 0x155CD95C881B9BDD081D995C9A599A5959 PUSH1 0x7A SHL PUSH1 0x44 DUP3 ADD MSTORE PUSH1 0x64 SWAP1 REVERT JUMPDEST SWAP2 SWAP1 DUP3 ADD DUP1 SWAP3 GT PUSH2 0x20C9 JUMPI JUMP JUMPDEST PUSH4 0x4E487B71 PUSH1 0xE0 SHL PUSH1 0x0 MSTORE PUSH1 0x11 PUSH1 0x4 MSTORE PUSH1 0x24 PUSH1 0x0 REVERT JUMPDEST PUSH1 0x2 PUSH1 0x1 SLOAD EQ PUSH2 0x20F0 JUMPI PUSH1 0x2 PUSH1 0x1 SSTORE JUMP JUMPDEST PUSH1 0x40 MLOAD PUSH3 0x461BCD PUSH1 0xE5 SHL DUP2 MSTORE PUSH1 0x20 PUSH1 0x4 DUP3 ADD MSTORE PUSH1 0x1F PUSH1 0x24 DUP3 ADD MSTORE PUSH32 0x5265656E7472616E637947756172643A207265656E7472616E742063616C6C00 PUSH1 0x44 DUP3 ADD MSTORE PUSH1 0x64 SWAP1 REVERT JUMPDEST ISZERO PUSH2 0x213C JUMPI JUMP JUMPDEST PUSH1 0x40 MLOAD PUSH3 0x461BCD PUSH1 0xE5 SHL DUP2 MSTORE PUSH1 0x20 PUSH1 0x4 DUP3 ADD MSTORE PUSH1 0x17 PUSH1 0x24 DUP3 ADD MSTORE PUSH32 0x50726F706F73616C20646F6573206E6F74206578697374000000000000000000 PUSH1 0x44 DUP3 ADD MSTORE PUSH1 0x64 SWAP1 REVERT JUMPDEST ISZERO PUSH2 0x2188 JUMPI JUMP JUMPDEST PUSH1 0x40 MLOAD PUSH3 0x461BCD PUSH1 0xE5 SHL DUP2 MSTORE PUSH1 0x20 PUSH1 0x4 DUP3 ADD MSTORE PUSH1 0x13 PUSH1 0x24 DUP3 ADD MSTORE PUSH19 0x50726F706F73616C206E6F7420616374697665 PUSH1 0x68 SHL PUSH1 0x44 DUP3 ADD MSTORE PUSH1 0x64 SWAP1 REVERT JUMPDEST DUP2 DUP2 MUL SWAP3 SWAP2 DUP2 ISZERO SWAP2 DUP5 DIV EQ OR ISZERO PUSH2 0x20C9 JUMPI JUMP JUMPDEST PUSH1 0x1 PUSH1 0x1 PUSH1 0xA0 SHL SUB AND PUSH1 0x0 DUP2 DUP2 MSTORE PUSH1 0x6 PUSH1 0x20 MSTORE PUSH1 0x40 SWAP1 DUP2 SWAP1 KECCAK256 SWAP1 MLOAD PUSH2 0x21FA DUP2 PUSH2 0x1D78 JUMP JUMPDEST DUP2 SLOAD DUP2 MSTORE PUSH1 0x1 DUP3 ADD SLOAD PUSH1 0x20 DUP3 ADD MSTORE PUSH1 0x2 DUP3 ADD SLOAD PUSH1 0x40 DUP3 ADD MSTORE PUSH1 0xA0 PUSH1 0x5 PUSH1 0x3 DUP5 ADD SLOAD SWAP4 DUP5 PUSH1 0x60 DUP6 ADD MSTORE PUSH1 0x4 DUP2 ADD SLOAD PUSH1 0x80 DUP6 ADD MSTORE ADD SLOAD SWAP2 ADD MSTORE DUP1 SWAP2 PUSH1 0x0 MSTORE PUSH1 0x7 PUSH1 0x20 MSTORE PUSH1 0xFF PUSH1 0x40 PUSH1 0x0 KECCAK256 SLOAD AND PUSH2 0x224C JUMPI POP SWAP1 JUMP JUMPDEST PUSH2 0x2262 SWAP2 POP PUSH1 0x9 PUSH1 0x20 MSTORE PUSH1 0x40 PUSH1 0x0 KECCAK256 SLOAD SWAP1 PUSH2 0x20BC JUMP JUMPDEST SWAP1 JUMP JUMPDEST MLOAD SWAP1 PUSH1 0x1 PUSH1 0x1 PUSH1 0xA0 SHL SUB DUP3 AND DUP3 SUB PUSH2 0x85F JUMPI JUMP JUMPDEST DUP2 PUSH1 0x1F DUP3 ADD SLT ISZERO PUSH2 0x85F JUMPI DUP1 MLOAD PUSH2 0x228F DUP2 PUSH2 0x1FB4 JUMP JUMPDEST SWAP3 PUSH2 0x229D PUSH1 0x40 MLOAD SWAP5 DUP6 PUSH2 0x1D94 JUMP JUMPDEST DUP2 DUP5 MSTORE PUSH1 0x20 DUP3 DUP5 ADD ADD GT PUSH2 0x85F JUMPI PUSH2 0x2262 SWAP2 PUSH1 0x20 DUP1 DUP6 ADD SWAP2 ADD PUSH2 0x1E7F JUMP JUMPDEST DUP1 MLOAD ISZERO PUSH2 0x2376 JUMPI PUSH1 0x20 DUP2 ADD MLOAD PUSH1 0x64 DUP2 MUL SWAP1 DUP1 DUP3 DIV PUSH1 0x64 EQ SWAP1 ISZERO OR ISZERO PUSH2 0x20C9 JUMPI DUP2 MLOAD SWAP1 DUP2 ISZERO PUSH2 0x2360 JUMPI DIV SWAP1 MLOAD PUSH1 0xA DUP2 MUL SWAP2 DUP2 DUP4 DIV PUSH1 0xA EQ DUP3 ISZERO OR ISZERO PUSH2 0x20C9 JUMPI PUSH1 0x5A DUP2 LT PUSH2 0x2317 JUMPI POP PUSH1 0x14 MUL SWAP1 DUP1 DUP3 DIV PUSH1 0x2 EQ SWAP1 ISZERO OR ISZERO PUSH2 0x20C9 JUMPI SWAP1 JUMP JUMPDEST PUSH1 0x50 DUP2 LT PUSH2 0x233A JUMPI POP PUSH2 0x5DC MUL SWAP1 DUP1 DUP3 DIV PUSH1 0x96 EQ SWAP1 ISZERO OR ISZERO PUSH2 0x20C9 JUMPI PUSH1 0x64 SWAP1 DIV SWAP1 JUMP JUMPDEST PUSH1 0x46 GT ISZERO PUSH2 0x2346 JUMPI POP SWAP1 JUMP JUMPDEST PUSH2 0x4B0 MUL SWAP1 DUP1 DUP3 DIV PUSH1 0x78 EQ SWAP1 ISZERO OR ISZERO PUSH2 0x20C9 JUMPI PUSH1 0x64 SWAP1 DIV SWAP1 JUMP JUMPDEST PUSH4 0x4E487B71 PUSH1 0xE0 SHL PUSH1 0x0 MSTORE PUSH1 0x12 PUSH1 0x4 MSTORE PUSH1 0x24 PUSH1 0x0 REVERT JUMPDEST POP PUSH1 0x0 SWAP1 JUMP JUMPDEST PUSH1 0x0 NOT DUP2 EQ PUSH2 0x20C9 JUMPI PUSH1 0x1 ADD SWAP1 JUMP JUMPDEST PUSH1 0x0 DUP1 SWAP2 PUSH1 0xD SLOAD SWAP3 JUMPDEST DUP4 DUP2 LT PUSH2 0x23A4 JUMPI POP POP POP POP PUSH1 0xA SWAP1 JUMP JUMPDEST PUSH2 0x23AD DUP2 PUSH2 0x1F67 JUMP JUMPDEST SWAP1 SLOAD SWAP1 PUSH1 0x3 SHL SHR DUP3 LT PUSH2 0x23C8 JUMPI PUSH2 0x23C3 SWAP1 PUSH2 0x237C JUMP JUMPDEST PUSH2 0x2394 JUMP JUMPDEST DUP1 SWAP4 POP PUSH1 0x1 SWAP2 POP ADD DUP1 SWAP3 GT PUSH2 0x5E1 JUMPI POP SWAP1 JUMP JUMPDEST ISZERO PUSH2 0x23E2 JUMPI JUMP JUMPDEST PUSH1 0x40 MLOAD PUSH3 0x461BCD PUSH1 0xE5 SHL DUP2 MSTORE PUSH1 0x20 PUSH1 0x4 DUP3 ADD MSTORE PUSH1 0x9 PUSH1 0x24 DUP3 ADD MSTORE PUSH9 0x4E6F7420612044414F PUSH1 0xB8 SHL PUSH1 0x44 DUP3 ADD MSTORE PUSH1 0x64 SWAP1 REVERT JUMPDEST ISZERO PUSH2 0x241A JUMPI JUMP JUMPDEST PUSH1 0x40 MLOAD PUSH3 0x461BCD PUSH1 0xE5 SHL DUP2 MSTORE PUSH1 0x20 PUSH1 0x4 DUP3 ADD MSTORE PUSH1 0x1D PUSH1 0x24 DUP3 ADD MSTORE PUSH32 0x416D6F756E74206D7573742062652067726561746572207468616E2030000000 PUSH1 0x44 DUP3 ADD MSTORE PUSH1 0x64 SWAP1 REVERT JUMPDEST PUSH1 0x0 DUP1 PUSH1 0x1 SWAP1 PUSH1 0x2 SLOAD JUMPDEST DUP1 DUP4 GT ISZERO PUSH2 0x2477 JUMPI POP POP POP SWAP1 JUMP JUMPDEST SWAP1 SWAP2 SWAP3 PUSH2 0x3E8 DUP2 ADD DUP1 SWAP2 GT PUSH2 0x2497 JUMPI PUSH2 0x2490 SWAP1 SWAP4 PUSH2 0x237C JUMP JUMPDEST SWAP2 SWAP1 PUSH2 0x2469 JUMP JUMPDEST PUSH4 0x4E487B71 PUSH1 0xE0 SHL DUP4 MSTORE PUSH1 0x11 PUSH1 0x4 MSTORE PUSH1 0x24 DUP4 REVERT INVALID JUMPDEST SWAP7 EQ CALLCODE OR PUSH20 0xD68C0B149BDA804FF3D491C8BC8795F7ED236CC9 PUSH25 0x4CD005389A26469706673582212205FB03D539657147291B2 0xF6 0x27 PUSH12 0xE6C1B42096517F62A693F860 DUP8 0xEF SUB PUSH20 0x628D8C64736F6C63430008130033000000000000 "},"methodIdentifiers":{"APPROVAL_THRESHOLD()":"3ab34290","MIN_PROPOSAL_THRESHOLD()":"791f5d23","QUORUM_THRESHOLD()":"5e510b60","VOTING_DURATION()":"a438d208","admins(address)":"429b62e5","calculateVotingPower(address)":"59d177e6","communityWeight()":"548aa6d6","createProposal(uint8,address,string,string)":"e2aa436b","daoStakes(address)":"6dc918d0","daos(address)":"c25f3cf6","executeProposal(uint256)":"0d61b519","getProposal(uint256)":"c7f758a8","getReputationMetrics(address)":"1ee8181c","getTotalProposals()":"1a5007dd","getTotalStake()":"7bc74225","owner()":"8da5cb5b","paymentWeight()":"a06b921a","profileRegistry()":"c9bb1a48","profileWeight()":"90e08056","proposals(uint256)":"013cf08b","renounceOwnership()":"715018a6","reputationLevels(uint256)":"942b23da","reputationMetrics(address)":"858fe179","stakeAsDAO(uint256)":"66b3bd5a","transferOwnership(address)":"f2fde38b","unstakeAsDAO(uint256)":"fdee50dd","updateReputationMetrics(address)":"084346e5","updateScoringWeights(uint256,uint256,uint256)":"6277f6c6","utilityPayment()":"409294a1","vote(uint256,bool)":"c9d27afe"}}}}}