{
  "_format": "hh-sol-artifact-1",
  "contractName": "UtilityPayment",
  "sourceName": "contracts/UtilityPayment.sol",
  "abi": [
    {
      "inputs": [
        {
          "internalType": "address",
          "name": "_profileRegistry",
          "type": "address"
        },
        {
          "internalType": "address",
          "name": "_nexusToken",
          "type": "address"
        },
        {
          "internalType": "address",
          "name": "_feeRecipient",
          "type": "address"
        }
      ],
      "stateMutability": "nonpayable",
      "type": "constructor"
    },
    {
      "anonymous": false,
      "inputs": [
        {
          "indexed": true,
          "internalType": "uint256",
          "name": "billId",
          "type": "uint256"
        },
        {
          "indexed": true,
          "internalType": "address",
          "name": "user",
          "type": "address"
        },
        {
          "indexed": false,
          "internalType": "enum UtilityPayment.BillType",
          "name": "billType",
          "type": "uint8"
        },
        {
          "indexed": false,
          "internalType": "uint256",
          "name": "amount",
          "type": "uint256"
        },
        {
          "indexed": false,
          "internalType": "uint256",
          "name": "dueDate",
          "type": "uint256"
        }
      ],
      "name": "BillCreated",
      "type": "event"
    },
    {
      "anonymous": false,
      "inputs": [
        {
          "indexed": true,
          "internalType": "address",
          "name": "previousOwner",
          "type": "address"
        },
        {
          "indexed": true,
          "internalType": "address",
          "name": "newOwner",
          "type": "address"
        }
      ],
      "name": "OwnershipTransferred",
      "type": "event"
    },
    {
      "anonymous": false,
      "inputs": [
        {
          "indexed": true,
          "internalType": "uint256",
          "name": "paymentId",
          "type": "uint256"
        },
        {
          "indexed": true,
          "internalType": "uint256",
          "name": "billId",
          "type": "uint256"
        },
        {
          "indexed": true,
          "internalType": "address",
          "name": "user",
          "type": "address"
        },
        {
          "indexed": false,
          "internalType": "uint256",
          "name": "amount",
          "type": "uint256"
        },
        {
          "indexed": false,
          "internalType": "uint256",
          "name": "rewardEarned",
          "type": "uint256"
        }
      ],
      "name": "PaymentMade",
      "type": "event"
    },
    {
      "anonymous": false,
      "inputs": [
        {
          "indexed": false,
          "internalType": "uint256",
          "name": "newFeeRate",
          "type": "uint256"
        }
      ],
      "name": "PlatformFeeUpdated",
      "type": "event"
    },
    {
      "anonymous": false,
      "inputs": [
        {
          "indexed": true,
          "internalType": "address",
          "name": "provider",
          "type": "address"
        }
      ],
      "name": "ProviderAuthorized",
      "type": "event"
    },
    {
      "anonymous": false,
      "inputs": [
        {
          "indexed": true,
          "internalType": "address",
          "name": "provider",
          "type": "address"
        }
      ],
      "name": "ProviderDeauthorized",
      "type": "event"
    },
    {
      "anonymous": false,
      "inputs": [
        {
          "indexed": true,
          "internalType": "address",
          "name": "user",
          "type": "address"
        },
        {
          "indexed": false,
          "internalType": "uint256",
          "name": "amount",
          "type": "uint256"
        }
      ],
      "name": "RewardDistributed",
      "type": "event"
    },
    {
      "anonymous": false,
      "inputs": [
        {
          "indexed": false,
          "internalType": "uint256",
          "name": "newRate",
          "type": "uint256"
        }
      ],
      "name": "RewardRateUpdated",
      "type": "event"
    },
    {
      "inputs": [],
      "name": "EARLY_PAYMENT_THRESHOLD",
      "outputs": [
        {
          "internalType": "uint256",
          "name": "",
          "type": "uint256"
        }
      ],
      "stateMutability": "view",
      "type": "function"
    },
    {
      "inputs": [],
      "name": "OVERDUE_PENALTY_DAYS",
      "outputs": [
        {
          "internalType": "uint256",
          "name": "",
          "type": "uint256"
        }
      ],
      "stateMutability": "view",
      "type": "function"
    },
    {
      "inputs": [
        {
          "internalType": "address",
          "name": "_provider",
          "type": "address"
        }
      ],
      "name": "authorizeProvider",
      "outputs": [],
      "stateMutability": "nonpayable",
      "type": "function"
    },
    {
      "inputs": [
        {
          "internalType": "address",
          "name": "",
          "type": "address"
        }
      ],
      "name": "authorizedProviders",
      "outputs": [
        {
          "internalType": "bool",
          "name": "",
          "type": "bool"
        }
      ],
      "stateMutability": "view",
      "type": "function"
    },
    {
      "inputs": [
        {
          "internalType": "uint256",
          "name": "",
          "type": "uint256"
        }
      ],
      "name": "bills",
      "outputs": [
        {
          "internalType": "uint256",
          "name": "billId",
          "type": "uint256"
        },
        {
          "internalType": "address",
          "name": "user",
          "type": "address"
        },
        {
          "internalType": "enum UtilityPayment.BillType",
          "name": "billType",
          "type": "uint8"
        },
        {
          "internalType": "string",
          "name": "provider",
          "type": "string"
        },
        {
          "internalType": "uint256",
          "name": "amount",
          "type": "uint256"
        },
        {
          "internalType": "uint256",
          "name": "dueDate",
          "type": "uint256"
        },
        {
          "internalType": "uint256",
          "name": "createdAt",
          "type": "uint256"
        },
        {
          "internalType": "bool",
          "name": "isPaid",
          "type": "bool"
        },
        {
          "internalType": "bool",
          "name": "isOverdue",
          "type": "bool"
        },
        {
          "internalType": "string",
          "name": "metadata",
          "type": "string"
        }
      ],
      "stateMutability": "view",
      "type": "function"
    },
    {
      "inputs": [
        {
          "internalType": "uint256",
          "name": "_billId",
          "type": "uint256"
        }
      ],
      "name": "calculateReward",
      "outputs": [
        {
          "internalType": "uint256",
          "name": "",
          "type": "uint256"
        }
      ],
      "stateMutability": "view",
      "type": "function"
    },
    {
      "inputs": [
        {
          "internalType": "address",
          "name": "_user",
          "type": "address"
        },
        {
          "internalType": "enum UtilityPayment.BillType",
          "name": "_billType",
          "type": "uint8"
        },
        {
          "internalType": "string",
          "name": "_provider",
          "type": "string"
        },
        {
          "internalType": "uint256",
          "name": "_amount",
          "type": "uint256"
        },
        {
          "internalType": "uint256",
          "name": "_dueDate",
          "type": "uint256"
        },
        {
          "internalType": "string",
          "name": "_metadata",
          "type": "string"
        }
      ],
      "name": "createBill",
      "outputs": [
        {
          "internalType": "uint256",
          "name": "",
          "type": "uint256"
        }
      ],
      "stateMutability": "nonpayable",
      "type": "function"
    },
    {
      "inputs": [
        {
          "internalType": "address",
          "name": "_provider",
          "type": "address"
        }
      ],
      "name": "deauthorizeProvider",
      "outputs": [],
      "stateMutability": "nonpayable",
      "type": "function"
    },
    {
      "inputs": [],
      "name": "earlyPaymentBonus",
      "outputs": [
        {
          "internalType": "uint256",
          "name": "",
          "type": "uint256"
        }
      ],
      "stateMutability": "view",
      "type": "function"
    },
    {
      "inputs": [],
      "name": "emergencyWithdraw",
      "outputs": [],
      "stateMutability": "nonpayable",
      "type": "function"
    },
    {
      "inputs": [],
      "name": "feeRecipient",
      "outputs": [
        {
          "internalType": "address",
          "name": "",
          "type": "address"
        }
      ],
      "stateMutability": "view",
      "type": "function"
    },
    {
      "inputs": [
        {
          "internalType": "uint256",
          "name": "_billId",
          "type": "uint256"
        }
      ],
      "name": "getBill",
      "outputs": [
        {
          "components": [
            {
              "internalType": "uint256",
              "name": "billId",
              "type": "uint256"
            },
            {
              "internalType": "address",
              "name": "user",
              "type": "address"
            },
            {
              "internalType": "enum UtilityPayment.BillType",
              "name": "billType",
              "type": "uint8"
            },
            {
              "internalType": "string",
              "name": "provider",
              "type": "string"
            },
            {
              "internalType": "uint256",
              "name": "amount",
              "type": "uint256"
            },
            {
              "internalType": "uint256",
              "name": "dueDate",
              "type": "uint256"
            },
            {
              "internalType": "uint256",
              "name": "createdAt",
              "type": "uint256"
            },
            {
              "internalType": "bool",
              "name": "isPaid",
              "type": "bool"
            },
            {
              "internalType": "bool",
              "name": "isOverdue",
              "type": "bool"
            },
            {
              "internalType": "string",
              "name": "metadata",
              "type": "string"
            }
          ],
          "internalType": "struct UtilityPayment.UtilityBill",
          "name": "",
          "type": "tuple"
        }
      ],
      "stateMutability": "view",
      "type": "function"
    },
    {
      "inputs": [
        {
          "internalType": "uint256",
          "name": "_paymentId",
          "type": "uint256"
        }
      ],
      "name": "getPayment",
      "outputs": [
        {
          "components": [
            {
              "internalType": "uint256",
              "name": "paymentId",
              "type": "uint256"
            },
            {
              "internalType": "uint256",
              "name": "billId",
              "type": "uint256"
            },
            {
              "internalType": "address",
              "name": "user",
              "type": "address"
            },
            {
              "internalType": "uint256",
              "name": "amount",
              "type": "uint256"
            },
            {
              "internalType": "uint256",
              "name": "paidAt",
              "type": "uint256"
            },
            {
              "internalType": "enum UtilityPayment.PaymentStatus",
              "name": "status",
              "type": "uint8"
            },
            {
              "internalType": "string",
              "name": "transactionHash",
              "type": "string"
            },
            {
              "internalType": "uint256",
              "name": "rewardEarned",
              "type": "uint256"
            }
          ],
          "internalType": "struct UtilityPayment.Payment",
          "name": "",
          "type": "tuple"
        }
      ],
      "stateMutability": "view",
      "type": "function"
    },
    {
      "inputs": [
        {
          "internalType": "address",
          "name": "_user",
          "type": "address"
        }
      ],
      "name": "getPaymentHistory",
      "outputs": [
        {
          "components": [
            {
              "internalType": "uint256",
              "name": "totalPayments",
              "type": "uint256"
            },
            {
              "internalType": "uint256",
              "name": "onTimePayments",
              "type": "uint256"
            },
            {
              "internalType": "uint256",
              "name": "overduePayments",
              "type": "uint256"
            },
            {
              "internalType": "uint256",
              "name": "totalRewardsEarned",
              "type": "uint256"
            },
            {
              "internalType": "uint256",
              "name": "lastPaymentDate",
              "type": "uint256"
            }
          ],
          "internalType": "struct UtilityPayment.PaymentHistory",
          "name": "",
          "type": "tuple"
        }
      ],
      "stateMutability": "view",
      "type": "function"
    },
    {
      "inputs": [],
      "name": "getTotalBills",
      "outputs": [
        {
          "internalType": "uint256",
          "name": "",
          "type": "uint256"
        }
      ],
      "stateMutability": "view",
      "type": "function"
    },
    {
      "inputs": [],
      "name": "getTotalPayments",
      "outputs": [
        {
          "internalType": "uint256",
          "name": "",
          "type": "uint256"
        }
      ],
      "stateMutability": "view",
      "type": "function"
    },
    {
      "inputs": [
        {
          "internalType": "address",
          "name": "_user",
          "type": "address"
        }
      ],
      "name": "getUserBills",
      "outputs": [
        {
          "internalType": "uint256[]",
          "name": "",
          "type": "uint256[]"
        }
      ],
      "stateMutability": "view",
      "type": "function"
    },
    {
      "inputs": [
        {
          "internalType": "address",
          "name": "_user",
          "type": "address"
        }
      ],
      "name": "getUserPayments",
      "outputs": [
        {
          "internalType": "uint256[]",
          "name": "",
          "type": "uint256[]"
        }
      ],
      "stateMutability": "view",
      "type": "function"
    },
    {
      "inputs": [
        {
          "internalType": "uint256",
          "name": "_billId",
          "type": "uint256"
        }
      ],
      "name": "markBillOverdue",
      "outputs": [],
      "stateMutability": "nonpayable",
      "type": "function"
    },
    {
      "inputs": [],
      "name": "nexusToken",
      "outputs": [
        {
          "internalType": "contract IERC20",
          "name": "",
          "type": "address"
        }
      ],
      "stateMutability": "view",
      "type": "function"
    },
    {
      "inputs": [],
      "name": "onTimeRewardRate",
      "outputs": [
        {
          "internalType": "uint256",
          "name": "",
          "type": "uint256"
        }
      ],
      "stateMutability": "view",
      "type": "function"
    },
    {
      "inputs": [],
      "name": "owner",
      "outputs": [
        {
          "internalType": "address",
          "name": "",
          "type": "address"
        }
      ],
      "stateMutability": "view",
      "type": "function"
    },
    {
      "inputs": [
        {
          "internalType": "uint256",
          "name": "_billId",
          "type": "uint256"
        }
      ],
      "name": "payBill",
      "outputs": [],
      "stateMutability": "payable",
      "type": "function"
    },
    {
      "inputs": [
        {
          "internalType": "address",
          "name": "",
          "type": "address"
        }
      ],
      "name": "paymentHistories",
      "outputs": [
        {
          "internalType": "uint256",
          "name": "totalPayments",
          "type": "uint256"
        },
        {
          "internalType": "uint256",
          "name": "onTimePayments",
          "type": "uint256"
        },
        {
          "internalType": "uint256",
          "name": "overduePayments",
          "type": "uint256"
        },
        {
          "internalType": "uint256",
          "name": "totalRewardsEarned",
          "type": "uint256"
        },
        {
          "internalType": "uint256",
          "name": "lastPaymentDate",
          "type": "uint256"
        }
      ],
      "stateMutability": "view",
      "type": "function"
    },
    {
      "inputs": [
        {
          "internalType": "uint256",
          "name": "",
          "type": "uint256"
        }
      ],
      "name": "payments",
      "outputs": [
        {
          "internalType": "uint256",
          "name": "paymentId",
          "type": "uint256"
        },
        {
          "internalType": "uint256",
          "name": "billId",
          "type": "uint256"
        },
        {
          "internalType": "address",
          "name": "user",
          "type": "address"
        },
        {
          "internalType": "uint256",
          "name": "amount",
          "type": "uint256"
        },
        {
          "internalType": "uint256",
          "name": "paidAt",
          "type": "uint256"
        },
        {
          "internalType": "enum UtilityPayment.PaymentStatus",
          "name": "status",
          "type": "uint8"
        },
        {
          "internalType": "string",
          "name": "transactionHash",
          "type": "string"
        },
        {
          "internalType": "uint256",
          "name": "rewardEarned",
          "type": "uint256"
        }
      ],
      "stateMutability": "view",
      "type": "function"
    },
    {
      "inputs": [],
      "name": "platformFeeRate",
      "outputs": [
        {
          "internalType": "uint256",
          "name": "",
          "type": "uint256"
        }
      ],
      "stateMutability": "view",
      "type": "function"
    },
    {
      "inputs": [],
      "name": "profileRegistry",
      "outputs": [
        {
          "internalType": "contract ProfileRegistry",
          "name": "",
          "type": "address"
        }
      ],
      "stateMutability": "view",
      "type": "function"
    },
    {
      "inputs": [],
      "name": "renounceOwnership",
      "outputs": [],
      "stateMutability": "nonpayable",
      "type": "function"
    },
    {
      "inputs": [
        {
          "internalType": "address",
          "name": "newOwner",
          "type": "address"
        }
      ],
      "name": "transferOwnership",
      "outputs": [],
      "stateMutability": "nonpayable",
      "type": "function"
    },
    {
      "inputs": [
        {
          "internalType": "address",
          "name": "_newFeeRecipient",
          "type": "address"
        }
      ],
      "name": "updateFeeRecipient",
      "outputs": [],
      "stateMutability": "nonpayable",
      "type": "function"
    },
    {
      "inputs": [
        {
          "internalType": "uint256",
          "name": "_newFeeRate",
          "type": "uint256"
        }
      ],
      "name": "updatePlatformFeeRate",
      "outputs": [],
      "stateMutability": "nonpayable",
      "type": "function"
    },
    {
      "inputs": [
        {
          "internalType": "uint256",
          "name": "_newRate",
          "type": "uint256"
        }
      ],
      "name": "updateRewardRate",
      "outputs": [],
      "stateMutability": "nonpayable",
      "type": "function"
    },
    {
      "inputs": [
        {
          "internalType": "address",
          "name": "",
          "type": "address"
        },
        {
          "internalType": "uint256",
          "name": "",
          "type": "uint256"
        }
      ],
      "name": "userBills",
      "outputs": [
        {
          "internalType": "uint256",
          "name": "",
          "type": "uint256"
        }
      ],
      "stateMutability": "view",
      "type": "function"
    },
    {
      "inputs": [
        {
          "internalType": "address",
          "name": "",
          "type": "address"
        },
        {
          "internalType": "uint256",
          "name": "",
          "type": "uint256"
        }
      ],
      "name": "userPayments",
      "outputs": [
        {
          "internalType": "uint256",
          "name": "",
          "type": "uint256"
        }
      ],
      "stateMutability": "view",
      "type": "function"
    }
  ],
  "bytecode": "0x6080346200011157601f6200237838819003918201601f19168301916001600160401b038311848410176200011657808492606094604052833981010312620001115760406200004f826200012c565b6200006a8262000062602086016200012c565b94016200012c565b600080546001600160a01b0319808216339081178455865197939591946001600160a01b039490938593919284929183167f8be0079c531659141344cd1fd0a4f28419497f9722a3daafe3b4186f6b6457e08a80a3600180556005600c556002600d556001600e5516856004541617600455168360055416176005551690600f541617600f55338152600b60205220600160ff198254161790556122369081620001428239f35b600080fd5b634e487b7160e01b600052604160045260246000fd5b51906001600160a01b0382168203620001115756fe6080604052600436101561001257600080fd5b60003560e01c8063112ea26214611b8257806328bdcde814611ab55780633280a836146119265780633c6fa7651461190857806346904840146118df5780634dee07df146118c157806353445e221461185b578063673b57e9146117f5578063682ab743146117ab57806369dc3ae21461176c57806369fcf0f91461174e578063708f29a614611730578063715018a6146116d757806378f337e7146116ae5780637da2ba7c146115f457806387d81789146115515780638cfeab35146114f95780638da5cb5b146114d057806394ed4d3e146114b257806399df7612146114945780639d7dadeb1461141c5780639ef3a2611461138b578063ae3b7f06146112fd578063b1cd06e614611138578063c9bb1a481461110f578063d2d7231f146110e9578063db2e21bc146110a2578063de65483d14610b04578063de8c656814610a26578063e65ef7f51461099e578063eeca08f014610980578063f0975190146102e0578063f160d3691461025b5763f2fde38b1461019257600080fd5b34610256576020366003190112610256576101ab611c37565b6101b3611ebf565b6001600160a01b0390811690811561020257600054826001600160601b0360a01b821617600055167f8be0079c531659141344cd1fd0a4f28419497f9722a3daafe3b4186f6b6457e0600080a3005b60405162461bcd60e51b815260206004820152602660248201527f4f776e61626c653a206e6577206f776e657220697320746865207a65726f206160448201526564647265737360d01b6064820152608490fd5b600080fd5b3461025657602036600319011261025657610274611c37565b61027c611ebf565b6001600160a01b031680156102a3576001600160601b0360a01b600f541617600f55600080f35b60405162461bcd60e51b8152602060048201526015602482015274125b9d985b1a5908199959481c9958da5c1a595b9d605a1b6044820152606490fd5b602036600319011261025657600435151580610972575b61030090611fa9565b6024602060018060a01b03600454166040519283809263b9209e3360e01b82523360048301525afa90811561060157600091610953575b501561091a576002600154146108d5576002600155600435600052600660205260406000203360018060a01b036001830154160361089f57600681019081549061038460ff831615612003565b600381015480341061085a576103a960646103a1600e5484612043565b04809261206c565b9360016103b7600435612095565b9460ff191617905560016002540193846002556003830154604051906103dc82611c87565b86825260043560208301523360408301526060820152426080820152600160a08201526040519081602081011067ffffffffffffffff60208401111761082e57602082016040526000825260c081019182528560e082015286600052600760205260406000209181518355602082015160018401556002830160018060a01b036040840151166001600160601b0360a01b82541617905560608201516003840155608082015160048401556005830160a083015160048110156108445760ff801983541691161790555180519067ffffffffffffffff821161082e576104c56006850154611c4d565b601f81116107e7575b50602090601f83116001146107725791806007949260e094600092610767575b50508160011b916000199060031b1c19161760068501555b0151910155336000526009602052610522856040600020611f6f565b33600052600a602052604060002061053a8154612079565b815542600480830182905585015410610752576001810161055b8154612079565b90555b8461064f575b5060008080809360018060a01b03825416828215610646575bf1156106015780158015610616575b505060038101548034116105dc575b506003015490604051918252602082015233917fdd94524e20a492198c03d08291f5dde45a69802f8c8b94125a0fd1149ca99fe8604060043593a460018055005b600080806105eb81943461206c565b81811561060d575b3390f115610601578361059b565b6040513d6000823e3d90fd5b506108fc6105f3565b6000808093819360018060a01b03600f541690839061063d575bf11561060157838061058c565b506108fc610630565b506108fc61057d565b60030161065d858254612088565b905560055460405163a9059cbb60e01b81523360048201526024810186905290602090829060449082906000906001600160a01b03165af190811561060157600091610723575b50156106e5576000808080936040518881527fe34918ff1c7084970068b53fd71ad6d8b04e9f15d3886cbf006443e6cdc52ea660203392a293505050610564565b60405162461bcd60e51b815260206004820152601660248201527514995dd85c99081d1c985b9cd9995c8819985a5b195960521b6044820152606490fd5b610745915060203d60201161074b575b61073d8183611cdd565b810190611feb565b866106a4565b503d610733565b600281016107608154612079565b905561055e565b015190508b806104ee565b906006850160005260206000209160005b601f19851681106107cf5750926007949260019260e09583601f198116106107b6575b505050811b016006850155610506565b015160001960f88460031b161c191690558b80806107a6565b91926020600181928685015181550194019201610783565b600685016000526020600020601f840160051c810160208510610827575b601f830160051c8201811061081b5750506104ce565b60008155600101610805565b5080610805565b634e487b7160e01b600052604160045260246000fd5b634e487b7160e01b600052602160045260246000fd5b60405162461bcd60e51b815260206004820152601b60248201527f496e73756666696369656e74207061796d656e7420616d6f756e7400000000006044820152606490fd5b60405162461bcd60e51b815260206004820152600e60248201526d2737ba103134b6361037bbb732b960911b6044820152606490fd5b60405162461bcd60e51b815260206004820152601f60248201527f5265656e7472616e637947756172643a207265656e7472616e742063616c6c006044820152606490fd5b60405162461bcd60e51b8152602060048201526011602482015270155cd95c881b9bdd081d995c9a599a5959607a1b6044820152606490fd5b61096c915060203d60201161074b5761073d8183611cdd565b81610337565b5060035460043511156102f7565b34610256576000366003190112610256576020600e54604051908152f35b3461025657602080600319360112610256576001600160a01b036109c0611c37565b1660005260088152604060002090604051908181845491828152019360005281600020916000905b828210610a0f57610a0b856109ff81890382611cdd565b60405191829182611e2d565b0390f35b8354865294850194600193840193909101906109e8565b346102565760203660031901126102565760043533600052600b60205260ff604060002054168015610af0575b610a5c90611f17565b80151580610ae4575b610a6e90611fa9565b6000526006602052604060002060068101906004825491610a9260ff841615612003565b0154421115610aa85761ff001916610100179055005b60405162461bcd60e51b815260206004820152601460248201527342696c6c206e6f7420796574206f76657264756560601b6044820152606490fd5b50600354811115610a65565b506000546001600160a01b03163314610a53565b346102565760c036600319011261025657610b1d611c37565b600860243510156102565760443567ffffffffffffffff811161025657610b48903690600401611e68565b60a43567ffffffffffffffff811161025657610b68903690600401611e68565b9133600052600b60205260ff60406000205416801561108e575b610b8b90611f17565b6001600160a01b039281841615611052576064351561100d57426084351115610fc857825115610f8357600160035401928360035560405190610bcd82611cc0565b8482526020820186851681526040830193610bea60243586611f63565b60608401928352606435608085015260843560a08501524260c0850152600060e08501526000610100850152610120840152856000526006602052604060002093835185558760018601925116825491516008811015610844576001600160a81b03199092161760a09190911b60ff60a01b161790555180519067ffffffffffffffff821161082e57610c806002850154611c4d565b601f8111610f3c575b50602090601f8311600114610ec85761012093929160009183610ebd575b50508160011b916000199060031b1c19161760028401555b6080810151600384015560a0810151600484015560c081015160058401556006830160e08201511515815460ff61ff00610100860151151560081b1692169061ffff191617179055015180519067ffffffffffffffff821161082e57610d286007840154611c4d565b601f8111610e72575b50916020959185938790601f8311600114610ddc57827f8b0fd94f7a52c91d188993cb42729c5fef26e6dfa148c8e22681bc8c42484c21959360609593600793600092610dd1575b50508160011b916000199060031b1c1916179101555b80851660005260088752610da7846040600020611f6f565b60405194610db786602435611da5565b6064358887015260843560408701521693a3604051908152f35b015190508b80610d79565b9060078401600052886000209160005b601f1985168110610e58575083606095936007936001937f8b0fd94f7a52c91d188993cb42729c5fef26e6dfa148c8e22681bc8c42484c219997601f19811610610e3f575b505050811b01910155610d8f565b015160001960f88460031b161c191690558b8080610e31565b818301518455899750600190930192918a01918a01610dec565b600784016000526020600020601f840160051c81019160208510610eb3575b601f0160051c01905b818110610ea75750610d31565b60008155600101610e9a565b9091508190610e91565b015190508880610ca7565b906002850160005260206000209160005b601f1985168110610f2457509183916001936101209695601f19811610610f0b575b505050811b016002840155610cbf565b015160001960f88460031b161c19169055888080610efb565b91926020600181928685015181550194019201610ed9565b600285016000526020600020601f840160051c810160208510610f7c575b601f830160051c82018110610f70575050610c89565b60008155600101610f5a565b5080610f5a565b60405162461bcd60e51b815260206004820152601d60248201527f50726f7669646572206e616d652063616e6e6f7420626520656d7074790000006044820152606490fd5b60405162461bcd60e51b815260206004820152601e60248201527f4475652064617465206d75737420626520696e207468652066757475726500006044820152606490fd5b60405162461bcd60e51b815260206004820152601d60248201527f416d6f756e74206d7573742062652067726561746572207468616e20300000006044820152606490fd5b60405162461bcd60e51b8152602060048201526014602482015273496e76616c69642075736572206164647265737360601b6044820152606490fd5b506000546001600160a01b03163314610b82565b34610256576000366003190112610256576110bb611ebf565b6000805481908190819047906001600160a01b03168282156110e0575bf11561060157005b506108fc6110d8565b34610256576020366003190112610256576020611107600435612095565b604051908152f35b34610256576000366003190112610256576004546040516001600160a01b039091168152602090f35b3461025657602036600319011261025657600435606061012060405161115d81611cc0565b600081526000602082015260006040820152828082015260006080820152600060a0820152600060c0820152600060e082015260006101008201520152801515806112f1575b6111ac90611fa9565b6000526006602052610a0b604060002061124b6007604051926111ce84611cc0565b8054845260018101546001600160a01b03811660208601526111f99060a01c60ff1660408601611f63565b61120560028201611cff565b606085015260038101546080850152600481015460a0850152600581015460c085015260ff6006820154818116151560e087015260081c16151561010085015201611cff565b610120820152604051918291602083528051602084015260018060a01b03602082015116604084015261128660408201516060850190611da5565b60608101516101206112a661014092836080880152610160870190611db2565b92608081015160a087015260a081015160c087015260c081015160e087015260e08101511515610100870152610100810151151582870152015190601f198584030190850152611db2565b506003548111156111a3565b3461025657602036600319011261025657600435611319611ebf565b600a8111611352576020817f45610d581145924dd7090a5017e5f2b1d6f42213bb2e95707ff86846bbfcb1ca92600e55604051908152a1005b60405162461bcd60e51b815260206004820152601160248201527008ccaca40e4c2e8ca40e8dede40d0d2ced607b1b6044820152606490fd5b34610256576020366003190112610256576004356113a7611ebf565b601481116113e0576020817f41d466ebd06fb97e7786086ac8b69b7eb7da798592036251291d34e9791cde0192600c55604051908152a1005b60405162461bcd60e51b81526020600482015260146024820152730a4caeec2e4c840e4c2e8ca40e8dede40d0d2ced60631b6044820152606490fd5b3461025657602080600319360112610256576001600160a01b0361143e611c37565b1660005260098152604060002090604051908181845491828152019360005281600020916000905b82821061147d57610a0b856109ff81890382611cdd565b835486529485019460019384019390910190611466565b3461025657600036600319011261025657602060405162278d008152f35b34610256576000366003190112610256576020600d54604051908152f35b34610256576000366003190112610256576000546040516001600160a01b039091168152602090f35b3461025657604036600319011261025657611512611c37565b6001600160a01b03166000908152600960205260409020805460243591908210156102565760209161154391611dff565b90546040519160031b1c8152f35b34610256576020366003190112610256576004356000526007602052604060002080546001820154916115ea60018060a01b03600283015416916115d96003820154600483015460ff6005850154169160076115af60068701611cff565b95015496604051998a998a5260208a015260408901526060880152608087015260a0860190611df2565b6101008060c0860152840190611db2565b9060e08301520390f35b346102565760203660031901126102565761160d611c37565b6000608060405161161d81611ca4565b828152826020820152826040820152826060820152015260018060a01b0316600052600a60205260a0604060002060405161165781611ca4565b81549182825260018101546020830190815260028201549060408401918252608060046003850154946060870195865201549401938452604051948552516020850152516040840152516060830152516080820152f35b34610256576000366003190112610256576005546040516001600160a01b039091168152602090f35b34610256576000366003190112610256576116f0611ebf565b600080546001600160a01b0319811682556001600160a01b03167f8be0079c531659141344cd1fd0a4f28419497f9722a3daafe3b4186f6b6457e08280a3005b34610256576000366003190112610256576020600254604051908152f35b34610256576000366003190112610256576020600c54604051908152f35b34610256576020366003190112610256576001600160a01b0361178d611c37565b16600052600b602052602060ff604060002054166040519015158152f35b34610256576040366003190112610256576117c4611c37565b6001600160a01b03166000908152600860205260409020805460243591908210156102565760209161154391611dff565b346102565760203660031901126102565761180e611c37565b611816611ebf565b6001600160a01b03166000818152600b60205260408120805460ff191690557f61ab96a9965ad8f38c807d7cf0636f9b6073d66b161b2086791ac6e48c97155c9080a2005b34610256576020366003190112610256576001600160a01b0361187c611c37565b16600052600a60205260a06040600020805490600181015490600281015460046003830154920154926040519485526020850152604084015260608301526080820152f35b3461025657600036600319011261025657602060405162093a808152f35b3461025657600036600319011261025657600f546040516001600160a01b039091168152602090f35b34610256576000366003190112610256576020600354604051908152f35b346102565760208060031936011261025657600435600060e060405161194b81611c87565b82815282858201528260408201528260608201528260808201528260a0820152606060c0820152015280151580611aa9575b15611a6b576000526007815260406000206040519061199b82611c87565b8054825260018101549083830191825260018060a01b0380600283015416604085019081526003830154606086019081526004840154906080870191825260ff6005860154169360a0880193600486101561084457611a489585526007611a0460068901611cff565b9760c08b0198895201549760e08a019889526040519a8b9a818c5251908b01525160408a0152511660608801525160808701525160a08601525160c0850190611df2565b51611a61610100918260e0860152610120850190611db2565b9151908301520390f35b60405162461bcd60e51b815260048101839052601660248201527514185e5b595b9d08191bd95cc81b9bdd08195e1a5cdd60521b6044820152606490fd5b5060025481111561197d565b3461025657602036600319011261025657600435600052600660205260406000208054610a0b600183015492611aed60028201611cff565b60ff6003830154926004810154600582015490611b4e611b14600760068601549501611cff565b95611b3d6040519b8c9b8c5260018060a01b03811660208d01528760408d019160a01c16611da5565b6101408060608c01528a0190611db2565b95608089015260a088015260c0870152818116151560e087015260081c161515610100850152838203610120850152611db2565b3461025657602036600319011261025657611b9b611c37565b611ba3611ebf565b6001600160a01b03168015611bf25780600052600b6020526040600020600160ff198254161790557f30aad5ec8e5ced8ded7e45959f743df649dbc96638aa1a73a56bb0c4e25aab3a600080a2005b60405162461bcd60e51b815260206004820152601860248201527f496e76616c69642070726f7669646572206164647265737300000000000000006044820152606490fd5b600435906001600160a01b038216820361025657565b90600182811c92168015611c7d575b6020831014611c6757565b634e487b7160e01b600052602260045260246000fd5b91607f1691611c5c565b610100810190811067ffffffffffffffff82111761082e57604052565b60a0810190811067ffffffffffffffff82111761082e57604052565b610140810190811067ffffffffffffffff82111761082e57604052565b90601f8019910116810190811067ffffffffffffffff82111761082e57604052565b9060405191826000825492611d1384611c4d565b908184526001948581169081600014611d825750600114611d3f575b5050611d3d92500383611cdd565b565b9093915060005260209081600020936000915b818310611d6a575050611d3d93508201013880611d2f565b85548884018501529485019487945091830191611d52565b915050611d3d94506020925060ff191682840152151560051b8201013880611d2f565b9060088210156108445752565b919082519283825260005b848110611dde575050826000602080949584010152601f8019910116010190565b602081830181015184830182015201611dbd565b9060048210156108445752565b8054821015611e175760005260206000200190600090565b634e487b7160e01b600052603260045260246000fd5b6020908160408183019282815285518094520193019160005b828110611e54575050505090565b835185529381019392810192600101611e46565b81601f820112156102565780359067ffffffffffffffff821161082e5760405192611e9d601f8401601f191660200185611cdd565b8284526020838301011161025657816000926020809301838601378301015290565b6000546001600160a01b03163303611ed357565b606460405162461bcd60e51b815260206004820152602060248201527f4f776e61626c653a2063616c6c6572206973206e6f7420746865206f776e65726044820152fd5b15611f1e57565b60405162461bcd60e51b815260206004820152601760248201527f4e6f7420617574686f72697a65642070726f76696465720000000000000000006044820152606490fd5b60088210156108445752565b80546801000000000000000081101561082e57611f9191600182018155611dff565b819291549060031b91821b91600019901b1916179055565b15611fb057565b60405162461bcd60e51b8152602060048201526013602482015272109a5b1b08191bd95cc81b9bdd08195e1a5cdd606a1b6044820152606490fd5b90816020910312610256575180151581036102565790565b1561200a57565b60405162461bcd60e51b8152602060048201526011602482015270109a5b1b08185b1c9958591e481c185a59607a1b6044820152606490fd5b8181029291811591840414171561205657565b634e487b7160e01b600052601160045260246000fd5b9190820391821161205657565b60001981146120565760010190565b9190820180921161205657565b6120b090801515806120b3575b6120ab90611fa9565b6120bf565b90565b506003548111156120a2565b60009081526006602052604081206040516120d981611cc0565b8154815260018201546001600160a01b03811660208301526121049060a01c60ff1660408301611f63565b61211060028301611cff565b606082015260038201549060808101918252610120612164600760048601549560a08501968752600581015460c086015260ff6006820154818116151560e088015260081c16151561010086015201611cff565b910152815162278d0081018091116121ec5742116121e757606461218c8251600c5490612043565b049282519062093a7f1982019182116121d357504211156121b65750514211156120b05760011c90565b6120b09291506121cc60649151600d5490612043565b0490612088565b634e487b7160e01b81526011600452602490fd5b505090565b634e487b7160e01b84526011600452602484fdfea2646970667358221220978db2adf819c579212f1acbbf93d96ee92b9e8193177fd530ad0987e342a7fe64736f6c63430008130033",
  "linkReferences": {},
  "deployedLinkReferences": {}
}