{
  "_format": "hh-sol-artifact-1",
  "contractName": "NexusToken",
  "sourceName": "contracts/NexusToken.sol",
  "abi": [
    {
      "inputs": [],
      "stateMutability": "nonpayable",
      "type": "constructor"
    },
    {
      "anonymous": false,
      "inputs": [
        {
          "indexed": true,
          "internalType": "address",
          "name": "owner",
          "type": "address"
        },
        {
          "indexed": true,
          "internalType": "address",
          "name": "spender",
          "type": "address"
        },
        {
          "indexed": false,
          "internalType": "uint256",
          "name": "value",
          "type": "uint256"
        }
      ],
      "name": "Approval",
      "type": "event"
    },
    {
      "anonymous": false,
      "inputs": [
        {
          "indexed": true,
          "internalType": "address",
          "name": "minter",
          "type": "address"
        }
      ],
      "name": "MinterAdded",
      "type": "event"
    },
    {
      "anonymous": false,
      "inputs": [
        {
          "indexed": true,
          "internalType": "address",
          "name": "minter",
          "type": "address"
        }
      ],
      "name": "MinterRemoved",
      "type": "event"
    },
    {
      "anonymous": false,
      "inputs": [
        {
          "indexed": true,
          "internalType": "address",
          "name": "previousOwner",
          "type": "address"
        },
        {
          "indexed": true,
          "internalType": "address",
          "name": "newOwner",
          "type": "address"
        }
      ],
      "name": "OwnershipTransferred",
      "type": "event"
    },
    {
      "anonymous": false,
      "inputs": [
        {
          "indexed": false,
          "internalType": "address",
          "name": "account",
          "type": "address"
        }
      ],
      "name": "Paused",
      "type": "event"
    },
    {
      "anonymous": false,
      "inputs": [
        {
          "indexed": true,
          "internalType": "address",
          "name": "from",
          "type": "address"
        },
        {
          "indexed": true,
          "internalType": "address",
          "name": "to",
          "type": "address"
        },
        {
          "indexed": false,
          "internalType": "uint256",
          "name": "value",
          "type": "uint256"
        }
      ],
      "name": "Transfer",
      "type": "event"
    },
    {
      "anonymous": false,
      "inputs": [
        {
          "indexed": false,
          "internalType": "address",
          "name": "account",
          "type": "address"
        }
      ],
      "name": "Unpaused",
      "type": "event"
    },
    {
      "inputs": [],
      "name": "INITIAL_SUPPLY",
      "outputs": [
        {
          "internalType": "uint256",
          "name": "",
          "type": "uint256"
        }
      ],
      "stateMutability": "view",
      "type": "function"
    },
    {
      "inputs": [],
      "name": "MAX_SUPPLY",
      "outputs": [
        {
          "internalType": "uint256",
          "name": "",
          "type": "uint256"
        }
      ],
      "stateMutability": "view",
      "type": "function"
    },
    {
      "inputs": [
        {
          "internalType": "address",
          "name": "_minter",
          "type": "address"
        }
      ],
      "name": "addMinter",
      "outputs": [],
      "stateMutability": "nonpayable",
      "type": "function"
    },
    {
      "inputs": [
        {
          "internalType": "address",
          "name": "owner",
          "type": "address"
        },
        {
          "internalType": "address",
          "name": "spender",
          "type": "address"
        }
      ],
      "name": "allowance",
      "outputs": [
        {
          "internalType": "uint256",
          "name": "",
          "type": "uint256"
        }
      ],
      "stateMutability": "view",
      "type": "function"
    },
    {
      "inputs": [
        {
          "internalType": "address",
          "name": "spender",
          "type": "address"
        },
        {
          "internalType": "uint256",
          "name": "amount",
          "type": "uint256"
        }
      ],
      "name": "approve",
      "outputs": [
        {
          "internalType": "bool",
          "name": "",
          "type": "bool"
        }
      ],
      "stateMutability": "nonpayable",
      "type": "function"
    },
    {
      "inputs": [
        {
          "internalType": "address",
          "name": "account",
          "type": "address"
        }
      ],
      "name": "balanceOf",
      "outputs": [
        {
          "internalType": "uint256",
          "name": "",
          "type": "uint256"
        }
      ],
      "stateMutability": "view",
      "type": "function"
    },
    {
      "inputs": [],
      "name": "decimals",
      "outputs": [
        {
          "internalType": "uint8",
          "name": "",
          "type": "uint8"
        }
      ],
      "stateMutability": "view",
      "type": "function"
    },
    {
      "inputs": [
        {
          "internalType": "address",
          "name": "spender",
          "type": "address"
        },
        {
          "internalType": "uint256",
          "name": "subtractedValue",
          "type": "uint256"
        }
      ],
      "name": "decreaseAllowance",
      "outputs": [
        {
          "internalType": "bool",
          "name": "",
          "type": "bool"
        }
      ],
      "stateMutability": "nonpayable",
      "type": "function"
    },
    {
      "inputs": [
        {
          "internalType": "address",
          "name": "spender",
          "type": "address"
        },
        {
          "internalType": "uint256",
          "name": "addedValue",
          "type": "uint256"
        }
      ],
      "name": "increaseAllowance",
      "outputs": [
        {
          "internalType": "bool",
          "name": "",
          "type": "bool"
        }
      ],
      "stateMutability": "nonpayable",
      "type": "function"
    },
    {
      "inputs": [
        {
          "internalType": "address",
          "name": "_to",
          "type": "address"
        },
        {
          "internalType": "uint256",
          "name": "_amount",
          "type": "uint256"
        }
      ],
      "name": "mint",
      "outputs": [],
      "stateMutability": "nonpayable",
      "type": "function"
    },
    {
      "inputs": [
        {
          "internalType": "address",
          "name": "",
          "type": "address"
        }
      ],
      "name": "minters",
      "outputs": [
        {
          "internalType": "bool",
          "name": "",
          "type": "bool"
        }
      ],
      "stateMutability": "view",
      "type": "function"
    },
    {
      "inputs": [],
      "name": "name",
      "outputs": [
        {
          "internalType": "string",
          "name": "",
          "type": "string"
        }
      ],
      "stateMutability": "view",
      "type": "function"
    },
    {
      "inputs": [],
      "name": "owner",
      "outputs": [
        {
          "internalType": "address",
          "name": "",
          "type": "address"
        }
      ],
      "stateMutability": "view",
      "type": "function"
    },
    {
      "inputs": [],
      "name": "pause",
      "outputs": [],
      "stateMutability": "nonpayable",
      "type": "function"
    },
    {
      "inputs": [],
      "name": "paused",
      "outputs": [
        {
          "internalType": "bool",
          "name": "",
          "type": "bool"
        }
      ],
      "stateMutability": "view",
      "type": "function"
    },
    {
      "inputs": [
        {
          "internalType": "address",
          "name": "_minter",
          "type": "address"
        }
      ],
      "name": "removeMinter",
      "outputs": [],
      "stateMutability": "nonpayable",
      "type": "function"
    },
    {
      "inputs": [],
      "name": "renounceOwnership",
      "outputs": [],
      "stateMutability": "nonpayable",
      "type": "function"
    },
    {
      "inputs": [],
      "name": "symbol",
      "outputs": [
        {
          "internalType": "string",
          "name": "",
          "type": "string"
        }
      ],
      "stateMutability": "view",
      "type": "function"
    },
    {
      "inputs": [],
      "name": "totalSupply",
      "outputs": [
        {
          "internalType": "uint256",
          "name": "",
          "type": "uint256"
        }
      ],
      "stateMutability": "view",
      "type": "function"
    },
    {
      "inputs": [
        {
          "internalType": "address",
          "name": "to",
          "type": "address"
        },
        {
          "internalType": "uint256",
          "name": "amount",
          "type": "uint256"
        }
      ],
      "name": "transfer",
      "outputs": [
        {
          "internalType": "bool",
          "name": "",
          "type": "bool"
        }
      ],
      "stateMutability": "nonpayable",
      "type": "function"
    },
    {
      "inputs": [
        {
          "internalType": "address",
          "name": "from",
          "type": "address"
        },
        {
          "internalType": "address",
          "name": "to",
          "type": "address"
        },
        {
          "internalType": "uint256",
          "name": "amount",
          "type": "uint256"
        }
      ],
      "name": "transferFrom",
      "outputs": [
        {
          "internalType": "bool",
          "name": "",
          "type": "bool"
        }
      ],
      "stateMutability": "nonpayable",
      "type": "function"
    },
    {
      "inputs": [
        {
          "internalType": "address",
          "name": "newOwner",
          "type": "address"
        }
      ],
      "name": "transferOwnership",
      "outputs": [],
      "stateMutability": "nonpayable",
      "type": "function"
    },
    {
      "inputs": [],
      "name": "unpause",
      "outputs": [],
      "stateMutability": "nonpayable",
      "type": "function"
    }
  ],
  "bytecode": "0x60803462000439576001600160401b03906040908082018381118282101762000339578252600b815260206a2732bc3ab9902a37b5b2b760a91b8183015282519383850185811082821117620003395784526003908186526209c8ab60eb1b8387015283519181831162000339578054926001958685811c951680156200042e575b8686101462000418578190601f95868111620003c2575b5086908683116001146200035b576000926200034f575b505060001982841b1c191690861b1781555b8651918211620003395760049687548681811c911680156200032e575b86821014620003195790818585949311620002c1575b50859085841160011462000256576000936200024a575b505082861b92600019911b1c19161785555b60055484519190336001600160a01b0382167f8be0079c531659141344cd1fd0a4f28419497f9722a3daafe3b4186f6b6457e0600080a36001600160a81b0319163360ff60a01b19811691909117600555156200020d5750506002546a52b7d2dcc80cd2e400000090818101809111620001f8579060069291600255336000526000825284600020818154019055845190815260007fddf252ad1be2c89b69c2b068fc378daa952ba7f163c4a11628f55a4df523b3ef833393a33360005252816000209060ff1982541617905551610fcc90816200043f8239f35b601186634e487b7160e01b6000525260246000fd5b6064928662461bcd60e51b845283015260248201527f45524332303a206d696e7420746f20746865207a65726f2061646472657373006044820152fd5b0151915038806200010b565b9190879450601f198416928a600052876000209360005b89828210620002aa57505085116200028f575b50505050811b0185556200011d565b01519060f884600019921b161c191690553880808062000280565b8385015187558b989096019593840193016200026d565b9091925088600052856000208580860160051c8201928887106200030f575b91899187969594930160051c01915b828110620002ff575050620000f4565b60008155869550899101620002ef565b92508192620002e0565b602289634e487b7160e01b6000525260246000fd5b90607f1690620000de565b634e487b7160e01b600052604160045260246000fd5b015190503880620000af565b90889350601f1983169185600052886000209260005b8a828210620003ab575050841162000392575b505050811b018155620000c1565b015160001983861b60f8161c1916905538808062000384565b8385015186558c9790950194938401930162000371565b90915083600052866000208680850160051c8201928986106200040e575b918a91869594930160051c01915b828110620003fe57505062000098565b600081558594508a9101620003ee565b92508192620003e0565b634e487b7160e01b600052602260045260246000fd5b94607f169462000081565b600080fdfe608060408181526004918236101561001657600080fd5b600092833560e01c91826306fdde0314610b1257508163095ea7b314610ae857816318160ddd14610ac957816323b872dd146109f55781632ff2e9dc146109cf5781633092afd514610922578163313ce5671461090657816332cb6b0c146108df578163395093511461088f5781633f4ba83a146107f357816340c10f191461066c5781635c975abb1461064557816370a082311461060e578163715018a6146105b15781638456cb59146105505781638da5cb5b1461052757816395d89b4114610408578163983b2d561461035c578163a457c2d7146102b4578163a9059cbb1461027b578163dd62ed3e14610232578163f2fde38b14610162575063f46eccc41461012257600080fd5b3461015e57602036600319011261015e5760209160ff9082906001600160a01b0361014b610c33565b1681526006855220541690519015158152f35b5080fd5b90503461022e57602036600319011261022e5761017d610c33565b90610186610c64565b6001600160a01b039182169283156101dc575050600554826bffffffffffffffffffffffff60a01b821617600555167f8be0079c531659141344cd1fd0a4f28419497f9722a3daafe3b4186f6b6457e08380a380f35b906020608492519162461bcd60e51b8352820152602660248201527f4f776e61626c653a206e6577206f776e657220697320746865207a65726f206160448201526564647265737360d01b6064820152fd5b8280fd5b50503461015e578060031936011261015e5780602092610250610c33565b610258610c4e565b6001600160a01b0391821683526001865283832091168252845220549051908152f35b50503461015e578060031936011261015e576020906102ad61029b610c33565b6102a3610de1565b6024359033610e28565b5160018152f35b905082346103595782600319360112610359576102cf610c33565b918360243592338152600160205281812060018060a01b0386168252602052205490828210610308576020856102ad8585038733610cdf565b608490602086519162461bcd60e51b8352820152602560248201527f45524332303a2064656372656173656420616c6c6f77616e63652062656c6f77604482015264207a65726f60d81b6064820152fd5b80fd5b9190503461022e57602036600319011261022e57610378610c33565b610380610c64565b6001600160a01b03169182156103cd575081835260066020528220805460ff191660011790557f6ae172837ea30b801fbfcdd4108aa1d5bf8ff775444fd70256b44e6bf3dfc3f68280a280f35b6020606492519162461bcd60e51b83528201526016602482015275496e76616c6964206d696e746572206164647265737360501b6044820152fd5b83833461015e578160031936011261015e57805190828454600181811c9080831692831561051d575b602093848410811461050a578388529081156104ee5750600114610499575b505050829003601f01601f191682019267ffffffffffffffff8411838510176104865750829182610482925282610bea565b0390f35b634e487b7160e01b815260418552602490fd5b8787529192508591837f8a35acfbc15ff81a39ae7d344fd709f28e8600b4aa8c65c6b64bfe7fe36bd19b5b8385106104da5750505050830101858080610450565b8054888601830152930192849082016104c4565b60ff1916878501525050151560051b8401019050858080610450565b634e487b7160e01b895260228a52602489fd5b91607f1691610431565b50503461015e578160031936011261015e5760055490516001600160a01b039091168152602090f35b50503461015e578160031936011261015e5760207f62e78cea01bee320cd4e420270b5ea74000d11b0c9f74754ebdbfc544b05a2589161058e610c64565b610596610de1565b6005805460ff60a01b1916600160a01b17905551338152a180f35b83346103595780600319360112610359576105ca610c64565b600580546001600160a01b0319811690915581906001600160a01b03167f8be0079c531659141344cd1fd0a4f28419497f9722a3daafe3b4186f6b6457e08280a380f35b50503461015e57602036600319011261015e5760209181906001600160a01b03610636610c33565b16815280845220549051908152f35b50503461015e578160031936011261015e5760209060ff60055460a01c1690519015158152f35b9190503461022e578060031936011261022e57610687610c33565b90602435903385526020926006845260ff828720541680156107df575b156107a4576106b1610de1565b6001600160a01b031693841561076357600254906b033b2e3c9fd0803ce80000006106dc8584610cbc565b1161072b575091859391610711827fddf252ad1be2c89b69c2b068fc378daa952ba7f163c4a11628f55a4df523b3ef95610cbc565b60025585855284835280852082815401905551908152a380f35b825162461bcd60e51b8152908101859052601260248201527145786365656473206d617820737570706c7960701b6044820152606490fd5b83606492519162461bcd60e51b8352820152601b60248201527f43616e6e6f74206d696e7420746f207a65726f206164647265737300000000006044820152fd5b815162461bcd60e51b815280860185905260156024820152742737ba1030baba3437b934bd32b21036b4b73a32b960591b6044820152606490fd5b506005546001600160a01b031633146106a4565b90503461022e578260031936011261022e5761080d610c64565b6005549060ff8260a01c1615610855575060ff60a01b1916600555513381527f5db9ee0a495bf2e6ff9c91a7834c1ba4fdd244a5e8aa4e537bd38aeae4b073aa90602090a180f35b606490602084519162461bcd60e51b8352820152601460248201527314185d5cd8589b194e881b9bdd081c185d5cd95960621b6044820152fd5b50503461015e578060031936011261015e576102ad6020926108d86108b2610c33565b338352600186528483206001600160a01b03821684528652918490205460243590610cbc565b9033610cdf565b50503461015e578160031936011261015e57602090516b033b2e3c9fd0803ce80000008152f35b50503461015e578160031936011261015e576020905160128152f35b9190503461022e57602036600319011261022e5761093e610c33565b91610947610c64565b6005546001600160a01b0393841693168314610997575081835260066020528220805460ff191690557fe94479a9f7e1952cc78f2d6baab678adc1b772d936c6583def489e524cb666928280a280f35b6020606492519162461bcd60e51b8352820152601360248201527221b0b73737ba103932b6b7bb329037bbb732b960691b6044820152fd5b50503461015e578160031936011261015e57602090516a52b7d2dcc80cd2e40000008152f35b8391503461015e57606036600319011261015e57610a11610c33565b610a19610c4e565b918460443594610a27610de1565b6001600160a01b03841681526001602081815283832033845290529190205491908201610a5d575b6020866102ad878787610e28565b848210610a865750918391610a7b602096956102ad95033383610cdf565b919394819350610a4f565b606490602087519162461bcd60e51b8352820152601d60248201527f45524332303a20696e73756666696369656e7420616c6c6f77616e63650000006044820152fd5b50503461015e578160031936011261015e576020906002549051908152f35b50503461015e578060031936011261015e576020906102ad610b08610c33565b6024359033610cdf565b8490843461022e578260031936011261022e5782600354600181811c90808316928315610be0575b602093848410811461050a578388529081156104ee5750600114610b8a57505050829003601f01601f191682019267ffffffffffffffff8411838510176104865750829182610482925282610bea565b600387529192508591837fc2575a0e9e593c00f959f8c92f12db2869c3395a3b0502d05e2516446f71f85b5b838510610bcc5750505050830101858080610450565b805488860183015293019284908201610bb6565b91607f1691610b3a565b6020808252825181830181905290939260005b828110610c1f57505060409293506000838284010152601f8019910116010190565b818101860151848201604001528501610bfd565b600435906001600160a01b0382168203610c4957565b600080fd5b602435906001600160a01b0382168203610c4957565b6005546001600160a01b03163303610c7857565b606460405162461bcd60e51b815260206004820152602060248201527f4f776e61626c653a2063616c6c6572206973206e6f7420746865206f776e65726044820152fd5b91908201809211610cc957565b634e487b7160e01b600052601160045260246000fd5b6001600160a01b03908116918215610d905716918215610d405760207f8c5be1e5ebec7d5bd14f71427d1e84f3dd0314c0f7b2291e5b200ac8c7c3b925918360005260018252604060002085600052825280604060002055604051908152a3565b60405162461bcd60e51b815260206004820152602260248201527f45524332303a20617070726f766520746f20746865207a65726f206164647265604482015261737360f01b6064820152608490fd5b60405162461bcd60e51b8152602060048201526024808201527f45524332303a20617070726f76652066726f6d20746865207a65726f206164646044820152637265737360e01b6064820152608490fd5b60ff60055460a01c16610df057565b60405162461bcd60e51b815260206004820152601060248201526f14185d5cd8589b194e881c185d5cd95960821b6044820152606490fd5b6001600160a01b03908116918215610f435716918215610ef257600082815280602052604081205491808310610e9e57604082827fddf252ad1be2c89b69c2b068fc378daa952ba7f163c4a11628f55a4df523b3ef958760209652828652038282205586815220818154019055604051908152a3565b60405162461bcd60e51b815260206004820152602660248201527f45524332303a207472616e7366657220616d6f756e7420657863656564732062604482015265616c616e636560d01b6064820152608490fd5b60405162461bcd60e51b815260206004820152602360248201527f45524332303a207472616e7366657220746f20746865207a65726f206164647260448201526265737360e81b6064820152608490fd5b60405162461bcd60e51b815260206004820152602560248201527f45524332303a207472616e736665722066726f6d20746865207a65726f206164604482015264647265737360d81b6064820152608490fdfea264697066735822122010a1778d863c8a577a87d79be8e22d421c49fea8465f605494e6772e4b05f50964736f6c63430008130033",
  "linkReferences": {},
  "deployedLinkReferences": {}
}